:020000040800F2
:10000000F0660020C101000803310008452B0008FC
:1000100001310008470300089F4B00080000000062
:100020000000000000000000000000009131000806
:10003000250400080000000011310008C13100084B
:10004000DB010008DB010008DB010008DB01000820
:10005000DB010008DB010008DB010008DB01000810
:10006000DB010008DB010008DB010008DB01000800
:1000700095030008DB010008A1030008DB0100086C
:10008000DB010008AD030008DB010008DB0100080C
:10009000DB010008DB010008DB010008DB010008D0
:1000A000DB010008DB010008DB010008DB010008C0
:1000B000DB010008DB010008DB010008DB010008B0
:1000C000DB010008DB010008DB010008DB010008A0
:1000D000DB010008DB010008DB010008DB01000890
:1000E000DB010008DB010008DB010008DB01000880
:1000F000DB010008DB010008DB010008DB01000870
:10010000DB010008DB010008DB010008DB0100085F
:10011000DB010008DB010008DB010008DB0100084F
:10012000DB010008B9030008C5030008D10300087B
:10013000DD030008DB010008DB010008DB0100082B
:10014000DB010008DB010008DB01000805310008C5
:10015000DB010008E9030008DB0100084135000865
:10016000DB010008DB010008DB010008DB010008FF
:10017000DB010008DB010008DB01000800000000D3
:10018000DB010008DB010008B1330008BD330008C3
:10019000DB01000875310008DB010008DB01000805
:1001A0000000000000000000DB010008DFF80CD0B8
:1001B00000F08CF800480047A14B0008F0660020D2
:1001C0000648804706480047FEE7FEE7FEE7FEE7F1
:1001D000FEE7FEE7FEE7FEE7FEE7FEE78132000806
:1001E000AD0100082DE9F05F0546002092469B46D0
:1001F00088460646814640241BE02846414647463D
:10020000224600F053F853465A46C01A914110D383
:1002100011461846224600F03AF82D1A67EB0108FD
:100220004F4622460120002100F031F817EB00096B
:100230004E41201EA4F10104DFDC484631462A4627
:100240004346BDE8F09F40EA01039B0703D009E065
:1002500008C9121F08C0042AFAD203E011F8013BB2
:1002600000F8013B521EF9D27047D2B201E000F80B
:10027000012B491EFBD270470022F6E710B513464A
:100280000A4604461946FFF7F0FF204610BD202A13
:1002900004DB203A00FA02F1002070479140C2F1DD
:1002A000200320FA03F3194390407047202A04DB0F
:1002B000203A21FA02F00021704721FA02F3D040DF
:1002C000C2F120029140084319467047064C074D81
:1002D00006E0E06840F0010394E807009847103416
:1002E000AC42F6D3FFF766FF40580008605800089C
:1002F00070B58C1810F8015B15F0070301D110F8E8
:10030000013B2A1106D110F8012B03E010F8016B14
:1003100001F8016B5B1EF9D12B0705D40023521E97
:100320000DD401F8013BFAE710F8013BCB1A921CFF
:1003300003E013F8015B01F8015B521EF9D5A142FD
:10034000D8D3002070BDFEE7002070470020704722
:1003500010B50E4C05490022204603F0FFF9044970
:10036000204603F0F5F9002010BD00BF580C002016
:100370005804002010B5054C0146204603F0E8F96A
:10038000204603F0CAF9002010BD00BF5C14002015
:1003900000207047014800F09DBA00BF741900208A
:1003A000014800F097BA00BFD8190020014800F0BA
:1003B00091BA00BFAC180020014800F08BBA00BF12
:1003C0003C1A0020014800F085BA00BF1019002037
:1003D000014800F07FBA00BFE4170020014800F098
:1003E00079BA00BF48180020014800F073BA00BF76
:1003F000A01A002001686FF00F0240F2FF3352FA9A
:1004000081F2994318235F2AB2FBF3F203A388BF5A
:100410000431C1659A5C02660846704700061016F2
:10042000000610167047EFF3108072B6FEE700006A
:1004300078B500220092C26B012A01D1022147E067
:100440000122C263D1F800E01FFA8EFCBEF10A0F50
:100450004FEA4C0212FA8EF204D303681E3A03F1FB
:100460000C0402E0036803F1100407252668954098
:1004700026EA050525608D6805FA02F225682A43FB
:1004800022604A68062A05D802EB820203F1340191
:10049000053A0BE002EB82040C2A87BF03F12C0122
:1004A000A4F1410203F13001A4F123021F240D68DD
:1004B00094400CFA02F225EA04040C600E68324300
:1004C0000A606949A1F54172934204D00021C163D9
:1004D000084601B070BDBEF1110F0ED0144A96450A
:1004E0000BD0BEF1120FF1D10A6822F400020A60AB
:1004F0000A6842F480020A60E8E70A6822F480028F
:100500000A600A6842F400020A6009498E45DDD19A
:100510000849094A0968B1FBF2F101EB8101490080
:1005200001E000990139009100990029F9D1CDE746
:10053000120000102C00002040420F00002841D083
:1005400010B50446006C28B9204600F095F800204C
:10055000E0636064206CC00636D4206C41F2021166
:10056000424B8843023020643F48016821F4403107
:10057000016061680268114301602068416821F4EC
:10058000807141602169426842EA0121416041680D
:1005900021F040714160A168426811434160816867
:1005A00021F400618160E168826811438160A16A81
:1005B000826822F0706299428260826806D122F0DD
:1005C00040510CE00120704701204AE01143816056
:1005D000816821F040518160E16A82681143816045
:1005E000816821F002018160A169826842EA4101CB
:1005F0008160226A41686AB141F400611C4A41602D
:10060000416821F460414160616A02EB4131426816
:10061000114301E021F400614160164AC16A21F4EE
:100620007001C162E16902EB0151C26A1143C1620A
:10063000816821F400718160216B826842EA412166
:100640008160816821F4806181606169826842EA29
:1006500081210122816000206064216C62F301012C
:1006600021640021E16310BD042301400100000F5B
:1006700000E0FFFF0000F0FF10B586B0044601A8BF
:100680001421FFF7F9FD2168124881421FD1002192
:10069000854A00F560400091536943F480735361CB
:1006A000536903F480730093009B0091136843F037
:1006B00001031360126802F001020092009A039194
:1006C000032102910221019101A900F057FA06B01D
:1006D00010BD00BF00200140B0B5B8B10446006BAA
:1006E00010B9204600F070F82068016821F002017E
:1006F000016000F017FB054620684168890707D5AF
:1007000000F010FB401B0B28F6D311E00120B0BD18
:10071000016841F00101016000F004FB054620681A
:100720004168C9070BD100F0FDFA401B0B28F6D336
:10073000606B052140F400306063012041E0A16955
:100740000268251D22F08003012908BF42F08003C2
:100750000360E169026822F04003012908BF42F00A
:1007600040030360216A026822F02003012908BFC8
:1007700042F020030360616A026842F0100301291D
:1007800008BF22F010030360A16A026822F0080388
:10079000012908BF42F008030360E16A026822F001
:1007A0000403012908BF42F0040303602ECD1A435D
:1007B00063692A4301391A431143C16100200121B1
:1007C00060632163B0BD000010B586B0044601A887
:1007D0001421FFF751FD20683149884229D0314961
:1007E00088425AD1314801684A1C002902602E48CB
:1007F0000AD100210091016941F000710161016994
:1008000001F000710091009900210091026842F00E
:1008100002020260006800F00200009000980920C7
:1008200005900320CDE90310022002904FF44070A0
:100830002EE000201C4900900A6942F080620A61A3
:100840000A6902F080620092009A184A13685C1CE0
:10085000002B146009D100900A6942F000720A610D
:100860000A6902F000720092009A00900A6842F051
:1008700002020A60096801F0020100910099092151
:1008800005910321CDE903010220029042F22000EC
:100890000190074801A900F071F906B010BD00BF32
:1008A00000680040006400403038024050020020E0
:1008B00000040240816B022908D105218163006890
:1008C000016821F0010101600020704780218165ED
:1008D00001207047F8B504460020082100905448D4
:1008E0000568D4E917603768814039420CD0226826
:1008F00013685B0708D5136823F004031360B16025
:10090000A16D41F00101A16501218140394208D06A
:1009100022685269120604D5B160A16D41F002014E
:10092000A16504218140394208D0226812689207EB
:1009300004D5B160A16D41F00401A1651021814091
:10094000394217D020680268120713D5B1600268D7
:100950000168520306D4C9055EBF016821F0080191
:10096000016001E0080301D4616C00E0E16C09B1B1
:1009700020468847216E202000FA01F23A4236D004
:1009800020680368DB0632D5B260A36B0268052BD2
:1009900017D122F016020260426922F08002426101
:1009A000626C0AB9E26C1AB1026822F008020260B5
:1009B0003F208840B0600120A06300206063616D2B
:1009C00032E0016852030AD4C9050CD4016821F051
:1009D000100101600120A0630020606303E00803B0
:1009E00001D4A16C00E0216C09B120468847A06DBC
:1009F000E8B1A06DC00716D005214FF41650A163D1
:100A0000B5FBF0F021680A6822F001020A60009A42
:100A100001328242009202D80A68D207F7D101203F
:100A2000A06300206063216D09B120468847F8BDAE
:100A30002C0000202DE9F041044600F073F9002C51
:100A40004DD005460220A06300206063216808683D
:100A500020F00100086005E000F064F9401B052863
:100A600040D821680868C007F6D10868394AD4E937
:100A7000013504F10C0800EA020C98E8C101D4E940
:100A8000072E43EA0C032B431843636A3043384371
:100A9000042B40EA080040EA020040EA0E0225D199
:100AA000D4E90BE042EA0E02BEF1000F40EA020078
:100AB000086051F8140FA26A20F0030040EA020017
:100AC00040F0040C19D0B8F5005F27D0B8F1000F42
:100AD00034D1022A35D0012A2AD092B30DE0012068
:100AE000BDE8F08103252023032013E00A6051F8BC
:100AF000140F20F0070040EA030C2046C1F800C0A4
:100B0000FFF778FC216E3F220125002302FA01F154
:100B100081600020A365A563BDE8F081032AECD8BD
:100B2000012540230120DFE802F0020C0203F1E777
:100B3000AEF1C070B0FA80F0400904E0032A04D39B
:100B4000DBD1CEF300600028D7D00125402301205F
:100B5000E0E700BF3F8010F0B0B5044600F0E2F8D7
:100B600005460548611C406818BF044400F0DAF8E7
:100B7000401BA042FAD3B0BD080000202DE9F84F79
:100B80005F4A4FF00A0A4FF0010B4FF000084FF098
:100B9000000E90425B4A08BF4FF0090A02444FEA38
:100BA000B223092B38BF4FEAB22A0022BEF1200F30
:100BB00008BFBDE8F88F0B680BFA02F6334200F06D
:100BC00091804B68122B00F293800BFA03F414F01F
:100BD000061F00F08D800327856807FA0EF4CF68A2
:100BE000A5436FEA040C540007FA0EF72F43876001
:100BF000C3F3001745689740B5432F434760C56866
:100C00008F6805EA0C05A7403D43C56043F0100519
:100C1000122D13D16FF0030708F01C030F2507EA0C
:100C200052079D400744D7F8209029EA05090D692D
:100C300005FA03F343EA09033B624B6803F003053B
:100C4000DB0005FA04F4056805EA0C0747EA040727
:100C5000076047D500232C4C08F00C0500932C4B63
:100C6000A4461F461B6843F480433B603B6803F483
:100C70008043009322F003032344264C009FA146A7
:100C80001F590F24AC400AFA05F5A7432F4343F838
:100C90000970DCF800304D6843EA0607EC0358BFE2
:100CA00023EA0607CCF80070AC03DCF8043043EA12
:100CB000060758BF23EA0607CCF80470EC02DCF8FC
:100CC000083043EA060758BF23EA06070F4BCCF863
:100CD0000870AD021C461B6843EA060758BF23EAAA
:100CE0000607276008F104080EF1020E01325DE7E5
:100CF000032707FA0EF46FEA040C74467FE700BF7F
:100D0000002402400000FEBF003C01400C3C0140BA
:100D10004438024008FCFFFF002A08BF0904816133
:100D200070470000AD480068704700BF026C202A81
:100D30001CBF02207047242202640268136823F05B
:100D400001031360536A23F010035362536A19437B
:100D50005162116841F001011160202101640020FD
:100D60007047026C202A1CBF02207047242289B2DF
:100D700002640268136823F0010313604FF6F073F6
:100D8000D2F824C003EA0C0319435162116841F000
:100D9000010111602021016400207047B0B548B303
:100DA0000446006C20B90020E063204600F0B4F84F
:100DB000242020642068016821F00101016001689D
:100DC00041F400410160016821F40041016000F03C
:100DD000E7FF4C494C4B00224C4D88424FF000013C
:100DE00038BF0121984238BF01226368AB4238BF47
:100DF0000A460AB10120B0BD4549B0FBF1F22168B5
:100E00004D6825F03F0515434D600D6A25F03F0CF8
:100E1000404DAB4213D80132013842EA0C020A625B
:100E20005A004CF6FF73B0FBF2F001306FF31F3045
:100E3000042898BF0420CA6922EA030C3AE04FF460
:100E40009675A0F1010E6A434FF47A75B2FBF5F284
:100E50004CF6FF75013242EA0C020A62CA6922EAC4
:100E6000050CA26842B1192004255843BEFBF0F0DE
:100E7000013065F31F3006E003EB4300BEFBF0F0EA
:100E800001306FF31F30000509D052B11920042240
:100E90005843BEFBF0F0013062F31F3008E0012040
:100EA00008E003EB4300BEFBF0F001306FF31F30AE
:100EB00040F4004040EA0C00C8610868D4E9072308
:100EC00020F0C000104348F2FF32184308608868E1
:100ED0009043D4E90323184310438860C868D4E9D9
:100EE000052320F0FF0010431843C860086840F055
:100EF0000100086000202021A06421642063606458
:100F0000B0BD00BF80841E0000093D00A186010025
:100F100040420F00A0860100B0B586B0044601A88B
:100F20001421FFF7A9F921681448814223D1002533
:100F3000134C012200F5DE300095216841F02001BC
:100F40002160216801F020010091009904210591A0
:100F50000321049103921222CDE9011201A9FFF7A6
:100F60000DFE0095206940F480002061206900F4A6
:100F700080000090009806B0B0BD00BF005800404F
:100F800030380240B0B5F8B1044600684CF6CC41A8
:100F9000016045F25551016061684160A16881605E
:100FA000FFF7C0FE054606E0FFF7BCFE401B3028F9
:100FB00084BF0320B0BD2068C1680029F4D14AF67F
:100FC000AA2101600020B0BD0120B0BD1F48034927
:100FD00040680A6810440860704700BF945E0020B3
:100FE00080B50B48016841F400710160016841F46B
:100FF00080610160016841F480710160032000F0AC
:1010000081F80F2000F006F800F024F8002080BDE1
:10101000003C024070B50D4E04464FF47A71706882
:10102000B1FBF0F00A490968B1FBF0F001F0D8F922
:1010300001250F2C08D838B94FF0FF302146002287
:10104000002500F035F83460284670BD0800002007
:101050002C00002082B000200D4901904A6842F423
:1010600080424A604A6802F480420192019A0090EC
:101070000868002240F08050086008680F2100F0E6
:101080008050009000986FF0010002B000F010B89E
:1010900040380240002808DB00F01F01012240090F
:1010A00002FA01F1014A42F82010704700E100E025
:1010B000B0B500F00F03194D114CB0F1FF3FA3F193
:1010C00004032B4403F10C03C8BF031928684FF035
:1010D000FF34C0F30220C51E80F0070038BF002592
:1010E000042828BF042004FA00F021EA000004FAD2
:1010F00005F1A84022EA0101084300011870B0BDC3
:1011000000E400E005494FF6FF030A681A4060F367
:101110000A22034810430860704700BF0CED00E04E
:101120000000FA0570470068416200207047D0F85F
:1011300000C00029DCF824001BD080B5DCF8283082
:10114000A1F1010E00EB1343002006E00CEB81013E
:101150000130D1F8041103EB1143C1B28E45F5D82B
:101160000CEB8E0043EA0241C0F80411BDE8804058
:1011700003E040EA0240CCF8280000207047D0F895
:10118000080402F007BDC1EBC10200EB8202D0F8F7
:101190000804926C02F07ABCC1EBC10200EB82023F
:1011A000D0F80804D2F8082202F0C1BCD0F8080434
:1011B00002F0F2BC10B5044601F00F00090609D494
:1011C000C0EBC001002204EB810181F8FD2101F593
:1011D000FE7107E0C0EBC001012204EB810181F840
:1011E0003D203C310870D4F8BC03012804BF022024
:1011F00010BD0120C4F8BC03206803F0E1F8002012
:10120000C4F8BC0310BDB0B5044601F00F0062681D
:10121000904201D9012524E0090609D4C0EBC001A0
:10122000002204EB810181F8FD2101F5FE7107E048
:10123000C0EBC001012204EB810181F83D203C316B
:10124000002508708D70D4F8BC03012801D1022557
:1012500007E00120C4F8BC03206803F087FAC4F853
:10126000BC532846B0BD01F00F01C1EBC10100EB3A
:101270008100D0F81402704710B5044601F00F0049
:10128000090609D4C0EBC00104EB810C00218CF8E5
:10129000FD110CF5FE7108E0C0EBC00104EB810C00
:1012A00001218CF83D100CF13C018A60CB70087074
:1012B0004A7802B1C880022B04BF00200871D4F81C
:1012C000BC03012804BF022010BD0120C4F8BC03E8
:1012D000206802F0C5FF0020C4F8BC0310BD80B533
:1012E00001F00F0CCCEBCC0100EB810E0021CEE91C
:1012F0008431CEF808228EF8FD118EF8FCC10EF56F
:10130000FE710369012B08BFCEF80C22DAB2006827
:10131000BCF1000F02D003F05DFA01E003F082F9A6
:10132000002080BDB0B50446406801F00F0585423D
:1013300084BF0120B0BD080609D4C1EBC100002163
:1013400004EB800080F8FD1100F5FE7108E0C5EBAC
:10135000C500012104EB800080F83D1000F13C0144
:1013600001200D708870D4F8BC23012A04BF02202C
:10137000B0BDC4F8BC03206803F010FA2DB9217C7D
:10138000206804F5727203F0C5F90020C4F8BC03AC
:10139000B0BD10B501F00F0C0024CCEBCC0100EB7C
:1013A000810E714601F83CCFC1E905340123CA60C2
:1013B0004B700369012B08BFCEF84C20DAB20068ED
:1013C000BCF1000F02D003F005FA01E003F02AF9A6
:1013D000002010BD2DE9F04F87B0046881462046FB
:1013E00003F0EAFA10B107B0BDE8F08FD9F80000B9
:1013F00003F00EFB0028F6D0D9F8000003F008FB3C
:101400000146D9F80000890742BF416901F0020195
:10141000416103F0FDFA0146D9F800000494C906C1
:101420003FD5816921F010018161246AC4F34340F2
:1014300004F00F0506281CD002282BD147F6F070C7
:10144000044027D0C5EBC500220909EB80050498AC
:10145000D5F8081203F0E0FAD5F80802D5F814120E
:1014600000EB1410C5F8080201EB1410C5F81402C3
:1014700010E0049809F57271082203F0CDFAC5EB6B
:10148000C50009EB8000D0F81412C4F30A1211440D
:10149000C0F81412D9F80000816941F0100181618F
:1014A000049C03F0B5FA000340F1C280D9F80000B3
:1014B00003F08DFA064609F5727009F5057A0025E4
:1014C0004FF430680690002E00F0B280F00700F074
:1014D0008C805FFA85FBD9F80000594603F090FA3A
:1014E0000746C00748D004EB080001218160D9F805
:1014F000000008EB0001036C8A68D9F81040012C49
:1015000010D114071AD4940633D4049C12F0280F77
:1015100032D1E44CA3426FD312F400426CD04FF4AA
:10152000004027E0DF4CFF34A34212D1049C10049A
:101530000BD4900644BF2020886015E0D948049C55
:10154000834219D312F4004016D04FF40040886053
:1015500012E0049CB8F5306F06D1D9F8101219B911
:10156000069A002103F0D6F848465946FFF714FEC4
:1015700002E020208860049C380723D504EB080093
:101580000821C84B8160D9F80010013B0A6C08EBB8
:10159000010081689A4212D9090444BF4FF4004106
:1015A0008160484600F023FBD9F81000012809D1DA
:1015B000D9F80000069A012103F0ACF802E0484691
:1015C00000F015FBF80642BF04EB08001021816013
:1015D000B80642BF04EB080020218160B80442BF76
:1015E00004EB08004FF4005181600AF11C0A08F175
:1015F00020087608013566E75AE904230969B8F539
:10160000306F6FF3DF41A2EB0101CAF8001003EB6A
:1016100002014AF80C1C06D1D9F8101219B9069A21
:10162000012103F077F848465946FFF7B5FDA2E7D8
:10163000D9F8000003F0ECF9400340F1B480D9F888
:10164000000003F0BDF9064609F5727004F5106755
:10165000002301900297A3E0F00700F09F80D9F8E3
:101660000000D9B20593069103F0B8F90546C0070A
:1016700029D0059B0122D4F8341803F00F0002FA98
:1016800000F021EA0000C4F8340807EB4310826040
:10169000D9F81000012812D1C3EBC300002B09EBCD
:1016A0008000D0E911121144816408D1D9F85000AA
:1016B00028B9D9F80000019A012103F02BF8069906
:1016C0004846FFF760FD2807059B42BF07EB431024
:1016D00008218160E80642BF07EB431010218160BA
:1016E000680642BF07EB431040218160A80742BF54
:1016F00007EB43100221816028064FD5C3EBC300DE
:1017000009EB800AD3465BF8500FD84658F8042FEF
:10171000904243D3D9F800505AF8441F841A0396D4
:101720004F468C4288BF0C4605EB43110AF1040674
:1017300001F5106917E03C7CDAF80030316800945C
:10174000841A28469C4288BF1C46069AA3B203F01E
:1017500011FA306820443060D8F800000219C8F847
:101760000020DBF80000D9F81830E11C9BB2B3EB85
:10177000910F28BF9042DED8B946DDE90276DDE957
:10178000044390420AD803F00F00012101FA00F04F
:10179000D5F8341821EA0000C5F83408760801337A
:1017A000002E7FF459AFD9F8000003F031F900287A
:1017B00002DBD9F800001AE0D4F8040820F0010098
:1017C000C4F80408D9F8F803012807D10020002143
:1017D000C9F8F8034846FFF7A5FC02E0484600F0C8
:1017E000EAF9D9F80000416901F00041416103F0D4
:1017F0000FF9000502D4D9F800000CE0D4F808086D
:10180000C00702D0484600F019FAD9F80000416933
:1018100001F40061416103F0FBF8C00402D4D9F87F
:1018200000005EE0D4F80408102120F00100C4F8A4
:101830000408D9F8000003F09DF8D9F8042004F555
:10184000106104F500604FF67F3318E08B60013AB9
:101850000F6827F400170F600F6847F000670F60EC
:10186000C1F80832D1F8007227F40017C1F80072ED
:10187000D1F8007247F00067C1F800722031002AE9
:10188000E4D1C16941F00111C161D9F8301059B1F9
:10189000D0F8841041F00B01C0F8841000F144012D
:1018A00009E000BF0B30544F416942F22B02114353
:1018B000416100F110010A6842F00B020A6009F56B
:1018C0007272016821F4FE61016099F81010D9F874
:1018D000000002F01FFFD9F80000416901F48051B7
:1018E000416103F095F80146D9F8000089041AD542
:1018F00002F0FCFCD9F8000003F050F8C9F80C0025
:10190000D9F8005000F048FA99F80C200146284612
:1019100003F0B8F8484600F03BF9D9F800004169F7
:1019200001F40051416103F073F8000702D4D9F8C3
:10193000000008E0484600F042F9D9F8000041698B
:1019400001F00801416103F063F8C00202D4D9F844
:10195000000009E04846002100F03AF8D9F80000FC
:10196000416901F48011416103F052F8800202D410
:10197000D9F8000009E04846002100F02DF8D9F818
:101980000000416901F40011416103F041F8400099
:1019900002D4D9F8000008E04846FFF7F0FBD9F878
:1019A0000000416901F08041416103F031F84007D6
:1019B0007FF519ADD9F800004468610704D54846A1
:1019C000FFF7F4FBD9F800004168214341600AE5C4
:1019D000D0F8080402F034B9D0F8080402F032B9A3
:1019E0002DE9F04F8BB0002800F080800446056898
:1019F000D0F8C00328B90020C4F8BC03204600F08A
:101A000085F80320C4F8C003E86BC0055CBF002064
:101A10002061206802F000FE206804F1040E04F149
:101A20001C0A0A909EE80E589AE8C007D4E90C50A8
:101A3000CDE9085003A88DE8005880E8C0070A984F
:101A400002F064FC00284ED120680021002502F03D
:101A5000F1FF6168012000220FE0C3EBC30704EB34
:101A60008707A7F8423087F83C2087F83D003D659E
:101A7000C7E9115587F83F500132D3B29942ECD8EB
:101A8000002000220EE0C3EBC30304EB8303C3F882
:101A90001002C3E9810083F8FF0183F8FC2183F879
:101AA000FD010132D3B29942EDD8A06804F1140EC1
:101AB00004F1240A22680A90D4E903379EE84058CA
:101AC0009AE80007D4E90C50CDE9085002A8CDE906
:101AD000007680E8005805A880E8000710460A9ABA
:101AE00002F0D0FC38B10220C4F8C003012528461A
:101AF0000BB0BDE8F08F0025012084F83850C4F801
:101B0000C003206802F0B0FCF1E70000B0B586B079
:101B1000044601A81421FEF7AFFB2068B0F1A04FE6
:101B20002FD10025184C01A90095206840F0010034
:101B30002060206800F00100009000980A200590C5
:101B40000320CDE90350022002904FF4C0500190D1
:101B50000E48FFF713F860680521002240F080006E
:101B600060600095606940F480406061606900F4E5
:101B70008040009000984320FFF79AFA4320FFF737
:101B800089FA06B0B0BD00BF303802400000024004
:101B900010B5C168044621B1022901D0FEF743FC0B
:101BA0000121D4F8080402F0A5F8D4F80804BDE82F
:101BB000104002F05EB8D0F8080402F083B8D0F804
:101BC000080402F089B810B50446D0F8BC03012817
:101BD00004BF022010BD012084F83810C4F8BC03F3
:101BE000206802F03EFF0020C4F8BC0310BDD0F80E
:101BF000082400F57271104602F088B810B504464A
:101C0000D0F8BC03012804BF022010BD01212068C8
:101C1000C4F8BC13A16A012906D1A16901291EBF1C
:101C2000816B41F48031816302F08EFE206802F006
:101C30000DFC0020C4F8BC0310BD000010B5044624
:101C4000D0F8080402F0A2F82068D0F8001E41F095
:101C50000101C0F8001E206A20B10348016841F06C
:101C60000601016010BD00BF10ED00E02DE9F0415C
:101C7000002800F08780454B04468846D3F80004CE
:101C800000F00F00884207D283F80084D3F80004E4
:101C900000F00F00404575D12068810711D541073C
:101CA00042BF996841F4E0519960010742BF9968C9
:101CB00041F4604199609968A26821F0F0011143F4
:101CC0009960C0072CD06068811E022903D2196870
:101CD000890109D456E0012803D11968890303D486
:101CE00050E0196889074DD599681D4621F0030118
:101CF00008439860FFF716F8064641F2883707E078
:101D0000FFF710F8801BB84284BF0320BDE8F081C4
:101D1000A86861682B4600F00C00B0EB810FEFD192
:101D2000D3F8000400F00F00404507D983F8008481
:101D3000D3F8000400F00F00404523D1206841078C
:101D400005D59968E26821F4E051114399600007D4
:101D500006D59868216920F4604040EAC100986087
:101D60001C4600F037F8A168094AC1F30311515C21
:101D7000C8401549086007480068FFF74BF9002084
:101D8000BDE8F0810120BDE8F08100BF00380240CD
:101D90001C580008080000200B480068704700BF6E
:101DA00009480A490A4A00680968C1F38221515C5E
:101DB000C840704704480549054A00680968C1F3EE
:101DC0004231515CC84070472C0000200838024066
:101DD0002C58000810B5134C606800F00C0008285F
:101DE00004D0042814BF1048104810BD2268206891
:101DF0000023400202F03F020C485CBF42F2004068
:101E0000C0F2F4002168C1F38811A0FB0101FEF7C4
:101E1000E9F921680222C1F3014102EB4101B0FB63
:101E2000F1F010BD043802400024F400001BB7009C
:101E30002DE9FC41002800F0368104460078BB4EB5
:101E4000C00743D0B06800F00C00042805D130680A
:101E500080033BD56068C8BB25E1B06800F00C008A
:101E6000082802D170684002F1D46768B7F5803F56
:101E700006D03068B7F5A02F12D140F48020306032
:101E8000306840F480303060FEF74CFF0546306823
:101E900080031BD4FEF746FF401B6428F7D9ABE054
:101EA00020F480303060306820F480203060FEF70D
:101EB00039FF0546002FEAD13068800306D5FEF7CA
:101EC00031FF411B03206429F6D9EDE0207880071B
:101ED0002BD5B06810F00C0F07D0B06800F00C00E4
:101EE000082809D17068400206D43068800715D5EB
:101EF000E068012812D0D6E0E06800287ED08C4847
:101F000001210160FEF70EFF05463068800705D409
:101F1000FEF708FF401B0228F7D96DE03068216901
:101F200020F0F80040EAC10030602078000720D59A
:101F300061697F4871B10121C0F8801EFEF7F2FE91
:101F40000546706F800714D4FEF7ECFE401B022894
:101F5000F7D951E00021C0F8801EFEF7E3FE0546E8
:101F6000706F800705D5FEF7DDFE401B0228F7D90C
:101F700042E02078400771D5306C4FF00008C00077
:101F80000CD4CDF804804FF00108306C40F0805044
:101F90003064306C00F0805001900198654F3868D3
:101FA000C0050FD4386840F480703860FEF7BAFE80
:101FB00005463868C00505D4FEF7B4FE401B02286C
:101FC000F7D919E0A768012F05D0306F052F26D16A
:101FD00040F004003067306F40F001003067FEF7DA
:101FE000A1FE054641F28837306F80072FD4FEF7F7
:101FF00099FE401BB842F7D9032055E04C48002118
:102000000160FEF78FFE0546306880077FF58DAFD3
:10201000FEF788FE411B03200229F5D944E020F099
:1020200001003067306F20F004003067FEF77AFE61
:102030000546002FD6D141F28837306F800706D58C
:10204000FEF770FE411B0320B942F6D92CE0B8F12F
:10205000000F1EBF306C20F080503064A769002F45
:1020600062D0B06800F00C00082820D1012F1AD0EF
:102070007068E16900F480028A4214D1216A00F09C
:102080003F028A420FD147F6C071626A0140914215
:1020900009D1A16A00F440328A4204D1E16A00F019
:1020A0007060884240D0012002B0BDE8F081204934
:1020B000002088460866FEF735FE0546022F09D146
:1020C0003068800110D5FEF72DFE411B0320022948
:1020D000F6D9E9E73068800126D5FEF723FE411BDB
:1020E00003200229F6D9DFE704F11C078FCF08434C
:1020F000D90340EA82104FF6FF72914340EA07602D
:10210000A1F58031084370600120C8F86000FEF737
:1021100009FE04463068800106D4FEF703FE011B69
:1021200003200229F6D9BFE70020BDE700380240AE
:102130000000474200700040704700001CB5044694
:102140000068416882684B0605D502F04103012B07
:1021500001D1216C05E00B0607D512F0020304D073
:10216000616C2046BDE81C4008478B065FD512F421
:10217000B0735CD012F0400315D0636D032B07D110
:1021800000210191C16801918068019001984EE0A1
:10219000A36D43F00403A36500230193C368019377
:1021A00083680193019B02F4807312F020020CD02B
:1021B000A26D42F00102A2650022019282680192A2
:1021C000026822F040020260019A43B1A26D42F01F
:1021D0000802A2650022019282680192019AA26D12
:1021E0002AB34268890722F0E00242604FF0010200
:1021F00062651DD0416821F003014160E06C40B18F
:102200000E494165FEF756FB18B1A06D40F0400045
:10221000A065A06C58B109494165FEF74BFB002849
:1022200008BF1CBDA06D40F04000A0651CBD1CBDDA
:102230002046BDE81C40FFF77FBF00BF813100088A
:1022400070B5A8B3002605464FF0000C8662406DBD
:1022500028B928462E6500F02FF8D5F828C00221AD
:10226000696529680A6822F040020A60D5E90123FD
:10227000D5E903041A4310436A6920431043AA694D
:1022800002F400731843EB6918432B6A184340EAC1
:102290000C000860042000EA12406A6A104348609B
:1022A000C86920F40060C8610120AE65686500E07F
:1022B0000126304670BD00002DE9F04F87B004467E
:1022C00002A81421FDF7D8FF2068404EB04279D112
:1022D00000273F484FF005084FF003094FF0020A6E
:1022E00002AD0197416941F480114161416901F4F6
:1022F0008011019101990197016841F0200101606D
:10230000016801F02001019101990197016841F0F4
:10231000800101602946006800F08000019001986A
:10232000CDF81880CDE90479CDF80CA04FF44070B9
:10233000029006F54440FEF721FCCDE905984FF0E8
:10234000400806F54C402946CDE903A7CDF80880A2
:10235000FEF714FC20481F4D4FF0806A4FF480694F
:102360001421C5E9000A834605F11400C5E9027786
:10237000C5F81090FDF780FF2846FEF75BFB08B11B
:10238000FEF751F8154E0BF11800E5641421C6E96B
:10239000000A06F11400C6E90287C6F81090EC6343
:1023A000FDF76AFF3046FEF745FB08B1FEF73BF844
:1023B000552005210022A664F463FEF779FE55201E
:1023C000FEF768FE07B0BDE8F08F00BF0050014087
:1023D00030380240E41700205864024048180020BA
:1023E000411E0020B0EB116F1CBF01207047044A52
:1023F000F023516003490B70072190601160704712
:1024000010E000E023ED00E0C36B0222012B31D08D
:1024100010B502640122C2630268D2F804E0D2F867
:1024200008C00C68B2F1804F2EF0700343EA040339
:102430005360BDE8104014D00F4B9A4211D00F4B9F
:102440009A420ED00E4B9A420BD00E4B9A4208D0B5
:10245000364B9A4205D00C4B9A4202D00B4B9A4213
:1024600004D149682CF080031943916000220121B6
:10247000C263016410467047000400400008004039
:10248000000C0040001800400040014000040140E2
:1024900090B110B50446006C20B90020E0632046DE
:1024A00000F00CF80220211D2064206800F0F6FEE8
:1024B00001202064002010BD0120704783B0006817
:1024C0001849884212D0184988421CD017498842BE
:1024D00025D1002002901648416841F00101416079
:1024E000406800F001000290029818E0002001907E
:1024F0000F48016841F010010160006800F0100011
:10250000019001980BE0002000900948416841F4D7
:1025100000314160406800F400300090009803B042
:10252000704700BF0010004000440140000001401F
:102530004038024010B5C26B04460220012A08BF91
:1025400010BD206401204FF67772E0632068844656
:102550005CF8083F23EA0202CCF800200B682BB19C
:10256000102B03D0202B18BF302B0DD1DCF800002E
:1025700020F07000184340F00700CCF80000002065
:102580000121E063216410BD402B1AD0502B26D0CE
:10259000602B32D0B3F5005F3DD0702BEFD1D1E985
:1025A0000102C968104340EA0120DCF8001021F460
:1025B0007F410843CCF80000DCF8000040F07700D1
:1025C000DBE74B68CA68194600F0D0FED4F800C0BB
:1025D0005CF8080F40F0470020F03000CDE74B6872
:1025E000CA68194600F0C2FED4F800C05CF8080FB3
:1025F00040F0570020F02000BFE74B68CA6819463A
:1026000000F0C5FED4F800C05CF8080F40F0670089
:1026100020F01000B1E7D1E90102C968104340EA97
:102620000120DCF8001021F47F410843CCF80000C1
:10263000DCF8000040F480409FE7704710B5D0F808
:1026400000E00446DEF80010DEF80C20DEF814305E
:102650005FEA017C53D002F4907003F00103C018CC
:1026600055D0C8071FBF12F48070606C40F00100A5
:102670006064480704D51BB1606C40F002006064E0
:10268000880704D51BB1606C40F004006064BCF1A5
:10269000000F07D502F02000C0181EBF606C40F08C
:1026A00008006064606C00286CD002EA01008006BB
:1026B00004D5204600F09AFED4F800E0DEF81400BD
:1026C000616C00F0400001F0080140184AD020463B
:1026D00000F080FE2068416949063ED5416921F03D
:1026E00040014161606BC0B32D494165FEF7E2F8DE
:1026F000002847D0606B416DBDE81040084711408D
:102700008A0605D52046BDE8104000F06FBE114096
:1027100008060ED4480635D5DEF80C0020F040003F
:10272000CEF80C002020E0632046BDE8104000F009
:1027300008BAE06B212825D1A068216AB0F5805F36
:1027400016D108886FF35F20CEF8040020690028B6
:1027500014BF481C881C20620FE02046BDE81040D2
:10276000FFF76BBF2046FFF768FF0020606410BDD5
:10277000481C20620878CEF80400E08C0138E08420
:10278000000400D010BDDEF80C0020F08000CEF870
:102790000C00DEF80C0040F04000CEF80C0010BD3C
:1027A000C933000828B310B50446C06B20B9002017
:1027B000A063204600F020F82420E0632068C16870
:1027C00021F40051C160204600F04AFE20680169F2
:1027D00021F490410161416921F02A014161C16800
:1027E00041F40051C160002020216064E163216454
:1027F00010BD0120704700002DE9F04786B0044667
:1028000001A81421FDF738FD2068BF4988423CD05B
:10281000BE49884200F09180BD49884200F0ED80B9
:10282000BC49884200F03081BB49884240F0698150
:102830000020BA4900900A6942F080420A610A69A0
:1028400002F080420092009A0090086840F0200058
:102850000860086801A900F0200000900098082096
:102860000590032004900120039002200290C020D4
:102870000190AB4800F58050FEF780F95220052109
:102880000022FEF715FC5220FBE00027A34800972A
:10289000016941F480210161016901F48021009105
:1028A00000990097016841F00401016001A90068E6
:1028B00000F0040000900098072005900320CDE967
:1028C0000370022002904FF440600190944800F59C
:1028D0008060FEF753F99448954D4FF000694FF42E
:1028E00080681421C5E90009824605F11400C5E994
:1028F0000277C5F81080FDF7BFFC2846FEF79AF86E
:1029000008B1FDF790FD8B4E0AF130016563402060
:10291000C6E9001906F1080181E8810106F11400F9
:102920001421EC63FDF7A8FC3046FEF783F808B1EC
:10293000FDF779FD2663F463E3E00027EA4800979A
:10294000416941F020014161416901F0200100919C
:1029500000990097016841F04001016001A90068F9
:1029600000F0400000900098082005900320CDE979
:102970000370022002904FF484400190684800F5F3
:10298000A050FEF7FBF86848664D4FF020694FF401
:1029900080681421824600F58060C5E9000905F1D0
:1029A0001400C5E90277C5F81080FDF765FC2846DC
:1029B000FEF740F808B1FDF736FD5C4E0AF58F6171
:1029C00065634020C6E9001906F1080181E881012C
:1029D00006F114001421EC63FDF74EFC3046FEF7BF
:1029E00029F808B1FDF71FFD4720052100222663C5
:1029F000F463FEF75DFB472043E00026FC480096A9
:102A0000016941F000410161016901F0004100915B
:102A100000990096016841F01001016001210068F1
:102A200000F010000090009808200590032004900A
:102A300003910221CDE90101394801A900F5406067
:102A4000FEF79CF8384A3D4D4FF480604FF020610E
:102A50007832C5E90021C5E90266286105F1140054
:102A60001421FDF709FC2846FDF7E4FF08B1FDF746
:102A7000DAFC5320052100226563EC63FEF718FBA6
:102A80005320FEF707FB3CE00026D9480096416939
:102A900041F010014161416901F01001009100997C
:102AA0000096016841F00201016001A9006800F090
:102AB000020000900098072005900320CDE90360F4
:102AC00002200290C02001901548FEF757F8164AE0
:102AD000194D4FF480604FF0006102F58362C5E943
:102AE0000021C5E90266286105F114001421FDF7F3
:102AF000C3FB2846FDF79EFF08B1FDF794FC656314
:102B0000EC6306B0BDE8F0870048004000140140C7
:102B1000007C004000100140007800403038024046
:102B2000000402403C1A002028600240A01A002045
:102B300074190020D819002010190020AC180020AA
:102B400070477047FEE7B0B552004FF0000C4FF0F1
:102B5000370E00239A4208BFB0BD0EEB1074050F6C
:102B6000B0F1204F4FEA001038BF05F13004CC54CB
:102B700043F00104023301F804C0EBE7BFB513488A
:102B8000134A144B00244FF4803101250462C0E93C
:102B90000A340463C0E90021C0E90244C0E90445E5
:102BA000C0E90645CDE90244CDE90044FDF7C6FC85
:102BB00008B1FDF738FC054869460294CDE9005597
:102BC000FDF736FC08B1FDF72EFCBFBD2C17002029
:102BD000002001400100000FB0B50E4C0E4D062341
:102BE0004FF400104FF410210022C4E90053C4E94F
:102BF0000222C4E9041004F118001821FDF73CFB7F
:102C00002046FDF769FD002814BFBDE8B040B0BD07
:102C1000FDF709BC741700200064004010B50A4C91
:102C20000A491020C4E9001004F108002821FDF72A
:102C300023FB2046FDF750FD002814BFBDE81040DF
:102C400010BDFDF7F0BB00BFAC17002000680040CE
:102C5000BCB500206649254C01900A6842F4001278
:102C60000A600A6802F400120192019A0090086852
:102C7000002240F4800008600868052100F480000C
:102C8000009000980C20A047194D0C20A8470E205A
:102C900005210022A0470E20A8471120052100226F
:102CA000A0471120A847392005210022A04739203C
:102CB000A8473A2005210022A0473A20A8473B20F8
:102CC00005210022A0473B20A8473C2005210022E7
:102CD000A0473C20A847452005210022A0474520C9
:102CE0002946BDE8BC40084730380240B110000812
:102CF0009510000810B588B001AC06491C2220468A
:102D0000FDF7A1FA2046002101F080FF024908608A
:102D100008B010BD005800085814002070B586B0E7
:102D200000263348334C002240F2FF1505960096EA
:102D3000016841F010010160016801F0100100918B
:102D400000990096016841F002010160016801F0FC
:102D50000201009100990096016841F04001016074
:102D6000016801F04001009100990096016841F06E
:102D700004010160016801F00401009100990096CE
:102D8000016841F001010160016801F00101009159
:102D900000990096016841F020010160016801F08E
:102DA0002001009100990096016841F080010160C6
:102DB00040F2FF11006800F080000090009820466B
:102DC000FDF7AAFF0120CDE90366CDE9015001AD71
:102DD00020462946FDF7D2FE0420CDE902662946A9
:102DE0000190A4F5A050FDF7C9FE06B070BD00BF6C
:102DF000303802400018024010B51348134B144CF1
:102E000000224FF480410262C0E90043C0E902227F
:102E1000C0E90412C0E90622FDF7C0FF08B1FDF7C2
:102E200002FB09480021FDF781FF08B1FDF7FBFA1D
:102E300005480021FDF795FF002814BFBDE81040AC
:102E400010BDFDF7F0BA00BF041B0020A0860100F2
:102E50000058004080B50848084B002240F6FF713A
:102E6000C0E900328160FEF78DF8002814BFBDE88C
:102E7000804080BDFDF7D7BA601B002000300040C5
:102E800080B5BE480D4A4FF4827100234FF4007C98
:102E9000C0E900210A21C0E90233C0E90433C0E9D6
:102EA00006C3C0E90833C0E90A31FFF7C9F90028B1
:102EB00014BFBDE8804080BDFDF7B5BA00500140A9
:102EC00080B50A480A4B00214FF6FF728161C0E9C4
:102ED0000031C0E902120161FFF7DAFA002814BFDD
:102EE000BDE8804080BDFDF79EBA00BF18200020DD
:102EF00000440140FEB51648164B00214FF6FF7204
:102F0000CDE90411CDE90211C0E90031C0E9021296
:102F1000C0E904118161CDE90011FFF7B9FA08B1E8
:102F2000FDF781FA4FF4805002A902900848FFF79C
:102F300001FB08B1FDF777FA00206946CDE90000F2
:102F40000348FFF761FA08B1FDF76DFA06B080BDDE
:102F5000D41F0020000001401CB50D480D4A00247C
:102F60004FF6FF718461C0E90024C0E90241CDE958
:102F70000044FFF78DFA08B1FDF755FA0448694699
:102F8000CDE90044FFF740FA08B1FDF74CFA1CBD4B
:102F90005C2000200010004010B50B480B4C4FF493
:102FA000E13300210C22C0E90043C0E90211C0E96D
:102FB0000412C0E90611FFF7F5FB002814BFBDE8B5
:102FC000104010BDFDF72FBA782100200078004096
:102FD00010B5FC480A4C4FF4E13300210C22C0E943
:102FE0000043C0E90211C0E90412C0E90611FFF76D
:102FF000D9FB002814BFBDE8104010BDFDF713BA7F
:10300000007C004010B50B480B4C4FF4E13300211D
:103010000C22C0E90043C0E90211C0E90412C0E972
:103020000611FFF7BFFB002814BFBDE8104010BD1C
:10303000FDF7F9B9A02000200010014010B50B48A1
:103040000B4C4FF4E13300210C22C0E90043C0E9EE
:103050000211C0E90412C0E90611FFF7A3FB002822
:1030600014BFBDE8104010BDFDF7DDB9E820002019
:103070000048004010B50B480B4C4FF4E1330021E1
:103080000C22C0E90043C0E90211C0E90412C0E902
:103090000611FFF787FB002814BFBDE8104010BDE4
:1030A000FDF7C1B9302100200014014080B510485F
:1030B0001049002200F0C0FC08B1FDF7B4F90C483B
:1030C0000D4900F080FE08B1FDF7ADF908480B4945
:1030D00000F037FB08B1FDF7A6F9054800F090FEB7
:1030E000002814BFBDE8804080BDFDF79CB900BF3B
:1030F0005C1400201000002030000020540100204B
:10310000FEE7FEE70148FEF765B900BF6C1B002033
:10311000EFF30980BFF36F8F154B1A681EF0100F85
:1031200008BF20ED108A20E9F04F10602DE909005A
:103130004FF0500080F31188BFF34F8FBFF36F8FB4
:1031400002F0F6F84FF0000080F31188BDE80900A6
:1031500019680868B0E8F04F1EF0100F08BFB0EC17
:10316000108A80F30988BFF36F8F704700BF00BFDC
:10317000900100200148FEF7E1BF00BF781F00204A
:10318000C06B0021C187C186FEF7D6BF00000000DA
:10319000074B19680868B0E8F04F80F30988BFF35F
:1031A0006F8F4FF0000080F31188704700BF00BFA1
:1031B00090010020FFF77AFF012001F01AFDFBE7E4
:1031C00080B5FDF703FF02F0CFF9012814BFBDE879
:1031D000804080BD02F04CB9B0B592B0002401A887
:1031E00014210A94CDE90844FDF746F822480094DA
:1031F0000225016841F080510160006800F08050B4
:103200000090009800941D48016841F4404101601D
:10321000006800F440400090009807201190A8201A
:1032200010950F9006200E904FF48000CDE90C50C1
:1032300001200B904FF4803007900920069006A8DB
:10324000FEF7F6FD18B1EFF3108072B6FEE74FF40B
:103250008050052105904FF4A05004900F20CDE937
:103260000254019001A8FEF701FD18B1EFF31080A0
:1032700072B6FEE712B0B0BD4038024000700040A8
:103280000548D0F8801041F47001C0F880104FF06C
:1032900000610160704700BF08ED00E00268B0F116
:1032A000804F0ED0264B98420BD0264B984208D028
:1032B000254B984205D0254B984202D0244B98428A
:1032C00003D14B6822F070021A43B0F1804F20D036
:1032D0001B4B98421DD01B4B98421AD01A4B984258
:1032E00017D01C4B984214D01B4B984211D01B4B4B
:1032F00098420ED0164B98420BD0144B984208D0EF
:10330000174B984205D0174B984202D0164B984263
:1033100003D1CB6822F440721A434B6922F0800239
:103320001A430A4B02608A68C2620A68826240F4E9
:1033300080629A4204BF09690163012141617047BB
:103340000004004000080040000C00400004014060
:103350000000014000180040001C00400020004018
:10336000004001400048014000440140D0F820C026
:10337000036A23F001030362836923F0F00343EA45
:10338000021282612CF00A02114301627047036A43
:1033900023F010030362836923F4704343EA02328B
:1033A000036A826123F0A00242EA011101627047C0
:1033B0000148FFF743B900BF782100200148FFF71B
:1033C0003DB900BFC0210020C06B0021C185C18470
:1033D000FFF733B90168CA6822F49072CA604A697B
:1033E00022F001024A61202101647047016C222908
:1033F00018BF70478168B1F5805F08D10268036922
:10340000816A526883B1D2B221F8012B10E00269BF
:1034100001684968002A826A02F10103836218BFC9
:1034200001F07F01117004E06FF35F2221F8022B9D
:103430008162C18D0139C185090400D070470168DE
:10344000CA6822F02002CA60CA6822F48072CA6088
:103450004A6922F001024A6120210164FFF770BB32
:10346000F8B50746006849F20C660169FA6821F46C
:10347000405111430161B968D7E90423FC69C5686B
:10348000114325EA0606B4F5004F41EA030141EA7B
:10349000040141EA0601C1604169BA6921F4407141
:1034A00041EA02014161254940F4806004D188422B
:1034B00007D1FEF77FFC06E088421FD1FEF77AFCB9
:1034C0001EE0FEF76DFC7B681921A0FB01015A008C
:1034D000DB0FFCF787FE64216FF06303B0FBF1F2B2
:1034E00002FB0300322303EBC000B0FBF1F14FF409
:1034F000F87000EA410001F0070119E0FEF750FC06
:103500007B681921A0FB01019A009B0FFCF76AFE62
:1035100064216FF06303B0FBF1F202FB030032237E
:1035200003EB0010B0FBF1F101F0F00001F00F012E
:1035300000EB0210084339688860F8BD00140140B0
:103540000148FFF77BB800BF3021002010B58E4640
:10355000D0F8BC1211B30EEB8E0300EB830353F8CB
:10356000184F64B1D0F8C4C2CEEBCE020CEB82028D
:10357000D2F844C0B4FBFCF202FB1C4282B100242E
:103580007246C1F81442D0F8C002D1F8083201F5F1
:103590000471D0F810C01846E04708E0032406E0A4
:1035A0000024714600221C60002300F0F8FB204636
:1035B00010BDB0B5D0F8BC5275B1044600F0FAFAAF
:1035C000C5F80C02D4F8C012D5F80402CA6805F593
:1035D000037190470020B0BD0320B0BD70B50F4E01
:1035E00081210446B0470025204601212587B047A8
:1035F00020468221A4F87851B047E564D4F8BC0293
:1036000048B1D4F8C00240688047D4F8BC0202F048
:1036100099F8C4F8BC52002070BD00BF7B3A000886
:1036200010B5D0F8C01269B1D0F8BC4294F80002CD
:10363000FF2807D08B6894F8012221469847FF2085
:1036400084F80002002010BD0A2101800048704764
:10365000F0000020432101800048704768000020EE
:103660004321018000487047AC00002043210180C5
:1036700000487047FC00002070B504464FF4077006
:1036800002F088F878B1C4F8BC020546206978B128
:10369000204681210222402300F0D6FA0120012198
:1036A0000222402310E00020C4F8BC02022070BDBA
:1036B0002046812102224FF4007300F0C5FA012058
:1036C000012102224FF400732087204600F0BCFA4B
:1036D00010200126822103220823A4F84E00204650
:1036E000A4F8786100F0B0FAA4F84C60D4F8C002F5
:1036F0000068804700200121C5F81402C5F81802AF
:103700002069D5F804220028204614BF40234FF436
:10371000007300F0A5FA002070BD80B5D0F8BC128F
:1037200069B1D1F80422016900294FF0010114BFE9
:1037300040234FF4007300F093FA002080BD032073
:1037400080BD00290EBF0320C0F8C01200207047C2
:10375000D0F8BC02C0F8041200207047D0F8BC02B8
:10376000C0F81022C0F80812002070477CB504464B
:10377000D0F8BC6200200D468DF80700ADF80400BB
:10378000087810F060010FD0202940D1EA88DAB122
:10379000000622D4687886F80122314686F80002B5
:1037A000204600F061F82CE068780B282BD0012827
:1037B00027D00A281BD050BB94F89C02032826D19E
:1037C00001A9204602221AE0D4F8C012687800222B
:1037D00000248B68294698471EE0D4F8C012687808
:1037E0008B6831469847EA882046314607E094F8CE
:1037F0009C0203280BD10DF107012046012200F0A5
:103800004BF8002408E094F89C020328F9D02046E5
:10381000294600F01EF80324204602B070BDD0F8FF
:10382000B82222B180B552689047BDE880400020A0
:10383000704780B513460A46002100F011FA0020B7
:1038400080BD80B513460A46002100F0A8FA00208A
:1038500080BD10B58021044600F086FA2046002184
:10386000BDE8104000F080BA80B513460A46032137
:10387000C0E95633C0F89412002100F0F1F900209D
:1038800080BD80B5052100220023C0F894120021DC
:1038900000F0E6F9002080BD80B513460A460221FB
:1038A000C0E90633C0F89412002100F078FA002035
:1038B00080BD80B5042100220023C0F894120021AD
:1038C00000F06DFA002080BD10B5044C0A4604A03B
:1038D000214600F075F8204610BD00BF58020020B8
:1038E00043444320436F6E666967000012200880DE
:1038F000004870474001002010B5044C0A4604A05F
:10390000214600F05DF8204610BD00BF580200209F
:1039100043444320496E746572666163650000002C
:1039200004200880004870476801002010B5044C4E
:103930000A4604A0214600F043F8204610BD00BF0F
:103940005802002053544D6963726F656C6563744F
:10395000726F6E696373000010B5044C0A4604A0D0
:10396000214600F02DF8204610BD00BF580200206F
:1039700053544D3332205669727475616C20436F15
:103980006D506F72740000001A2008800A490868A0
:103990008A6880180ED0B0B5084D4C680822A91C62
:1039A000FFF7D1F805F1120120460422FFF7CBF80A
:1039B000BDE8B04001487047107AFF1F6C0100203D
:1039C00080B538B34FF0000C864603E00EF1010ECF
:1039D0000CF1010C9EF80030002BF7D15FFA8CFC43
:1039E0004FF0020E0EEB4C0CA2F800C003224A70FE
:1039F00081F800C04FF0000C09E05FFA8EF30EF181
:103A0000020E0130CA5443F0010201F802C00278EC
:103A1000002AF2D180BD000003288EBF032002A13E
:103A200051F82000704700BF0000000003000000B4
:103A30000100000003000000A0B1D0F8B83213B1BB
:103A40000023C0F8B832D0F8CC3213B10023C0F84C
:103A5000CC3209B1C0F8B4120121027080F89C1276
:103A600000F0ACB80320704780B5D0F8C402FDF771
:103A7000CAFBBDE88040FFF7CFBF80B5D0F8C402D5
:103A8000FDF798FBBDE88040FFF7C6BFB0B5044620
:103A900061B1D4F8B802426932B194F89C020328AB
:103AA00002D120469047B0BD0320B0BDD4F89402A7
:103AB000022833D1D4E9070188420DD9431A1146AF
:103AC00020461A46E361FFF7BCFE20460021002293
:103AD000002300F0C5F821E00FD1A16981420CD389
:103AE000D4F89802814208D2204600210022002505
:103AF000FFF7A7FEC4F89852E7E7D4F8B802C16808
:103B000029B194F89C02032801D120468847204619
:103B1000802100F029F92046FFF7B3FE94F8A012A7
:103B20000020012904BF84F8A002B0BDB0BD10B5CB
:103B3000044661B1D4F8B802826932B194F89C02AB
:103B4000032802D12046904710BD032010BDD4F8B1
:103B5000940203281CD1D4E9570398420BD9C01A08
:103B60001146C4F85C01984238BF034620461A4605
:103B7000FFF75FFE0CE0D4F8B802016929B194F8B0
:103B80009C02032801D1204688472046FFF791FE7A
:103B9000002010BD00207047012180F89C12D0F851
:103BA000B8222AB180B5017952689047BDE88040BB
:103BB00000207047D0F8C402FDF755BB017859BB0F
:103BC00010B516490222C1F80804C0F8C41200203A
:103BD000C1E90B00C1E90620C1E90800C1E90320E1
:103BE00004204FF0A042C1E900200846FDF7F8FE8E
:103BF00008B1FCF718FC094C80212046FDF793FA28
:103C0000204600214022FDF792FA20460121802221
:103C1000FDF78DFABDE81040002070476C1B0020B6
:103C200001F07F02D0F8C4020906C2EBC20200EB29
:103C3000820000F13E0258BF00F5FF721078704715
:103C4000002070470020704780B59446D0F8C40229
:103C50001A466346FDF710FBBDE88040FFF7DCBE67
:103C600080B5D0F8C402FDF73AFBBDE88040FFF70D
:103C7000D3BE70B5044600200125C4F8940284F830
:103C80009C52C4F8A4026060D4F8BC0228B1D4F8F5
:103C9000B8020021426820469047204600210022B9
:103CA00040234026FFF7D0FF2046802100224023FA
:103CB000A4F86451C4F86061FFF7C6FF0020A58432
:103CC000266270BD90F89C12042904BF90F89D12E2
:103CD00080F89C120020704790F89C12032907D1AD
:103CE000D0F8B812C96919B180B58847BDE88040DD
:103CF0000020704701610020704780B5D0F8C402F1
:103D0000FDF761FFBDE88040FFF786BEB0B500F269
:103D1000AA250446284600F04BF8B4F8B01201205A
:103D2000C4E9A50194F8AA0200F01F01022908D0F5
:103D300001290CD089B920462946BDE8B04000F0E1
:103D400061B820462946BDE8B04000F0B7B920462A
:103D50002946BDE8B04000F05DBA00F08001204681
:103D6000BDE8B040AFF3008080B5D0F8C402FDF7E5
:103D7000D9FABDE88040FFF74FBE80B5D0F8C40245
:103D8000FDF73CFFBDE88040FFF746BE90F89C126F
:103D9000042280F89C2280F89D120020704780B594
:103DA000D0F8C402FDF7F5FABDE88040FFF734BE55
:103DB0000A7802704A7842704A8842808A888280F3
:103DC000C988C18070471CB5044600200029ADF8A1
:103DD000060009D0C4F8B8120DF10600896A8847B8
:103DE000C4F8CC02002000E0032002B010BDD0F8DF
:103DF000B8221AB180B51268904780BD0320704781
:103E0000FFF7BBBFBCB5044608780D4610F0600054
:103E10000CD0402802D0202840F04381D4F8B802CA
:103E2000294682682046904705463EE16878092881
:103E300000F23781DFE810F00A00200035012E0083
:103E400035015200730035013600480094F89C0299
:103E50000138022800F22581E888022840F02181FB
:103E6000D4F8A40203222146002808BF012241F809
:103E70000C2F2046022211E194F89C0201380228FE
:103E800000F20F8168880025012840F00E81C4F8F7
:103E9000A452D4E06888012840F006810120C4F8CB
:103EA000A40205E1E888012840F0FB8094F89C0218
:103EB000411E02295DD2002521462046012241F8FB
:103EC000085FFFF7E9FCF0E068887B4DC1B228701D
:103ED00002293AD32046FFF7BCFCA6E0A8880028B8
:103EE00040F0DF80E888002840F0DB8068887F2889
:103EF00000F2D78094F89C12032900F0D28000F0E1
:103F00007F052046294684F89E52FFF7F6FE20469C
:103F1000FFF7CFFC002D14BF0220012097E0002006
:103F20004FF0FF31ADF80600688801EB102106293B
:103F300000F2B780DFE801F0044E24B5B55B650000
:103F4000D4F8B41220690A6899E094F89C02032816
:103F500023D0022862D1002900F0AA8020466160A7
:103F6000FFF745FF00286ED005462046FFF771FC9D
:103F70009BE0032840F09580211D204601228DE022
:103F8000C0B2052800F28D80DFE800F00364686CA1
:103F90007074D4F8B40242686FE0002947D06068BA
:103FA000884200F08580C1B22046FFF738FC2978AE
:103FB00020466160FFF71BFF002879D005462046A8
:103FC000FFF747FC21792046FFF729FC022084F8FF
:103FD0009C026AE02169D4F8B80200290CBF816A0A
:103FE000C16A0DF1060088470146022014E02069ED
:103FF000002856D1D4F8B802416B0DF1060088476D
:1040000040E0206900284CD1D4F8B802016B0DF1D2
:104010000600884701460720487034E02046FFF735
:1040200018FC29782046FFF7FAFB03253DE0002520
:104030000220656084F89C022046FFF7F0FB2046D2
:10404000FFF737FC31E02046FFF733FC032084F80C
:104050009C0229E0D4F8B40282680EE0D4F8B402DD
:10406000C2680AE0D4F8B402026906E0D4F8B402E7
:10407000426902E0D4F8B402826992B120690DF17C
:10408000060190470146EA8892B1BDF8060040B1AA
:10409000904238BF0246ADF806202046FFF7FCFBF1
:1040A00002E02046FFF7D5FB0025284602B0B0BD50
:1040B0002046FFF7FEFBF7E754020020B0B50446A8
:1040C00008780D4610F060000BD0402801D0202861
:1040D0003ED1D4F8B802294682682046904705466A
:1040E0003AE068782979B0B1012827D003282FD188
:1040F00094F89C02032825D1688840B941F08000DB
:10410000802804D0E88810B92046FFF72DFE20460D
:10411000FFF7CFFB1FE094F89C0203281ED0022873
:1041200016D100295AD0802912D101F07F0000EB6E
:10413000800004EB800000F1140157E094F89C0229
:10414000032820D0022803D141F0800080282CD100
:104150002046FFF77EFB00252846B0BD01F00F008A
:104160000A0600EB800004EB800026D4B0F864015E
:104170000028EDD001F07F0000EB800004EB800010
:1041800000F5AA7524E068880028E4D1480602D02A
:104190002046FFF769FC2046FFF78BFBD4F8B802F6
:1041A0002946826820469047D5E72046FFF7DCFD88
:1041B00020468021FFF7D8FDCDE7808C0028C7D0AE
:1041C00001F07F0000EB800004EB800000F114059B
:1041D00041F08000802810D1002014E001F07F0021
:1041E00000EB800004EB800000F5AA71002520465A
:1041F00002220D60FFF750FBAEE72046FFF710FDEF
:104200000028E9D001202860204629460222FFF735
:1042100043FBA0E7B0B5044608780D4610F06000F7
:1042200018BF402815D194F89C020138022812D8F2
:10423000A88810F0FE0F0ED1D4F8B8022946826883
:104240002046904758B9E98849B92046FFF731FB25
:1042500004E02028E7D02046FFF7FBFA0020B0BD9D
:1042600080B591F800C091F801E001220CF00F0335
:10427000BEF1010F02FA03F31AD1D0F81C281A4339
:104280004FEA4C13C0F81C2800F51060C258120405
:1042900027D491F803E089681A586FF3DF2141EAC7
:1042A0008C511143104A41EA8E411143195018E0D4
:1042B000D0F81C2842EA0342C0F81C284FEA4C12EE
:1042C00000F5306083581B040BD491F803C0896853
:1042D00013586FF3DF211943034B41EA8C41194313
:1042E0001150002080BD00BF00800010D0F80019E0
:1042F00040F2FF729143C0F80019D0F8041841F45D
:104300008071C0F8041800207047000070B50446A2
:104310000698049D012817D1A16B194A0D9821F424
:1043200080310128A163E16801EA0201E160E168EE
:1043300021F44011E16002BFE06840F48010E060C9
:10434000204600F01FF80FE0E0680A9E40F04000B1
:10435000E060204600F016F8A16B002E14BF21F497
:10436000803141F48031A163012D18BF70BDA16877
:1043700041F00601A160A16841F02001A16070BD7B
:10438000BFFFBDFF0D494FF0FF3201328A4212D804
:104390000369B3F1FF3FF8DC026942F001020261F8
:1043A0004FF0FF3204E00369DB0704BF00207047D1
:1043B00001328A42F7D90320704700BF3F0D030046
:1043C00010B54A780B78204C00EB4311012A15D127
:1043D00001F51062D1F80019B1F1FF3F07DC116857
:1043E00041F000611160116841F08041116003F0FB
:1043F0000F01012303FA01F18BB215E001F53062E0
:10440000D1F8001BB1F1FF3F07DC116841F00061FA
:104410001160116841F08041116003F00F014FF409
:10442000803304F170748B40D0F83C189943C0F885
:104430003C18D0F81C189943C0F81C18106820408C
:104440001060002010BD00BF007833ECD0F8001ED3
:1044500021F00301C0F8001ED0F8041821F0020179
:10446000C0F8041800207047D0F8001E21F00301A6
:10447000C0F8001ED0F8041841F00201C0F804187A
:10448000002070472DE9F84F8046DDF844A0DDE9B3
:104490000C07DDF828900D464121002202E048F883
:1044A000212001315029FAD1BAF1000F0AD0D8F8F1
:1044B000381021F40011C8F83810D8F8381041F439
:1044C000002115E0D8F8041841F00201C8F80418DA
:1044D000D8F8381041F40011C8F83810D8F838105E
:1044E00021F40021C8F83810D8F8381021F48021C0
:1044F000C8F83810002108F5006B0128C8F8001E24
:10450000DBF80010CBF8001006D1DBF80000002B20
:1045100018BF40F0010003E0DBF8000040F00300AA
:10452000CBF800004046102100F024FA0646404631
:1045300000F010FA0021304308F510624FF67F3387
:104540000026BC46CBF81010CBF81410CBF81C108A
:104550000EE04FF09047002E06F1010608BF4FF025
:104560000067146807EAE4771760116193602032EE
:10457000B542EED108F5306100224FF67F330026B8
:10458000002818BF01200EE04FF09047002E06F1E2
:10459000010608BF4FF000670C6807EAE4770F6078
:1045A0000A618B602031B542EED1DBF81010B9F111
:1045B000000F21F48071CBF810104FF00001C8F803
:1045C00018106FF08041C8F8141005D1D8F81810F1
:1045D00041F01001C8F81810D8F818100C4ABCF1B6
:1045E000000F41EA0201C8F818101EBFD8F81810D1
:1045F00041F00801C8F81810BAF1010F05D1D8F838
:104600001810044A1143C8F8181001B0BDE8F08F23
:1046100000383C8004000040816821F00101816085
:104620000020704770B54B7891F800C0012B21D164
:1046300000EB4C14D1F814E0354D04F51063D4F8B8
:104640001069324CBEF1000F39D035401D611D6933
:10465000254004F100541D618D68AE4584BF4D6155
:10466000AE4604EA0E041D6945F400251D611D696E
:104670002C432FE000EB4C10244CD0F8103B6FF390
:104680001203C0F8103BD0F8103B6FF3DC43C0F8C6
:10469000103B00F530634E69886806B148611E69B9
:1046A000012A46F400261E6104F1005600EA0600C5
:1046B0001E6940EA0600186112D1C8680EE0264063
:1046C0004FF0000E1E611E6946F400261E611E6931
:1046D00006EA0504012A1C6109D1086900B1586184
:1046E0004FF00441186808431860002070BD196835
:1046F000BEF1000F41F004411960F6D00CF00F013B
:10470000012200F6340302FA01F1EBE7FFFF07E0B4
:104710000000F8FF10B5036C134CA34203D3D0F88C
:10472000003B002B1EDB00230129C0F8103BD0F812
:10473000103B43F40023C0F8103BD0F8103B43F08B
:104740001803C0F8103BD0F8103B43F0C043C0F84A
:10475000103B07D1C0F8142BD0F8001B41F080218A
:10476000C0F8001B002010BD0B30544F0A784B7866
:104770005201012B14BF00F5306000F51060835822
:1047800023F400138350C97801F0FE01022902BF0F
:10479000115841F080511150002070470A78497833
:1047A000012900EB421119BF01F53060D1F8001B5F
:1047B00001F51060D1F800192AB1002903DB016866
:1047C00021F080410160016841F400110160002086
:1047D00070470000BCB54B7891F800C0012B2ED17A
:1047E00000EB4C14D1F814E004F51063D4F8104930
:1047F000BEF1000F49D06FF312041C611C696FF306
:10480000DC441C618C680EEB0405013DB5FBF4F43F
:104810004C4D05EAC4441D692C4375461C616FF379
:10482000DF451C692C431C61CC78012C38D11C69F4
:1048300024F0C0441C611C6944F000542FE000EBDC
:104840004C13D3F8105B6FF31205C3F8105BD3F869
:10485000105B6FF3DC45C3F8105B03F530634C6904
:10486000D1F808C0D4B304EB0C05364C013DB5FBC0
:10487000FCF504EAC54E1C69ADB205FB0CFC44EA2C
:104880000E046FF3DF4C1C6130E06FF3DC441C61FD
:104890001C6944F400241C611C696FF312041C6140
:1048A000012A01D10A6928E01C6844F004441C6014
:1048B000CC78012C38D1D0F80848E4054FF080546A
:1048C00058BF4FF000541D682C431C601FFA8EF334
:1048D000C9680092624600F04DF922E01D696FF34D
:1048E000DF4C45EA0C054FF4002C1D611D69012ABF
:1048F00045EA0C051D6102D1CA6802B15A61C97846
:1049000001290AD1D0F80808C0054FF0805058BFDF
:104910004FF00050196808431860186840F00440D0
:104920001860002002B0B0BDBEF1000FF9D00CF04D
:104930000F01012202FA01F1D0F834281143C0F826
:104940003418EEE70000F81F816841F00101816032
:10495000002070471021104A01614FF0FF310131F2
:10496000914284BF032070470369DB065CBF0020CF
:104970007047F4E78901084A203101614FF0FF31A7
:104980000131914284BF0320704703699B065CBFDD
:1049900000207047F4E700BF3F0D0300D0F808087F
:1049A00010F0060004BF0020704740F004010F2003
:1049B000062908BF02207047406900F001007047D7
:1049C000D0F81818D0F81C08084080B27047D0F80A
:1049D0001818D0F81C080840000C7047D0F810C810
:1049E000D0F8343801F00F0200EB4110D0F808097C
:1049F00023FA02F2D201D2B242EA0C02104070470E
:104A000000EB4111D1F8081BD0F81408084070479A
:104A1000416980690840704703324FF4805C920816
:104A200004E050F80C30013A41F8043B002AF8D178
:104A300008467047C268012922F0C042C26003D014
:104A400069B94FF0804101E04FF0005180B5C26874
:104A50001143C1603220FCF77FF8002080BD0120A7
:104A60007047D0F8002801F07F0122F4FE62C0F800
:104A70000028D0F8002842EA0111C0F800180020F0
:104A800070470000022A34D1284A294B0A449A422E
:104A900002D24FF470512EE0264A274B0A449A4224
:104AA00002D24FF4605126E0244A254B0A449A4230
:104AB00002D24FF450511EE0224A234B0A449A423C
:104AC00002D24FF4405116E0204A214B0A449A4248
:104AD00002D24FF430510EE01E4A1F4B0A449A4254
:104AE00002D24FF4205106E01C4A1D4B0A449A4260
:104AF0000AD24FF41051C26822F47052C260C268E8
:104B00001143C16000207047164A174B0A449A426D
:104B100002D24FF40051EEE7144A154B0A444FF409
:104B2000C0519A4238BF4FF4E051E4E7405327FFA9
:104B300000350C00401E1BFF40420F0000DC0BFF45
:104B4000804F1200808CF9FE20D6130060B6E5FE7F
:104B500060E3160000D3CEFE40771B00C05BB3FEBF
:104B6000C091210000CA91FE20753800E05459FE22
:104B7000E09C4100DDF800C0BCF1000F0DD1033313
:104B80004FEA023C00F580509B0804E051F8042BEA
:104B9000013B4CF80020002BF8D100207047FEE7C5
:104BA000FCF71EFAFEF718FBFEF7B8F8FEF750F810
:104BB000FEF750F9FEF710F8FEF730F8FEF760F94F
:104BC000FEF798F9FEF7C8F9FEF77AF9FEF752FA00
:104BD000FEF734FAFEF7FCF9FDF7D0FFFEF70CF90B
:104BE000FEF7DAF9FEF70EFAFEF784F800F009F89E
:104BF000FEE780B5002808BF012000F03BFB002045
:104C000080BD80B500F05CFB002080BDBFB543696E
:104C10008E468BB184697CB1D0E9001C856802693D
:104C2000B5F1840018BFE81C8DE819007346604692
:104C300000F060FC039013E0028AD0E90013806862
:104C400003ADB0F1840418BFC41C18467346CDE907
:104C5000004500F023FC01460398012918BF0020FD
:104C600004B0B0BDF8B5B34C05460E46676A20687F
:104C7000043000F021FA40B920680121C06A01FA2D
:104C800000F0616821EA00006060681C08D13EB154
:104C900054F8500B011D2046BDE8F84000F055BA0D
:104CA0002068ED19456006D3606B21680431BDE8CA
:104CB000F84000F02DBA206B2168043100F028FA8A
:104CC000206A854238BF2562F8BD00BF2DE9F0415A
:104CD000044600F051FA974F38690130386138685E
:104CE00040B1786940BB3868E16AC06A884298BFC1
:104CF0003C6021E03C60386901281DD1434E00250D
:104D000003E0701900F0F6F914358C2DF9D1DFF8B5
:104D100070801C4D4046A84708F114063046A8474D
:104D200007F16400A84707F13C00A84707F15000CD
:104D3000A847C7F830807E63B86801210130B860A9
:104D4000E06A7A68814000EB8000114379602F4966
:104D500001EB8000211D00F0F8F900F029FA7869D4
:104D600060B13868E16AC06A884207D228484FF0CB
:104D700080510160BFF34F8FBFF36F8FBDE8F081AB
:104D800028020020F550000810B5044690F85100A4
:104D9000022808BF10BD012803D038B9206B00F0ED
:104DA0001DFA2046BDE8104000F018BA4FF0500040
:104DB00080F31188BFF36F8FBFF34F8FFEE70000C2
:104DC0005C4D124E124F4FF08058E86890B100F0E1
:104DD000D3F9A86CC468201D00F06EF92869013869
:104DE0002861E8680138E86000F0E2F92046FFF742
:104DF000CBFFEAE730680228E7D3C7F800803846DF
:104E0000BFF34F8FBFF36F8FDFE700BF0822002093
:104E100004ED00E02DE9F0470A9F824699460029FB
:104E2000386BDDE9084800EB8200A0F1040020F0B7
:104E300007060ED007F1340000220F2A05D88B5C3C
:104E400083548B5C0132002BF7D1002087F843009C
:104E500002E0002087F83400381D0025062C28BF0A
:104E60000624C7E91145FC6200F04FF907F118006C
:104E700000F04BF984F00700FD6451464A46B861E2
:104E8000304687F850507F623F6100F003F9386088
:104E9000B8F1000F18BFC8F80070BDE8F087000037
:104EA000DFF8A4C30CF11002114612688242FBD352
:104EB00080B5D1F804E001EB0E03834203D14068D2
:104EC000704448600846D0F804E000EB0E039342BB
:104ED00007D1DCF804309A4203D05368734443602E
:104EE000126802608142BDE8804018BF08607047C8
:104EF00008480068006880F308884FF0000080F3DD
:104F0000148862B661B6BFF34F8FBFF36F8F00DFB7
:104F100000BF00BF08ED00E0E848016B096821B15F
:104F2000016BC968C968496801E04FF0FF3101624F
:104F3000704700BF9001002081B000200090A6487B
:104F400000684FF0500181F31188BFF36F8FBFF3FA
:104F50004F8F013000D0FEE700980028FCD001B050
:104F6000704700BF2DE9F041044600F0DBF9B64E72
:104F7000706828B13778002F18BF4FF0004724E041
:104F8000434F00207061FB1D394617F0070223F0E4
:104F9000070318BF19463161002AA7EB03034FF43A
:104FA000705718BF03F57057CA19083A4FF00047F9
:104FB00022F007027260C2E90000501A486072686D
:104FC0000A60C6E90200012030700025002C4ED096
:104FD00017EA04004BD104F1080111F007001EBFCD
:104FE000C0F1080001445FEA417026D1D6F808807C
:104FF000481E40451FD2344654F8103F5868224698
:105000001C46884202D22368002BF7D173689C4269
:1050100011D0236815681360421A112A1BD3601837
:10502000430713D04FF0500080F31188BFF36F8F08
:10503000BFF34F8FFEE7002519E04FF0500080F3DB
:105040001188BFF36F8FBFF34F8FFEE7426061603F
:10505000FFF726FF6068A8EB000108353843B16010
:10506000F268914238BFF1600021C4E9001000F0FD
:10507000F5FA680704BF2846BDE8F0814FF05000FC
:1050800080F31188BFF36F8FBFF34F8FFEE700BF30
:10509000942200206FF002034FF0807C21F0010188
:1050A00040E90932034A40E9032140F804CC44387E
:1050B000704700BF394F0008D0E9013201699A609A
:1050C000826853604B68834208BF4A6000220261D5
:1050D000086801380860086870470000034B0360E7
:1050E0000348086080201060704700BF986000206F
:1050F000985E00200021024601604FF0FF3142F827
:10510000081FC0E903224260704700210161704717
:1051100080B5D1F800C01CF1010207D000F10802EF
:105120009646526813686345FAD903E0D0F810E058
:10513000DEF804204A609160C1F808E0CEF804105F
:10514000086101680131016080BD42684A6093686E
:105150008B6093685960916008610168013101605A
:1051600070470000DFF80C00016841F47001016035
:10517000704700BF88ED00E04FF0500080F31188C9
:10518000BFF36F8FBFF34F8FB74801684A1C0029E8
:10519000026000D07047C04800680006FAD04FF0A7
:1051A000500080F31188BFF36F8FBFF34F8FFEE77E
:1051B000AD48016839B10139016018BF704700205E
:1051C00080F3118870474FF0500080F31188BFF3CF
:1051D0006F8FBFF34F8FFEE78801002070B5B8B125
:1051E000194E044650F8040C3178002918BF4FF0CE
:1051F000004101420DD0A4F108052A6892B14FF098
:10520000500080F31188BFF36F8FBFF34F8FFEE71D
:1052100070BD4FF0500080F31188BFF36F8FBFF364
:105220004F8FFEE7884344F8040C00F07BF854F8F5
:10523000040CB1680844B0602846FFF731FEBDE8B1
:10524000704000F00BBA00BF0802002007480021A0
:105250004FF47A720160816005490968B1FBF2F18F
:105260000139416007210160704700BF10E000E094
:105270002C000020C8B1F8498A6942B14FF05000B3
:1052800080F31188BFF36F8FBFF34F8FFEE780B5B8
:105290008A6901328A610021FFF7E4FC00F0DEF93F
:1052A0000028BDE8804018BF70477B484FF0805110
:1052B0000160BFF34F8FBFF36F8F704790010020E5
:1052C00010B586B0002405A804A903AACDE90444BA
:1052D000FFF704FFDDE9032005990023CDE9004035
:1052E0000D4802910DA100F005F9DB490028C861C5
:1052F0000FD04FF0500080F31188BFF36F8FBFF3D2
:105300004F8F4FF0FF300862012048614C6200F07F
:105310003BF806B010BD00BFC14D000849444C45E4
:1053200000000000CC48816901318161704700BFF5
:10533000F948816911B10121816270470021F74A62
:1053400081624168B1FA81F1C9B2C1F11F0101EB7B
:10535000810152F821306BB102EB810252F8041F37
:105360004968131D1160994204BF49681160C968FA
:10537000016070474FF0500080F31188BFF36F8FCA
:10538000BFF34F8FFEE700BF1CB5334833490268B7
:105390004B1C9A4208D14FF0500080F31188BFF3A4
:1053A0006F8FBFF34F8FFEE702688A4208D14FF03C
:1053B000500080F31188BFF36F8FBFF34F8FFEE76C
:1053C000274C0721025D0192FF220255254A035D09
:1053D00051608DF8033006239DF8031001F0500151
:1053E000117006E05360013B9DF8031049008DF8F1
:1053F00003109DF90310B1F1FF3FF3DD022B21D122
:105400004FF44071516001990155016A41F47001F6
:105410000162016A41F070410162FFF717FF124813
:1054200000210160FFF79EFE1048016841F04041F5
:105430000160FFF75DFDFFF77BFFFFF77DFD0020BB
:1054400002B010BD4FF0500080F31188BFF36F8F92
:10545000BFF34F8FFEE700BF00ED00E070C20F41C9
:1054600000F7FFFF200200208801002034EF00E059
:1054700080B54FF0500080F31188BFF36F8FBFF3FA
:105480004F8F00F07DF818B1A5484FF080510160B2
:10549000002080F3118880BD04ED00E02DE9FE437B
:1054A00007469000984615468946FFF75BFDE0B138
:1054B00006465420FFF756FDA0B10446DDE90A1068
:1054C0000022434684F8512026632A46CDE9001085
:1054D000384649460294FFF79DFC2046FFF7F6FB4D
:1054E000012004E03046FFF779FE4FF0FF3003B0B3
:1054F000BDE8F08370B586B00B9CCCB10C9E06B3B2
:1055000054250495049D542D24D1049DDDF828C014
:10551000022586F8515005AD3463CDE900C50296E9
:10552000FFF778FC3046FFF7D1FB059806B070BD59
:105530004FF0500080F31188BFF36F8FBFF34F8F90
:10554000FEE74FF0500080F31188BFF36F8FBFF379
:105550004F8FFEE74FF0500080F31188BFF36F8F3D
:10556000BFF34F8FFEE700006B48416900290FBF72
:1055700001208069B0FA80F0400918BF40007047F0
:105580002DE9F047644EB06920B1F06A0024013083
:10559000F06243E0706A10F1010AC6F824A044D01A
:1055A000306A002482452FD3DFF870914FF0010854
:1055B00023E0306BC068C7683D4655F8040F82454C
:1055C00021D32846FFF778FDB86A18B107F1180013
:1055D000FFF772FDF86A726808FA00F100EB8000CC
:1055E000114309EB800071602946FFF7AEFDF86AB0
:1055F0003168C96A884228BF4446306B0068002879
:10560000D7D14FF0FF30306230684449C06A00EBB8
:10561000800051F82000012888BF0124B06A0028CA
:1056200018BF01242046BDE8F087306B006840B108
:105630004FF0500080F31188BFF36F8FBFF34F8F8F
:10564000FEE7306B716B31637063B06B0130B06338
:10565000FFF762FCA4E700BF900100202DE9F041B4
:105660002D4DA86960B1FFF787FDA8690138A861D1
:10567000A86970B10024FFF79BFD2046BDE8F081CA
:105680004FF0500080F31188BFF36F8FBFF34F8F3F
:10569000FEE728690028EDD0DFF88080002601278A
:1056A0001CE0286FC66806F11800FFF705FD341DE1
:1056B0002046FFF701FDF06A6A6807FA00F100EB87
:1056C0008000114308EB800069602146FFF73DFD33
:1056D000F06A2968C96A884228BFAF62686E0028EC
:1056E000DFD10EB1FFF718FCEC6A44B10126FFF7D9
:1056F00047FF00B1AE62013CF9D10020E862A86A20
:105700000028B7D006484FF0805101240160BFF354
:105710004F8FBFF36F8FAEE790010020082200206B
:1057200004ED00E002E008C8121F08C1002AFAD107
:1057300070477047002001E001C1121F002AFBD111
:105740007047000010B5002821D0114B0022001F27
:10575000196803E0814203D80A4649680029F9D153
:1057600052B11368841A9C4204D100681844106036
:10577000104602E0506000E0186039B102680B1A70
:10578000934203D10B681A4402604968416010BD1E
:1057900000000020F0B50B30154D20F0070100246B
:1057A000144A0FE003688B420BD38B4205D95E1A73
:1057B00043184768C3E9006700E04368136002C00C
:1057C00004E0021D10680028ECD12046002802D118
:1057D000286808B10020F0BD064A07481060074A53
:1057E000121A22F00702C0E9002401202860D7E73E
:1057F0000400002000000020F4600020F06200207F
:1058000034580008B5310008000000000000000016
:105810008000000000000000000000000000000008
:105820000000000001020304060708090000000050
:105830000102030464656661756C745461736B00E6
:10584000605800080000002090010000F0020008ED
:1058500028590008900100206065000034570008B6
:10586000813210320113ED38140821391B082D0440
:105870001A59041A89041AC9141AF904111324F4C0
:105880001379361408DD351C086D3710311A2110D4
:105890001A4D101AB304C11A61181A55041A6D046E
:1058A0001A4904140902431302011DC03209046994
:1058B0001A020B1305241610010524011009010416
:1058C00024020205240617010705820308151009A2
:1058D000040133020A2E0705010240072A8107113D
:1058E000093744113A02441907112B0A0606112AF6
:1058F00040EC2B0907500A3B04941A1217130202BA
:105900001E40830440574D1B0203591351031B08CB
:105910004D041A49041A75041A9104071A0403095C
:08592000041A031AAA01410058
:04000005080001AD41
:00000001FF
