:020000040800F2
:10000000984E0020C10100088F2C00082527000809
:100010008D2C0008F1020008E73500080000000000
:10002000000000000000000000000000212D00087A
:100030008503000800000000A12C00084D2D0008D9
:10004000DB010008DB010008DB010008DB01000820
:10005000DB010008DB010008DB010008DB01000810
:10006000DB010008DB010008DB010008DB01000800
:10007000F5020008DB01000801030008DB010008AD
:10008000DB0100080D030008DB010008DB010008AC
:10009000DB010008DB010008DB010008DB010008D0
:1000A000DB010008DB010008DB010008DB010008C0
:1000B000DB010008DB010008DB010008DB010008B0
:1000C000DB010008DB010008DB010008DB010008A0
:1000D000DB010008DB010008DB010008DB01000890
:1000E000DB010008DB010008DB010008DB01000880
:1000F000DB010008DB010008DB010008DB01000870
:10010000DB010008DB010008DB010008DB0100085F
:10011000DB010008DB010008DB010008DB0100084F
:10012000DB0100081903000825030008310300085B
:100130003D030008DB010008DB010008DB010008CB
:10014000DB010008DB010008DB010008912C00083E
:10015000DB01000849030008DB010008CD3000087E
:10016000DB010008DB010008DB010008DB010008FF
:10017000DB010008DB010008DB01000800000000D3
:10018000DB010008DB0100083D2F0008492F0008B3
:10019000DB010008052D0008DB010008DB01000879
:1001A0000000000000000000DB010008DFF80CD0B8
:1001B00000F08CF800480047E9350008984E002010
:1001C0000648804706480047FEE7FEE7FEE7FEE7F1
:1001D000FEE7FEE7FEE7FEE7FEE7FEE70D2E00087E
:1001E000AD0100082DE9F05F0546002092469B46D0
:1001F00088460646814640241BE02846414647463D
:10020000224600F053F853465A46C01A914110D383
:1002100011461846224600F03AF82D1A67EB0108FD
:100220004F4622460120002100F031F817EB00096B
:100230004E41201EA4F10104DFDC484631462A4627
:100240004346BDE8F09F40EA01039B0703D009E065
:1002500008C9121F08C0042AFAD203E011F8013BB2
:1002600000F8013B521EF9D27047D2B201E000F80B
:10027000012B491EFBD270470022F6E710B513464A
:100280000A4604461946FFF7F0FF204610BD202A13
:1002900004DB203A00FA02F1002070479140C2F1DD
:1002A000200320FA03F3194390407047202A04DB0F
:1002B000203A21FA02F00021704721FA02F3D040DF
:1002C000C2F120029140084319467047064C074D81
:1002D00006E0E06840F0010394E807009847103416
:1002E000AC42F6D3FFF766FFD0410008F0410008AA
:1002F000FEE70000014800F09DBA00BF2003002087
:10030000014800F097BA00BF84030020014800F0C4
:1003100091BA00BF58020020014800F08BBA00BF1C
:10032000E8030020014800F085BA00BFBC020020AD
:10033000014800F07FBA00BF90010020014800F0A2
:1003400079BA00BFF4010020014800F073BA00BF81
:100350004C04002001686FF00F0240F2FF3352FAA4
:1003600081F2994318235F2AB2FBF3F203A388BFFB
:100370000431C1659A5C0266084670470006101693
:10038000000610167047EFF3108072B6FEE700000B
:1003900078B500220092C26B012A01D1022147E008
:1003A0000122C263D1F800E01FFA8EFCBEF10A0FF1
:1003B0004FEA4C0212FA8EF204D303681E3A03F19C
:1003C0000C0402E0036803F1100407252668954039
:1003D00026EA050525608D6805FA02F225682A439C
:1003E00022604A68062A05D802EB820203F1340132
:1003F000053A0BE002EB82040C2A87BF03F12C01C3
:10040000A4F1410203F13001A4F123021F240D687D
:1004100094400CFA02F225EA04040C600E683243A0
:100420000A606949A1F54172934204D00021C16379
:10043000084601B070BDBEF1110F0ED0144A9645AA
:100440000BD0BEF1120FF1D10A6822F400020A604B
:100450000A6842F480020A60E8E70A6822F480022F
:100460000A600A6842F400020A6009498E45DDD13B
:100470000849094A0968B1FBF2F101EB8101490021
:1004800001E000990139009100990029F9D1CDE7E7
:10049000120000100800002040420F00002841D048
:1004A00010B50446006C28B9204600F095F80020ED
:1004B000E0636064206CC00636D4206C41F2021107
:1004C000424B8843023020643F48016821F44031A8
:1004D000016061680268114301602068416821F48D
:1004E000807141602169426842EA012141604168AE
:1004F00021F040714160A168426811434160816808
:1005000021F400618160E168826811438160A16A21
:10051000826822F0706299428260826806D122F07D
:1005200040510CE00120704701204AE011438160F6
:10053000816821F040518160E16A826811438160E5
:10054000816821F002018160A169826842EA41016B
:100550008160226A41686AB141F400611C4A4160CD
:10056000416821F460414160616A02EB41314268B7
:10057000114301E021F400614160164AC16A21F48F
:100580007001C162E16902EB0151C26A1143C162AB
:10059000816821F400718160216B826842EA412107
:1005A0008160816821F4806181606169826842EACA
:1005B00081210122816000206064216C62F30101CD
:1005C00021640021E16310BD042301400100000FFC
:1005D00000E0FFFF0000F0FF10B586B0044601A860
:1005E0001421FFF749FE2168124881421FD10021E2
:1005F000854A00F560400091536943F4807353616C
:10060000536903F480730093009B0091136843F0D7
:1006100001031360126802F001020092009A039134
:10062000032102910221019101A900F057FA06B0BD
:1006300010BD00BF00200140B0B5B8B10446006B4A
:1006400010B9204600F070F82068016821F002011E
:10065000016000F017FB054620684168890707D54F
:1006600000F010FB401B0B28F6D311E00120B0BDB9
:10067000016841F00101016000F004FB05462068BB
:100680004168C9070BD100F0FDFA401B0B28F6D3D7
:10069000606B052140F400306063012041E0A169F6
:1006A0000268251D22F08003012908BF42F0800363
:1006B0000360E169026822F04003012908BF42F0AB
:1006C00040030360216A026822F02003012908BF69
:1006D00042F020030360616A026842F010030129BE
:1006E00008BF22F010030360A16A026822F0080329
:1006F000012908BF42F008030360E16A026822F0A2
:100700000403012908BF42F0040303602ECD1A43FD
:1007100063692A4301391A431143C1610020012151
:1007200060632163B0BD000010B586B0044601A827
:100730001421FFF7A1FD20683149884229D03149B1
:1007400088425AD1314801684A1C002902602E486B
:100750000AD100210091016941F000710161016934
:1007600001F000710091009900210091026842F0AF
:1007700002020260006800F0020000900098092068
:1007800005900320CDE90310022002904FF4407041
:100790002EE000201C4900900A6942F080620A6144
:1007A0000A6902F080620092009A184A13685C1C81
:1007B000002B146009D100900A6942F000720A61AE
:1007C0000A6902F000720092009A00900A6842F0F2
:1007D00002020A60096801F00201009100990921F2
:1007E00005910321CDE903010220029042F220008D
:1007F0000190074801A900F071F906B010BD00BFD3
:10080000006800400064004030380240D000002002
:1008100000040240816B022908D105218163006830
:10082000016821F00101016000207047802181658D
:1008300001207047F8B50446002008210090544874
:100840000568D4E917603768814039420CD02268C6
:1008500013685B0708D5136823F004031360B160C5
:10086000A16D41F00101A16501218140394208D00B
:1008700022685269120604D5B160A16D41F00201EF
:10088000A16504218140394208D02268126892078C
:1008900004D5B160A16D41F00401A1651021814032
:1008A000394217D020680268120713D5B160026878
:1008B0000168520306D4C9055EBF016821F0080132
:1008C000016001E0080301D4616C00E0E16C09B152
:1008D00020468847216E202000FA01F23A4236D0A5
:1008E00020680368DB0632D5B260A36B0268052B73
:1008F00017D122F016020260426922F080024261A2
:10090000626C0AB9E26C1AB1026822F00802026055
:100910003F208840B0600120A06300206063616DCB
:1009200032E0016852030AD4C9050CD4016821F0F1
:10093000100101600120A0630020606303E0080350
:1009400001D4A16C00E0216C09B120468847A06D5C
:10095000E8B1A06DC00716D005214FF41650A16371
:10096000B5FBF0F021680A6822F001020A60009AE3
:1009700001328242009202D80A68D207F7D10120E0
:10098000A06300206063216D09B120468847F8BD4F
:10099000080000202DE9F041044600F073F9002C16
:1009A0004DD005460220A0630020606321680868DE
:1009B00020F00100086005E000F064F9401B052804
:1009C00040D821680868C007F6D10868394AD4E9D8
:1009D000013504F10C0800EA020C98E8C101D4E9E1
:1009E000072E43EA0C032B431843636A3043384312
:1009F000042B40EA080040EA020040EA0E0225D13A
:100A0000D4E90BE042EA0E02BEF1000F40EA020018
:100A1000086051F8140FA26A20F0030040EA0200B7
:100A200040F0040C19D0B8F5005F27D0B8F1000FE2
:100A300034D1022A35D0012A2AD092B30DE0012008
:100A4000BDE8F08103252023032013E00A6051F85C
:100A5000140F20F0070040EA030C2046C1F800C044
:100A6000FFF778FC216E3F220125002302FA01F1F5
:100A700081600020A365A563BDE8F081032AECD85E
:100A8000012540230120DFE802F0020C0203F1E718
:100A9000AEF1C070B0FA80F0400904E0032A04D33C
:100AA000DBD1CEF300600028D7D001254023012000
:100AB000E0E700BF3F8010F0B0B5044600F0E2F878
:100AC00005460548611C406818BF044400F0DAF888
:100AD000401BA042FAD3B0BD000000202DE9F84F22
:100AE0005F4A4FF00A0A4FF0010B4FF000084FF039
:100AF000000E90425B4A08BF4FF0090A02444FEAD9
:100B0000B223092B38BF4FEAB22A0022BEF1200FD0
:100B100008BFBDE8F88F0B680BFA02F6334200F00D
:100B200091804B68122B00F293800BFA03F414F0BF
:100B3000061F00F08D800327856807FA0EF4CF6842
:100B4000A5436FEA040C540007FA0EF72F438760A1
:100B5000C3F3001745689740B5432F434760C56806
:100B60008F6805EA0C05A7403D43C56043F01005BA
:100B7000122D13D16FF0030708F01C030F2507EAAD
:100B800052079D400744D7F8209029EA05090D69CE
:100B900005FA03F343EA09033B624B6803F00305DC
:100BA000DB0005FA04F4056805EA0C0747EA0407C8
:100BB000076047D500232C4C08F00C0500932C4B04
:100BC000A4461F461B6843F480433B603B6803F424
:100BD0008043009322F003032344264C009FA14648
:100BE0001F590F24AC400AFA05F5A7432F4343F8D9
:100BF0000970DCF800304D6843EA0607EC0358BF83
:100C000023EA0607CCF80070AC03DCF8043043EAB2
:100C1000060758BF23EA0607CCF80470EC02DCF89C
:100C2000083043EA060758BF23EA06070F4BCCF803
:100C30000870AD021C461B6843EA060758BF23EA4A
:100C40000607276008F104080EF1020E01325DE785
:100C5000032707FA0EF46FEA040C74467FE700BF1F
:100C6000002402400000FEBF003C01400C3C01405B
:100C70004438024008FCFFFF002A08BF09048161D4
:100C800070470000AD480068704700BF026C202A22
:100C90001CBF02207047242202640268136823F0FC
:100CA00001031360536A23F010035362536A19431C
:100CB0005162116841F0010111602021016400209E
:100CC0007047026C202A1CBF02207047242289B280
:100CD00002640268136823F0010313604FF6F07397
:100CE000D2F824C003EA0C0319435162116841F0A1
:100CF000010111602021016400207047B0B548B3A4
:100D00000446006C20B90020E063204600F0B4F8EF
:100D1000242020642068016821F00101016001683D
:100D200041F400410160016821F40041016000F0DC
:100D300027FE4C494C4B00224C4D88424FF000019D
:100D400038BF0121984238BF01226368AB4238BFE7
:100D50000A460AB10120B0BD4549B0FBF1F2216855
:100D60004D6825F03F0515434D600D6A25F03F0C99
:100D7000404DAB4213D80132013842EA0C020A62FC
:100D80005A004CF6FF73B0FBF2F001306FF31F30E6
:100D9000042898BF0420CA6922EA030C3AE04FF401
:100DA0009675A0F1010E6A434FF47A75B2FBF5F225
:100DB0004CF6FF75013242EA0C020A62CA6922EA65
:100DC000050CA26842B1192004255843BEFBF0F07F
:100DD000013065F31F3006E003EB4300BEFBF0F08B
:100DE00001306FF31F30000509D052B119200422E1
:100DF0005843BEFBF0F0013062F31F3008E00120E1
:100E000008E003EB4300BEFBF0F001306FF31F304E
:100E100040F4004040EA0C00C8610868D4E90723A8
:100E200020F0C000104348F2FF3218430860886881
:100E30009043D4E90323184310438860C868D4E979
:100E4000052320F0FF0010431843C860086840F0F5
:100E50000100086000202021A064216420636064F8
:100E6000B0BD00BF80841E0000093D00A1860100C6
:100E700040420F00A0860100B0B586B0044601A82C
:100E80001421FFF7F9F921681448814223D1002584
:100E9000134C012200F5DE300095216841F020015D
:100EA0002160216801F02001009100990421059141
:100EB0000321049103921222CDE9011201A9FFF747
:100EC0000DFE0095206940F480002061206900F447
:100ED00080000090009806B0B0BD00BF00580040F0
:100EE00030380240B0B5F8B1044600684CF6CC4149
:100EF000016045F25551016061684160A1688160FF
:100F0000FFF7C0FE054606E0FFF7BCFE401B302899
:100F100084BF0320B0BD2068C1680029F4D14AF61F
:100F2000AA2101600020B0BD0120B0BD1F480349C7
:100F300040680A6810440860704700BF40480020BD
:100F400080B50B48016841F400710160016841F40B
:100F500080610160016841F480710160032000F04C
:100F600081F80F2000F006F800F024F8002080BD82
:100F7000003C024070B50D4E04464FF47A71706823
:100F8000B1FBF0F00A490968B1FBF0F001F018F884
:100F900001250F2C08D838B94FF0FF302146002228
:100FA000002500F035F83460284670BD00000020B0
:100FB0000800002082B000200D4901904A6842F4E8
:100FC00080424A604A6802F480420192019A00908D
:100FD0000868002240F08050086008680F2100F087
:100FE0008050009000986FF0010002B000F010B83F
:100FF00040380240002808DB00F01F0101224009B0
:1010000002FA01F1014A42F82010704700E100E0C5
:10101000B0B500F00F03194D114CB0F1FF3FA3F133
:1010200004032B4403F10C03C8BF031928684FF0D5
:10103000FF34C0F30220C51E80F0070038BF002532
:10104000042828BF042004FA00F021EA000004FA72
:1010500005F1A84022EA0101084300011870B0BD63
:1010600000E400E005494FF6FF030A681A4060F308
:101070000A22034810430860704700BF0CED00E0EF
:101080000000FA05704770477047704770470000CE
:101090002DE9F04F87B004688146204602F0C0F980
:1010A00010B107B0BDE8F08FD9F8000002F0E4F904
:1010B0000028F6D0D9F8000002F0DEF90146D9F890
:1010C0000000890742BF416901F00201416102F05D
:1010D000D3F90146D9F800000494C9063FD58169C7
:1010E00021F010018161246AC4F3434004F00F052C
:1010F00006281CD002282BD147F6F070044027D0D8
:10110000C5EBC500220909EB80050498D5F8081243
:1011100002F0B6F9D5F80802D5F8141200EB141055
:10112000C5F8080201EB1410C5F8140210E0049889
:1011300009F57271082202F0A3F9C5EBC50009EBAD
:101140008000D0F81412C4F30A121144C0F814122B
:10115000D9F80000816941F010018161049C02F01E
:101160008BF9000340F1C280D9F8000002F063F966
:10117000064609F5727009F5057A00254FF43068C6
:101180000690002E00F0B280F00700F08C805FFA2D
:1011900085FBD9F80000594602F066F90746C007FA
:1011A00048D004EB080001218160D9F8000008EB69
:1011B0000001036C8A68D9F81040012C10D1140783
:1011C0001AD4940633D4049C12F0280F32D1E44C84
:1011D000A3426FD312F400426CD04FF4004027E0DA
:1011E000DF4CFF34A34212D1049C10040BD49006B0
:1011F00044BF2020886015E0D948049C834219D35D
:1012000012F4004016D04FF40040886012E0049CB5
:10121000B8F5306F06D1D9F8101219B9069A002125
:1012200002F0A0F848465946FFF72FFF02E02020C1
:101230008860049C380723D504EB08000821C84BBC
:101240008160D9F80010013B0A6C08EB010081684D
:101250009A4212D9090444BF4FF4004181604846C4
:1012600000F0F1FAD9F81000012809D1D9F80000EE
:10127000069A012102F076F802E0484600F0E3FA0F
:10128000F80642BF04EB080010218160B80642BF97
:1012900004EB080020218160B80442BF04EB080081
:1012A0004FF4005181600AF11C0A08F12008760809
:1012B000013566E75AE904230969B8F5306F6FF321
:1012C000DF41A2EB0101CAF8001003EB02014AF86A
:1012D0000C1C06D1D9F8101219B9069A012102F096
:1012E00041F848465946FFF7D0FEA2E7D9F800007A
:1012F00002F0C2F8400340F1B480D9F8000002F0D7
:1013000093F8064609F5727004F510670023019002
:101310000297A3E0F00700F09F80D9F80000D9B24F
:101320000593069102F08EF80546C00729D0059B6B
:101330000122D4F8341803F00F0002FA00F021EA79
:101340000000C4F8340807EB43108260D9F810009D
:10135000012812D1C3EBC300002B09EB8000D0E9B8
:1013600011121144816408D1D9F8500028B9D9F874
:101370000000019A012101F0F5FF06994846FFF7A8
:1013800083FE2807059B42BF07EB431008218160BD
:10139000E80642BF07EB431010218160680642BF98
:1013A00007EB431040218160A80742BF07EB4310C1
:1013B0000221816028064FD5C3EBC30009EB800AE8
:1013C000D3465BF8500FD84658F8042F904243D3C9
:1013D000D9F800505AF8441F841A03964F468C429D
:1013E00088BF0C4605EB43110AF1040601F51069AC
:1013F00017E03C7CDAF8003031680094841A284603
:101400009C4288BF1C46069AA3B202F0D7F8306807
:1014100020443060D8F800000219C8F80020DBF83A
:101420000000D9F81830E11C9BB2B3EB910F28BF34
:101430009042DED8B946DDE90276DDE90443904208
:101440000AD803F00F00012101FA00F0D5F8341892
:1014500021EA0000C5F8340876080133002E7FF435
:1014600059AFD9F8000002F007F8002802DBD9F8DC
:1014700000001AE0D4F8040820F00100C4F80408C1
:10148000D9F8F803012807D100200021C9F8F80392
:101490004846FFF7F7FD02E0484600F0D2F9D9F8D8
:1014A0000000416901F00041416101F0E5FF0005E4
:1014B00002D4D9F800000CE0D4F80808C00702D024
:1014C000484600F0C1F9D9F80000416901F4006113
:1014D000416101F0D1FFC00402D4D9F800005EE000
:1014E000D4F80408102120F00100C4F80408D9F849
:1014F000000001F073FFD9F8042004F5106104F531
:1015000000604FF67F3318E08B60013A0F6827F4D4
:1015100000170F600F6847F000670F60C1F80832CE
:10152000D1F8007227F40017C1F80072D1F80072E8
:1015300047F00067C1F800722031002AE4D1C16988
:1015400041F00111C161D9F8301059B1D0F88410BF
:1015500041F00B01C0F8841000F1440109E000BF24
:101560000B30544F416942F22B021143416100F1AB
:1015700010010A6842F00B020A6009F572720168F4
:1015800021F4FE61016099F81010D9F8000001F013
:10159000E9FED9F80000416901F48051416101F090
:1015A0006BFF0146D9F8000089041AD501F094FDBB
:1015B000D9F8000001F026FFC9F80C00D9F8005056
:1015C00000F0DAF999F80C200146284601F07EFF78
:1015D000484600F035F9D9F80000416901F400519E
:1015E000416101F049FF000702D4D9F8000008E08A
:1015F000484600F027F9D9F80000416901F00801D8
:10160000416101F039FFC00202D4D9F8000009E0BD
:101610004846002100F03AF8D9F80000416901F489
:101620008011416101F028FF800202D4D9F8000046
:1016300009E04846002100F02AF8D9F80000416985
:1016400001F40011416101F017FF400002D4D9F804
:10165000000008E04846FFF716FDD9F80000416990
:1016600001F08041416101F007FF40077FF519ADAE
:10167000D9F800004468610704D54846FFF706FD25
:10168000D9F800004168214341600AE5704770477E
:101690002DE9F04F8BB0002800F0808004460568EB
:1016A000D0F8C00328B90020C4F8BC03204600F0DD
:1016B00085F80320C4F8C003E86BC0055CBF0020B8
:1016C0002061206801F048FE206804F1040E04F156
:1016D0001C0A0A909EE80E589AE8C007D4E90C50FC
:1016E000CDE9085003A88DE8005880E8C0070A98A3
:1016F00001F002FD00284ED120680021002501F0F4
:10170000CDFE6168012000220FE0C3EBC30704EBAC
:101710008707A7F8423087F83C2087F83D003D65F1
:10172000C7E9115587F83F500132D3B29942ECD83E
:10173000002000220EE0C3EBC30304EB8303C3F8D5
:101740001002C3E9810083F8FF0183F8FC2183F8CC
:10175000FD010132D3B29942EDD8A06804F1140E14
:1017600004F1240A22680A90D4E903379EE840581D
:101770009AE80007D4E90C50CDE9085002A8CDE959
:10178000007680E8005805A880E8000710460A9A0D
:1017900001F018FD38B10220C4F8C0030125284625
:1017A0000BB0BDE8F08F0025012084F83850C4F854
:1017B000C003206801F0F8FCF1E70000B0B586B086
:1017C000044601A81421FEF757FD2068B0F1A04F90
:1017D0002FD10025184C01A90095206840F0010088
:1017E0002060206800F00100009000980A20059019
:1017F0000320CDE90350022002904FF4C050019025
:101800000E48FFF76BF960680521002240F0800068
:1018100060600095606940F480406061606900F438
:101820008040009000984320FFF7F2FB4320FFF731
:10183000E1FB06B0B0BD00BF3038024000000240FE
:101840007047704770477047704700002DE9F041BE
:10185000002800F08780454B04468846D3F80004F2
:1018600000F00F00884207D283F80084D3F8000408
:1018700000F00F00404575D12068810711D5410760
:1018800042BF996841F4E0519960010742BF9968ED
:1018900041F4604199609968A26821F0F001114318
:1018A0009960C0072CD06068811E022903D2196894
:1018B000890109D456E0012803D11968890303D4AA
:1018C00050E0196889074DD599681D4621F003013C
:1018D00008439860FFF7D6F9064641F2883707E0DB
:1018E000FFF7D0F9801BB84284BF0320BDE8F08128
:1018F000A86861682B4600F00C00B0EB810FEFD1B7
:10190000D3F8000400F00F00404507D983F80084A5
:10191000D3F8000400F00F00404523D120684107B0
:1019200005D59968E26821F4E051114399600007F8
:1019300006D59868216920F4604040EAC1009860AB
:101940001C4600F037F8A168094AC1F30311515C45
:10195000C8401549086007480068FFF70BFB0020E6
:10196000BDE8F0810120BDE8F08100BF00380240F1
:10197000AC410008000000200B480068704700BF21
:1019800009480A490A4A00680968C1F38221515C82
:10199000C840704704480549054A00680968C1F312
:1019A0004231515CC84070470800002008380240AE
:1019B000BC41000810B5134C606800F00C0008280A
:1019C00004D0042814BF1048104810BD22682068B5
:1019D0000023400202F03F020C485CBF42F200408C
:1019E000C0F2F4002168C1F38811A0FB0101FEF7E9
:1019F000F9FB21680222C1F3014102EB4101B0FB76
:101A0000F1F010BD043802400024F400001BB700C0
:101A10002DE9FC41002800F0368104460078BB4ED9
:101A2000C00743D0B06800F00C00042805D130682E
:101A300080033BD56068C8BB25E1B06800F00C00AE
:101A4000082802D170684002F1D46768B7F5803F7A
:101A500006D03068B7F5A02F12D140F48020306056
:101A6000306840F480303060FFF70CF9054630688C
:101A700080031BD4FFF706F9401B6428F7D9ABE0BD
:101A800020F480303060306820F480203060FFF730
:101A9000F9F80546002FEAD13068800306D5FFF734
:101AA000F1F8411B03206429F6D9EDE02078800786
:101AB0002BD5B06810F00C0F07D0B06800F00C0008
:101AC000082809D17068400206D43068800715D50F
:101AD000E068012812D0D6E0E06800287ED08C486B
:101AE00001210160FFF7CEF805463068800705D474
:101AF000FFF7C8F8401B0228F7D96DE0306821696C
:101B000020F0F80040EAC10030602078000720D5BE
:101B100061697F4871B10121C0F8801EFFF7B2F8FA
:101B20000546706F800714D4FFF7ACF8401B0228FD
:101B3000F7D951E00021C0F8801EFFF7A3F8054651
:101B4000706F800705D5FFF79DF8401B0228F7D975
:101B500042E02078400771D5306C4FF00008C0009B
:101B60000CD4CDF804804FF00108306C40F0805068
:101B70003064306C00F0805001900198654F3868F7
:101B8000C0050FD4386840F480703860FFF77AF8E9
:101B900005463868C00505D4FFF774F8401B0228D5
:101BA000F7D919E0A768012F05D0306F052F26D18E
:101BB00040F004003067306F40F001003067FFF7FD
:101BC00061F8054641F28837306F80072FD4FFF760
:101BD00059F8401BB842F7D9032055E04C48002182
:101BE0000160FFF74FF80546306880077FF58DAF3D
:101BF000FFF748F8411B03200229F5D944E020F003
:101C000001003067306F20F004003067FFF73AF8CA
:101C10000546002FD6D141F28837306F800706D5B0
:101C2000FFF730F8411B0320B942F6D92CE0B8F198
:101C3000000F1EBF306C20F080503064A769002F69
:101C400062D0B06800F00C00082820D1012F1AD013
:101C50007068E16900F480028A4214D1216A00F0C0
:101C60003F028A420FD147F6C071626A0140914239
:101C700009D1A16A00F440328A4204D1E16A00F03D
:101C80007060884240D0012002B0BDE8F081204958
:101C9000002088460866FEF7F5FF0546022F09D1A9
:101CA0003068800110D5FEF7EDFF411B03200229AB
:101CB000F6D9E9E73068800126D5FEF7E3FF411B3E
:101CC00003200229F6D9DFE704F11C078FCF084370
:101CD000D90340EA82104FF6FF72914340EA076051
:101CE000A1F58031084370600120C8F86000FEF75C
:101CF000C9FF04463068800106D4FEF7C3FF011B0C
:101D000003200229F6D9BFE70020BDE700380240D2
:101D10000000474200700040704700001CB50446B8
:101D20000068416882684B0605D502F04103012B2B
:101D300001D1216C05E00B0607D512F0020304D097
:101D4000616C2046BDE81C4008478B065FD512F445
:101D5000B0735CD012F0400315D0636D032B07D134
:101D600000210191C16801918068019001984EE0C5
:101D7000A36D43F00403A36500230193C36801939B
:101D800083680193019B02F4807312F020020CD04F
:101D9000A26D42F00102A2650022019282680192C6
:101DA000026822F040020260019A43B1A26D42F043
:101DB0000802A2650022019282680192019AA26D36
:101DC0002AB34268890722F0E00242604FF0010224
:101DD00062651DD0416821F003014160E06C40B1B3
:101DE0000E494165FEF716FD18B1A06D40F04000A8
:101DF000A065A06C58B109494165FEF70BFD0028AC
:101E000008BF1CBDA06D40F04000A0651CBD1CBDFE
:101E10002046BDE81C40FFF77FBF00BF112D000822
:101E200070B5A8B3002605464FF0000C8662406DE1
:101E300028B928462E6500F02FF8D5F828C00221D1
:101E4000696529680A6822F040020A60D5E9012321
:101E5000D5E903041A4310436A6920431043AA6971
:101E600002F400731843EB6918432B6A184340EAE5
:101E70000C000860042000EA12406A6A10434860BF
:101E8000C86920F40060C8610120AE65686500E0A3
:101E90000126304670BD00002DE9F04F87B00446A2
:101EA00002A81421FEF7E8F92068404EB04279D12B
:101EB00000273F484FF005084FF003094FF0020A92
:101EC00002AD0197416941F480114161416901F41A
:101ED0008011019101990197016841F02001016091
:101EE000016801F02001019101990197016841F019
:101EF000800101602946006800F08000019001988F
:101F0000CDF81880CDE90479CDF80CA04FF44070DD
:101F1000029006F54440FEF7E1FDCDE905984FF04B
:101F2000400806F54C402946CDE903A7CDF80880C6
:101F3000FEF7D4FD20481F4D4FF0806A4FF48069B2
:101F40001421C5E9000A834605F11400C5E90277AA
:101F5000C5F81090FEF790F92846FEF71BFD08B172
:101F6000FEF711FA154E0BF11800E5641421C6E9CD
:101F7000000A06F11400C6E90287C6F81090EC6367
:101F8000FEF77AF93046FEF705FD08B1FEF7FBF9DA
:101F9000552005210022A664F463FFF739F8552087
:101FA000FFF728F807B0BDE8F08F00BF00500140F0
:101FB000303802409001002058640240F4010020B3
:101FC000411E0020B0EB116F1CBF01207047044A76
:101FD000F023516003490B70072190601160704736
:101FE00010E000E023ED00E0C36B0222012B31D0B2
:101FF00010B502640122C2630268D2F804E0D2F88C
:1020000008C00C68B2F1804F2EF0700343EA04035D
:102010005360BDE8104014D00F4B9A4211D00F4BC3
:102020009A420ED00E4B9A420BD00E4B9A4208D0D9
:10203000364B9A4205D00C4B9A4202D00B4B9A4237
:1020400004D149682CF080031943916000220121DA
:10205000C26301641046704700040040000800405D
:10206000000C004000180040004001400004014006
:1020700090B110B50446006C20B90020E063204602
:1020800000F00CF80220211D2064206800F0CCFE36
:1020900001202064002010BD0120704783B000683B
:1020A0001849884212D0184988421CD017498842E2
:1020B00025D1002002901648416841F0010141609D
:1020C000406800F001000290029818E000200190A2
:1020D0000F48016841F010010160006800F0100035
:1020E000019001980BE0002000900948416841F4FC
:1020F00000314160406800F400300090009803B067
:10210000704700BF00100040004401400000014043
:102110004038024010B5C26B04460220012A08BFB5
:1021200010BD206401204FF67772E063206884467A
:102130005CF8083F23EA0202CCF800200B682BB1C0
:10214000102B03D0202B18BF302B0DD1DCF8000052
:1021500020F07000184340F00700CCF80000002089
:102160000121E063216410BD402B1AD0502B26D0F2
:10217000602B32D0B3F5005F3DD0702BEFD1D1E9A9
:102180000102C968104340EA0120DCF8001021F484
:102190007F410843CCF80000DCF8000040F07700F5
:1021A000DBE74B68CA68194600F0A6FED4F800C009
:1021B0005CF8080F40F0470020F03000CDE74B6896
:1021C000CA68194600F098FED4F800C05CF8080F01
:1021D00040F0570020F02000BFE74B68CA6819465E
:1021E00000F09BFED4F800C05CF8080F40F06700D8
:1021F00020F01000B1E7D1E90102C968104340EABC
:102200000120DCF8001021F47F410843CCF80000E5
:10221000DCF8000040F480409FE7704710B5D0F82C
:1022200000E00446DEF80010DEF80C20DEF8143082
:102230005FEA017C53D002F4907003F00103C018F0
:1022400055D0C8071FBF12F48070606C40F00100C9
:102250006064480704D51BB1606C40F00200606404
:10226000880704D51BB1606C40F004006064BCF1C9
:10227000000F07D502F02000C0181EBF606C40F0B0
:1022800008006064606C00286CD002EA01008006DF
:1022900004D5204600F070FED4F800E0DEF814000B
:1022A000616C00F0400001F0080140184AD020465F
:1022B00000F056FE2068416949063ED5416921F08B
:1022C00040014161606BC0B32D494165FEF7A2FA40
:1022D000002847D0606B416DBDE8104008471140B1
:1022E0008A0605D52046BDE8104000F045BE1140E5
:1022F00008060ED4480635D5DEF80C0020F0400064
:10230000CEF80C002020E0632046BDE8104000F02D
:1023100008BAE06B212825D1A068216AB0F5805F5A
:1023200016D108886FF35F20CEF8040020690028DA
:1023300014BF481C881C20620FE02046BDE81040F6
:10234000FFF76BBF2046FFF768FF0020606410BDF9
:10235000481C20620878CEF80400E08C0138E08444
:10236000000400D010BDDEF80C0020F08000CEF894
:102370000C00DEF80C0040F04000CEF80C0010BD60
:10238000552F000828B310B50446C06B20B90020B3
:10239000A063204600F020F82420E0632068C16894
:1023A00021F40051C160204600F020FE2068016940
:1023B00021F490410161416921F02A014161C16824
:1023C00041F40051C160002020216064E163216478
:1023D00010BD0120704700002DE9F04786B004468B
:1023E00001A81421FDF748FF2068BF4988423CD06E
:1023F000BE49884200F09180BD49884200F0ED80DE
:10240000BC49884200F03081BB49884240F0698174
:102410000020BA4900900A6942F080420A610A69C4
:1024200002F080420092009A0090086840F020007C
:102430000860086801A900F02000009000980820BA
:102440000590032004900120039002200290C020F8
:102450000190AB4800F58050FEF740FB522005216B
:102460000022FEF7D5FD5220FBE00027A34800978D
:10247000016941F480210161016901F48021009129
:1024800000990097016841F00401016001A900680A
:1024900000F0040000900098072005900320CDE98B
:1024A0000370022002904FF440600190944800F5C0
:1024B0008060FEF713FB9448954D4FF000694FF490
:1024C00080681421C5E90009824605F11400C5E9B8
:1024D0000277C5F81080FDF7CFFE2846FEF75AFABE
:1024E00008B1FDF750FF8B4E0AF1300165634020C3
:1024F000C6E9001906F1080181E8810106F114001E
:102500001421EC63FDF7B8FE3046FEF743FA08B13C
:10251000FDF739FF2663F463E3E00027DD48009709
:10252000416941F020014161416901F020010091C0
:1025300000990097016841F04001016001A900681D
:1025400000F0400000900098082005900320CDE99D
:102550000370022002904FF484400190684800F517
:10256000A050FEF7BBFA6848664D4FF020694FF463
:1025700080681421824600F58060C5E9000905F1F4
:102580001400C5E90277C5F81080FDF775FE2846EE
:10259000FEF700FA08B1FDF7F6FE5C4E0AF58F6112
:1025A00065634020C6E9001906F1080181E8810150
:1025B00006F114001421EC63FDF75EFE3046FEF7D1
:1025C000E9F908B1FDF7DFFE472005210022266367
:1025D000F463FEF71DFD472043E00026EF48009618
:1025E000016941F000410161016901F00041009180
:1025F00000990096016841F0100101600121006816
:1026000000F010000090009808200590032004902E
:1026100003910221CDE90101394801A900F540608B
:10262000FEF75CFA384A3D4D4FF480604FF0206170
:102630007832C5E90021C5E90266286105F1140078
:102640001421FDF719FE2846FEF7A4F908B1FDF79D
:102650009AFE5320052100226563EC63FEF7D8FC47
:102660005320FEF7C7FC3CE00026CC4800964169A9
:1026700041F010014161416901F0100100910099A0
:102680000096016841F00201016001A9006800F0B4
:10269000020000900098072005900320CDE9036018
:1026A00002200290C02001901548FEF717FA164A42
:1026B000194D4FF480604FF0006102F58362C5E967
:1026C0000021C5E90266286105F114001421FDF717
:1026D000D3FD2846FEF75EF908B1FDF754FE6563A9
:1026E000EC6306B0BDE8F0870048004000140140EC
:1026F000007C00400010014000780040303802406B
:1027000000040240E8030020286002404C0400203E
:102710002003002084030020BC0200205802002077
:1027200070477047FEE70000BFB51348134A144BCB
:1027300000244FF4803101250462C0E90A340463A7
:10274000C0E90021C0E90244C0E90445C0E90645EA
:10275000CDE90244CDE90044FDF7A0FE08B1FDF744
:1027600012FE054869460294CDE90055FDF710FEBA
:1027700008B1FDF708FEBFBDD800002000200140D1
:102780000100000FB0B50E4C0E4D06234FF40010A3
:102790004FF410210022C4E90053C4E90222C4E925
:1027A000041004F118001821FDF766FD2046FDF71E
:1027B00043FF002814BFBDE8B040B0BDFDF7E3BD46
:1027C000200100200064004010B50A4C0A49102086
:1027D000C4E9001004F108002821FDF74DFD204652
:1027E000FDF72AFF002814BFBDE8104010BDFDF71B
:1027F000CABD00BF5801002000680040BCB50020E1
:102800006649254C01900A6842F400120A600A6881
:1028100002F400120192019A00900868002240F42C
:10282000800008600868052100F48000009000988E
:102830000C20A047194D0C20A8470E20052100228E
:10284000A0470E20A847112005210022A0471120F3
:10285000A847392005210022A0473920A8473A205F
:1028600005210022A0473A20A8473B20052100224D
:10287000A0473B20A8473C2005210022A0473C2040
:10288000A847452005210022A04745202946BDE84C
:10289000BC4008473038024011100008F50F00080E
:1028A00010B588B001AC06491C222046FDF7CBFCD0
:1028B0002046002100F0D0FE0249086008B010BD9B
:1028C00090410008D400002070B586B0002633483F
:1028D000334C002240F2FF1505960096016841F046
:1028E00010010160016801F010010091009900964B
:1028F000016841F002010160016801F002010091EC
:1029000000990096016841F040010160016801F002
:102910004001009100990096016841F004010160B6
:10292000016801F00401009100990096016841F0EE
:1029300001010160016801F0010100910099009618
:10294000016841F020010160016801F0200100915F
:1029500000990096016841F08001016040F2FF118A
:10296000006800F08000009000982046FEF784F98F
:102970000120CDE90366CDE9015001AD204629468D
:10298000FEF7ACF80420CDE9026629460190A4F5D3
:10299000A050FEF7A3F806B070BD00BF303802406B
:1029A0000018024010B51348134B144C00224FF48A
:1029B00080410262C0E90043C0E90222C0E904127A
:1029C000C0E90622FEF79AF908B1FDF7DCFC0948D8
:1029D0000021FEF75BF908B1FDF7D5FC05480021A1
:1029E000FEF76FF9002814BFBDE8104010BDFDF7D9
:1029F000CABC00BFB0040020A086010000580040FF
:102A000080B50848084B002240F6FF71C0E900324B
:102A10008160FEF767FA002814BFBDE8804080BDE2
:102A2000FDF7B1BC0C0500200030004080B5B74870
:102A30000D4A4FF4827100234FF4007CC0E900215D
:102A40000A21C0E90233C0E90433C0E906C3C0E982
:102A50000833C0E90A31FFF7E3F9002814BFBDE8E5
:102A6000804080BDFDF78FBC0050014080B50A4812
:102A70000A4B00214FF6FF728161C0E90031C0E9C5
:102A800002120161FFF7F4FA002814BFBDE880408C
:102A900080BDFDF778BC00BFC409002000440140A0
:102AA000FEB51648164B00214FF6FF72CDE9041112
:102AB000CDE90211C0E90031C0E90212C0E90411F8
:102AC0008161CDE90011FFF7D3FA08B1FDF75BFC96
:102AD0004FF4805002A902900848FFF71BFB08B191
:102AE000FDF751FC00206946CDE900000348FFF7DF
:102AF0007BFA08B1FDF747FC06B080BD80090020D5
:102B0000000001401CB50D480D4A00244FF6FF712E
:102B10008461C0E90024C0E90241CDE90044FFF727
:102B2000A7FA08B1FDF72FFC04486946CDE9004437
:102B3000FFF75AFA08B1FDF726FC1CBD080A002071
:102B40000010004010B50B480B4C4FF4E13300214E
:102B50000C22C0E90043C0E90211C0E90412C0E937
:102B60000611FFF70FFC002814BFBDE8104010BD90
:102B7000FDF709BC240B00200078004010B5F44894
:102B80000A4C4FF4E13300210C22C0E90043C0E9B4
:102B90000211C0E90412C0E90611FFF7F3FB002897
:102BA00014BFBDE8104010BDFDF7EDBB007C004038
:102BB00010B50B480B4C4FF4E13300210C22C0E957
:102BC0000043C0E90211C0E90412C0E90611FFF791
:102BD000D9FB002814BFBDE8104010BDFDF7D3BBE2
:102BE0004C0A00200010014010B50B480B4C4FF46C
:102BF000E13300210C22C0E90043C0E90211C0E921
:102C00000412C0E90611FFF7BDFB002814BFBDE8A0
:102C1000104010BDFDF7B7BB940A002000480040EB
:102C200010B50B480B4C4FF4E13300210C22C0E9E6
:102C30000043C0E90211C0E90412C0E90611FFF720
:102C4000A1FB002814BFBDE8104010BDFDF79BBBE1
:102C5000DC0A00200014014080B50F480021022248
:102C6000C0E90B11C0E90621C0E90811C0E9032140
:102C700004214FF0A042C0E90021FEF709FD002821
:102C800014BFBDE8804080BDFDF77DBBFEE7FEE7D9
:102C90000148FEF7FDB900BF180500200000000044
:102CA000EFF30980BFF36F8F154B1A681EF0100FFA
:102CB00008BF20ED108A20E9F04F10602DE90900CF
:102CC0004FF0500080F31188BFF34F8FBFF36F8F29
:102CD00001F054F84FF0000080F31188BDE80900BE
:102CE00019680868B0E8F04F1EF0100F08BFB0EC8C
:102CF000108A80F30988BFF36F8F704700BF00BF51
:102D0000100000200148FFF709B800BF2409002087
:102D1000C06B0021C187C186FEF7FEBF0000000026
:102D2000074B19680868B0E8F04F80F30988BFF3D3
:102D30006F8F4FF0000080F31188704700BF00BF15
:102D400010000020012000F07AFCFBE780B5FEF7C0
:102D5000EDF801F02FF9012814BFBDE8804080BDD7
:102D600001F0ACB8B0B592B0002401A814210A94C7
:102D7000CDE90844FDF780FA224800940225016855
:102D800041F080510160006800F080500090009890
:102D900000941D48016841F440410160006800F45E
:102DA00040400090009807201190A82010950F90A7
:102DB00006200E904FF48000CDE90C5001200B90BE
:102DC0004FF4803007900920069006A8FEF720FEF9
:102DD00018B1EFF3108072B6FEE74FF48050052172
:102DE00005904FF4A05004900F20CDE902540190BB
:102DF00001A8FEF72BFD18B1EFF3108072B6FEE7C5
:102E000012B0B0BD40380240007000400548D0F814
:102E1000801041F47001C0F880104FF00061016033
:102E2000704700BF08ED00E00268B0F1804F0ED09F
:102E3000264B98420BD0264B984208D0254B9842FF
:102E400005D0254B984202D0244B984203D14B68C1
:102E500022F070021A43B0F1804F20D01B4B9842F1
:102E60001DD01B4B98421AD01A4B984217D01C4BBE
:102E7000984214D01B4B984211D01B4B98420ED055
:102E8000164B98420BD0144B984208D0174B9842DF
:102E900005D0174B984202D0164B984203D1CB680D
:102EA00022F440721A434B6922F080021A430A4B03
:102EB00002608A68C2620A68826240F480629A4252
:102EC00004BF0969016301214161704700040040AA
:102ED00000080040000C00400004014000000140D8
:102EE00000180040001C004000200040004001404D
:102EF0000048014000440140D0F820C0036A23F09C
:102F000001030362836923F0F00343EA0212826142
:102F10002CF00A02114301627047036A23F0100388
:102F20000362836923F4704343EA0232036A8261D5
:102F300023F0A00242EA0111016270470148FFF745
:102F40006DB900BF240B00200148FFF767B900BF2F
:102F50006C0B0020C06B0021C185C184FFF75DB9F7
:102F60000168CA6822F49072CA604A6922F00102BC
:102F70004A61202101647047016C222918BF704703
:102F80008168B1F5805F08D102680369816A52687F
:102F900083B1D2B221F8012B10E0026901684968BF
:102FA000002A826A02F10103836218BF01F07F01E7
:102FB000117004E06FF35F2221F8022B8162C18D52
:102FC0000139C185090400D070470168CA6822F040
:102FD0002002CA60CA6822F48072CA604A6922F07C
:102FE00001024A6120210164FFF79ABBF8B5074648
:102FF000006849F20C660169FA6821F440511143F6
:103000000161B968D7E90423FC69C568114325EA61
:103010000606B4F5004F41EA030141EA040141EA22
:103020000601C1604169BA6921F4407141EA0201B7
:103030004161254940F4806004D1884207D1FEF700
:10304000A9FC06E088421FD1FEF7A4FC1EE0FEF7B3
:1030500097FC7B681921A0FB01015A00DB0FFDF7EB
:10306000C1F864216FF06303B0FBF1F202FB0300CF
:10307000322303EBC000B0FBF1F14FF4F87000EA2B
:10308000410001F0070119E0FEF77AFC7B68192185
:10309000A0FB01019A009B0FFDF7A4F864216FF0DB
:1030A0006303B0FBF1F202FB0300322303EB0010D9
:1030B000B0FBF1F101F0F00001F00F0100EB0210A4
:1030C000084339688860F8BD001401400148FFF7E3
:1030D000A5B800BFDC0A0020D0F8001940F2FF724A
:1030E0009143C0F80019D0F8041841F48071C0F879
:1030F000041800207047000070B504460698049D2F
:10310000012817D1A16B194A0D9821F480310128AB
:10311000A163E16801EA0201E160E16821F4401184
:10312000E16002BFE06840F48010E060204600F0FB
:103130001FF80FE0E0680A9E40F04000E060204683
:1031400000F016F8A16B002E14BF21F4803141F479
:103150008031A163012D18BF70BDA16841F0060147
:10316000A160A16841F02001A16070BDBFFFBDFF5B
:10317000A3494FF0FF3201328A4212D80369B3F1FA
:10318000FF3FF8DC026942F0010202614FF0FF32BA
:1031900004E00369DB0704BF0020704701328A4264
:1031A000F7D90320704700BFD0F8001E21F00301BB
:1031B000C0F8001ED0F8041841F00201C0F804184D
:1031C000002070472DE9F84F8046DDF844A0DDE986
:1031D0000C07DDF828900D464121002202E048F856
:1031E000212001315029FAD1BAF1000F0AD0D8F8C4
:1031F000381021F40011C8F83810D8F8381041F40C
:10320000002115E0D8F8041841F00201C8F80418AC
:10321000D8F8381041F40011C8F83810D8F8381030
:1032200021F40021C8F83810D8F8381021F4802192
:10323000C8F83810002108F5006B0128C8F8001EF6
:10324000DBF80010CBF8001006D1DBF80000002BF3
:1032500018BF40F0010003E0DBF8000040F003007D
:10326000CBF800004046102100F0B8F80646404672
:1032700000F0A4F80021304308F510624FF67F33C8
:103280000026BC46CBF81010CBF81410CBF81C105D
:103290000EE04FF09047002E06F1010608BF4FF0F8
:1032A0000067146807EAE4771760116193602032C1
:1032B000B542EED108F5306100224FF67F3300268B
:1032C000002818BF01200EE04FF09047002E06F1B5
:1032D000010608BF4FF000670C6807EAE4770F604B
:1032E0000A618B602031B542EED1DBF81010B9F1E4
:1032F000000F21F48071CBF810104FF00001C8F8D6
:1033000018106FF08041C8F8141005D1D8F81810C3
:1033100041F01001C8F81810D8F818100C4ABCF188
:10332000000F41EA0201C8F818101EBFD8F81810A3
:1033300041F00801C8F81810BAF1010F05D1D8F80A
:103340001810044A1143C8F8181001B0BDE8F08FF6
:1033500000383C8004000040816821F00101816058
:103360000020704710B5036C134CA34203D3D0F870
:10337000003B002B1EDB00230129C0F8103BD0F8D6
:10338000103B43F40023C0F8103BD0F8103B43F04F
:103390001803C0F8103BD0F8103B43F0C043C0F80E
:1033A000103B07D1C0F8142BD0F8001B41F080214E
:1033B000C0F8001B002010BD0B30544F1021104AE4
:1033C00001614FF0FF310131914284BF032070470A
:1033D0000369DB065CBF00207047F4E78901084AF7
:1033E000203101614FF0FF310131914284BF032050
:1033F000704703699B065CBF00207047F4E700BF7D
:103400003F0D0300D0F8080810F0060004BF0020AC
:10341000704740F004010F20062908BF02207047C2
:10342000406900F001007047D0F81818D0F81C0867
:10343000084080B27047D0F81818D0F81C0808402F
:10344000000C7047D0F810C8D0F8343801F00F02E3
:1034500000EB4110D0F8080923FA02F2D201D2B2EF
:1034600042EA0C021040704700EB4111D1F8081BF2
:10347000D0F81408084070474169806908407047D7
:1034800003324FF4805C920804E050F80C30013AAB
:1034900041F8043B002AF8D108467047C268012968
:1034A00022F0C042C26003D069B94FF0804101E010
:1034B0004FF0005180B5C2681143C1603220FDF762
:1034C000FBFA002080BD012070470000022A34D1A1
:1034D000284A294B0A449A4202D24FF470512EE0F6
:1034E000264A274B0A449A4202D24FF4605126E002
:1034F000244A254B0A449A4202D24FF450511EE00E
:10350000224A234B0A449A4202D24FF4405116E019
:10351000204A214B0A449A4202D24FF430510EE025
:103520001E4A1F4B0A449A4202D24FF4205106E031
:103530001C4A1D4B0A449A420AD24FF41051C268E9
:1035400022F47052C260C2681143C160002070470B
:10355000164A174B0A449A4202D24FF40051EEE742
:10356000144A154B0A444FF4C0519A4238BF4FF4E5
:10357000E051E4E7405327FF00350C00401E1BFFDD
:1035800040420F0000DC0BFF804F1200808CF9FEE0
:1035900020D6130060B6E5FE60E3160000D3CEFE31
:1035A00040771B00C05BB3FEC091210000CA91FEB2
:1035B00020753800E05459FEE09C4100DDF800C061
:1035C000BCF1000F0DD103334FEA023C00F58050EF
:1035D0009B0804E051F8042B013B4CF80020002B21
:1035E000F8D100207047FEE7FDF7AAFCFFF7BAFB11
:1035F000FFF76AF9FFF702F9FFF702FAFFF7C2F8DF
:10360000FFF7E2F8FFF712FAFFF74AFAFFF77AFA44
:10361000FFF72CFAFFF704FBFFF7E6FAFFF7AEFA25
:10362000FFF782F8FFF7BEF9FFF78CFAFFF7C0FA51
:10363000FFF712FBFFF734F900F009F8FEE780B559
:10364000002808BF012000F03BFB002080BD80B5B2
:1036500000F05CFB002080BDBFB543698E468BB196
:1036600084697CB1D0E9001C85680269B5F18400E9
:1036700018BFE81C8DE819007346604600F060FC36
:10368000039013E0028AD0E90013806803ADB0F123
:10369000840418BFC41C18467346CDE9004500F0E9
:1036A00023FC01460398012918BF002004B0B0BDD7
:1036B000F8B5B34C05460E46676A2068043000F042
:1036C00021FA40B920680121C06A01FA00F061685E
:1036D00021EA00006060681C08D13EB154F8500B2C
:1036E000011D2046BDE8F84000F055BA2068ED19EC
:1036F000456006D3606B21680431BDE8F84000F0F6
:103700002DBA206B2168043100F028FA206A854226
:1037100038BF2562F8BD00BF2DE9F041044600F036
:1037200051FA974F386901303861386840B178698B
:1037300040BB3868E16AC06A884298BF3C6021E0BB
:103740003C60386901281DD1434E002503E0701903
:1037500000F0F6F914358C2DF9D1DFF870801C4D8E
:103760004046A84708F114063046A84707F1640010
:10377000A84707F13C00A84707F15000A847C7F841
:1037800030807E63B86801210130B860E06A7A68F1
:10379000814000EB8000114379602F4901EB8000EC
:1037A000211D00F0F8F900F029FA786960B1386855
:1037B000E16AC06A884207D228484FF08051016010
:1037C000BFF34F8FBFF36F8FBDE8F081A8000020DB
:1037D000413B000810B5044690F85100022808BF8C
:1037E00010BD012803D038B9206B00F01DFA204627
:1037F000BDE8104000F018BA4FF0500080F3118877
:10380000BFF36F8FBFF34F8FFEE700005C4D124E8A
:10381000124F4FF08058E86890B100F0D3F9A86CCF
:10382000C468201D00F06EF9286901382861E86835
:103830000138E86000F0E2F92046FFF7CBFFEAE745
:1038400030680228E7D3C7F800803846BFF34F8FAF
:10385000BFF36F8FDFE700BFB40B002004ED00E083
:103860002DE9F0470A9F824699460029386BDDE929
:10387000084800EB8200A0F1040020F007060ED0FB
:1038800007F1340000220F2A05D88B5C83548B5C2F
:103890000132002BF7D1002087F8430002E000201E
:1038A00087F83400381D0025062C28BF0624C7E9F8
:1038B0001145FC6200F04FF907F1180000F04BF9D8
:1038C00084F00700FD6451464A46B861304687F8E7
:1038D00050507F623F6100F003F93860B8F1000F8B
:1038E00018BFC8F80070BDE8F0870000DFF8A4C377
:1038F0000CF11002114612688242FBD380B5D1F858
:1039000004E001EB0E03834203D140687044486039
:103910000846D0F804E000EB0E03934207D1DCF830
:1039200004309A4203D053687344436012680260C3
:103930008142BDE8804018BF0860704708480068B1
:10394000006880F308884FF0000080F3148862B6A6
:1039500061B6BFF34F8FBFF36F8F00DF00BF00BFB3
:1039600008ED00E0E848016B096821B1016BC96806
:10397000C968496801E04FF0FF310162704700BF3C
:103980001000002081B000200090A64800684FF091
:10399000500181F31188BFF36F8FBFF34F8F013058
:1039A00000D0FEE700980028FCD001B0704700BFAF
:1039B0002DE9F041044600F0DBF9B64E706828B1FD
:1039C0003778002F18BF4FF0004724E0434F002006
:1039D0007061FB1D394617F0070223F0070318BF7B
:1039E00019463161002AA7EB03034FF4705718BF43
:1039F00003F57057CA19083A4FF0004722F0070242
:103A00007260C2E90000501A486072680A60C6E934
:103A10000200012030700025002C4ED017EA04006F
:103A20004BD104F1080111F007001EBFC0F10800DE
:103A300001445FEA417026D1D6F80880481E40450F
:103A40001FD2344654F8103F586822461C4688421C
:103A500002D22368002BF7D173689C4211D02368EF
:103A600015681360421A112A1BD36018430713D03C
:103A70004FF0500080F31188BFF36F8FBFF34F8F6B
:103A8000FEE7002519E04FF0500080F31188BFF3E6
:103A90006F8FBFF34F8FFEE742606160FFF726FF35
:103AA0006068A8EB000108353843B160F2689142C4
:103AB00038BFF1600021C4E9001000F0F5FA680792
:103AC00004BF2846BDE8F0814FF0500080F3118814
:103AD000BFF36F8FBFF34F8FFEE700BF400C002096
:103AE0006FF002034FF0807C21F0010140E90932C0
:103AF000034A40E9032140F804CC4438704700BF32
:103B000085390008D0E9013201699A608268536002
:103B10004B68834208BF4A6000220261086801388E
:103B20000860086870470000034B036003480860A2
:103B300080201060704700BF444A002044480020A5
:103B40000021024601604FF0FF3142F8081FC0E932
:103B500003224260704700210161704780B5D1F8AF
:103B600000C01CF1010207D000F10802964652681D
:103B700013686345FAD903E0D0F810E0DEF80420BA
:103B80004A609160C1F808E0CEF80410086101684D
:103B90000131016080BD42684A6093688B60936820
:103BA000596091600861016801310160704700004F
:103BB000DFF80C00016841F470010160704700BF3C
:103BC00088ED00E04FF0500080F31188BFF36F8F55
:103BD000BFF34F8FB74801684A1C0029026000D02C
:103BE0007047C04800680006FAD04FF0500080F3DC
:103BF0001188BFF36F8FBFF34F8FFEE7AD480168A9
:103C000039B10139016018BF7047002080F3118875
:103C100070474FF0500080F31188BFF36F8FBFF3F0
:103C20004F8FFEE70C00002070B5B8B1194E044666
:103C300050F8040C3178002918BF4FF000410142C0
:103C40000DD0A4F108052A6892B14FF0500080F31E
:103C50001188BFF36F8FBFF34F8FFEE770BD4FF03A
:103C6000500080F31188BFF36F8FBFF34F8FFEE7D3
:103C7000884344F8040C00F07BF854F8040CB16855
:103C80000844B0602846FFF731FEBDE8704000F000
:103C90000BBA00BF88000020074800214FF47A7259
:103CA0000160816005490968B1FBF2F101394160A9
:103CB00007210160704700BF10E000E0080000200D
:103CC000C8B1F8498A6942B14FF0500080F31188B9
:103CD000BFF36F8FBFF34F8FFEE780B58A69013264
:103CE0008A610021FFF7E4FC00F0DEF90028BDE85E
:103CF000804018BF70477B484FF080510160BFF390
:103D00004F8FBFF36F8F70471000002010B586B043
:103D1000002405A804A903AACDE90444FFF704FF81
:103D2000DDE9032005990023CDE900400D4802910B
:103D30000DA100F005F9DB490028C8610FD04FF054
:103D4000500080F31188BFF36F8FBFF34F8F4FF098
:103D5000FF300862012048614C6200F03BF806B079
:103D600010BD00BF0D38000849444C45000000005C
:103D7000CC48816901318161704700BFF948816990
:103D800011B10121816270470021F74A81624168C7
:103D9000B1FA81F1C9B2C1F11F0101EB810152F801
:103DA00021306BB102EB810252F8041F4968131DE8
:103DB0001160994204BF49681160C9680160704789
:103DC0004FF0500080F31188BFF36F8FBFF34F8F18
:103DD000FEE700BF1CB53348334902684B1C9A42CA
:103DE00008D14FF0500080F31188BFF36F8FBFF3FD
:103DF0004F8FFEE702688A4208D14FF0500080F3EF
:103E00001188BFF36F8FBFF34F8FFEE7274C072159
:103E1000025D0192FF220255254A035D51608DF833
:103E2000033006239DF8031001F05001117006E0E5
:103E30005360013B9DF8031049008DF803109DF974
:103E40000310B1F1FF3FF3DD022B21D14FF440719C
:103E5000516001990155016A41F470010162016AE2
:103E600041F070410162FFF717FF12480021016025
:103E7000FFF79EFE1048016841F040410160FFF7E6
:103E80005DFDFFF77BFFFFF77DFD002002B010BD59
:103E90004FF0500080F31188BFF36F8FBFF34F8F47
:103EA000FEE700BF00ED00E070C20F4100F7FFFF2A
:103EB000A00000200C00002034EF00E080B54FF09F
:103EC000500080F31188BFF36F8FBFF34F8F00F066
:103ED0007DF818B1A5484FF080510160002080F3B3
:103EE000118880BD04ED00E02DE9FE4307469000F7
:103EF000984615468946FFF75BFDE0B1064654201B
:103F0000FFF756FDA0B10446DDE90A100022434642
:103F100084F8512026632A46CDE9001038464946E8
:103F20000294FFF79DFC2046FFF7F6FB012004E01A
:103F30003046FFF779FE4FF0FF3003B0BDE8F08365
:103F400070B586B00B9CCCB10C9E06B3542504957D
:103F5000049D542D24D1049DDDF828C0022586F847
:103F6000515005AD3463CDE900C50296FFF778FCEA
:103F70003046FFF7D1FB059806B070BD4FF05000FA
:103F800080F31188BFF36F8FBFF34F8FFEE74FF0C1
:103F9000500080F31188BFF36F8FBFF34F8FFEE7A0
:103FA0004FF0500080F31188BFF36F8FBFF34F8F36
:103FB000FEE700006B48416900290FBF01208069BE
:103FC000B0FA80F0400918BF400070472DE9F04773
:103FD000644EB06920B1F06A00240130F06243E021
:103FE000706A10F1010AC6F824A044D0306A002497
:103FF00082452FD3DFF870914FF0010823E0306B3A
:10400000C068C7683D4655F8040F824521D328464D
:10401000FFF778FDB86A18B107F11800FFF772FDD5
:10402000F86A726808FA00F100EB8000114309EBAE
:10403000800071602946FFF7AEFDF86A3168C96AF1
:10404000884228BF4446306B00680028D7D14FF023
:10405000FF30306230684449C06A00EB800051F89C
:104060002000012888BF0124B06A002818BF01245D
:104070002046BDE8F087306B006840B14FF050003B
:1040800080F31188BFF36F8FBFF34F8FFEE7306B64
:10409000716B31637063B06B0130B063FFF762FC2A
:1040A000A4E700BF100000202DE9F0412D4DA869C4
:1040B00060B1FFF787FDA8690138A861A86970B1F0
:1040C0000024FFF79BFD2046BDE8F0814FF0500033
:1040D00080F31188BFF36F8FBFF34F8FFEE728691E
:1040E0000028EDD0DFF88080002601271CE0286F33
:1040F000C66806F11800FFF705FD341D2046FFF7DE
:1041000001FDF06A6A6807FA00F100EB80001143D4
:1041100008EB800069602146FFF73DFDF06A2968E1
:10412000C96A884228BFAF62686E0028DFD10EB12D
:10413000FFF718FCEC6A44B10126FFF747FF00B116
:10414000AE62013CF9D10020E862A86A0028B7D02D
:1041500006484FF0805101240160BFF34F8FBFF339
:104160006F8FAEE710000020B40B002004ED00E0DC
:1041700002E008C8121F08C1002AFAD17047704730
:10418000002001E001C1121F002AFBD1704700008E
:10419000C4410008452D0008000000000000000098
:1041A000800000000000000000000000000000008F
:1041B00000000000010203040607080900000000D7
:1041C0000102030464656661756C745461736B006D
:1041D000F0410008000000201000000070410008BD
:1041E0000042000810000020884E000080410008B6
:1041F00010000000010000000024F400AAAAAAAAEE
:04000005080001AD41
:00000001FF
