:020000040800F2
:10000000800D0020C1010008350F0008310F0008E5
:10001000330F0008090200089B1E000800000000C2
:10002000000000000000000000000000D10F0008E8
:100030006D02000800000000510F0008F50F0008D5
:10004000DB010008DB010008DB010008DB01000820
:10005000DB010008DB010008DB010008DB01000810
:10006000DB010008DB010008DB010008DB01000800
:100070000D020008DB01000819020008DB0100087E
:10008000DB01000825020008DB010008DB01000895
:10009000DB010008DB010008DB010008DB010008D0
:1000A000DB010008DB010008DB010008DB010008C0
:1000B000DB010008DB010008DB010008DB010008B0
:1000C000DB010008DB010008DB010008DB010008A0
:1000D000DB010008DB010008DB010008DB01000890
:1000E000DB010008DB010008DB010008DB01000880
:1000F000DB010008DB010008DB010008DB01000870
:10010000DB010008DB010008DB010008DB0100085F
:10011000DB010008DB010008DB010008DB0100084F
:10012000DB010008310200083D0200084902000816
:1001300055020008DB010008DB010008DB010008B4
:10014000DB010008DB010008DB010008390F0008B3
:10015000DB01000861020008DB010008D91000087B
:10016000DB010008DB010008DB010008DB010008FF
:10017000DB010008DB010008DB01000800000000D3
:10018000DB010008DB010008291000083510000819
:10019000DB010008B50F0008DB010008DB010008E7
:1001A0000000000000000000DB010008DFF80CD0B8
:1001B00000F018F8004800479D1E0008800D002040
:1001C0000648804706480047FEE7FEE7FEE7FEE7F1
:1001D000FEE7FEE7FEE7FEE7FEE7FEE70D1000089C
:1001E000AD010008064C074D06E0E06840F0010351
:1001F00094E8070098471034AC42F6D3FFF7DAFFD3
:1002000094200008B4200008FEE70000014800F038
:1002100043B800BF1C020020014800F03DB800BFF9
:1002200080020020014800F037B800BF54010020D0
:10023000014800F031B800BFE4020020014800F09E
:100240002BB800BFB8010020014800F025B800BF5E
:100250008C000020014800F01FB800BFF000002013
:10026000014800F019B800BF480300207047EFF3C1
:10027000108072B6FEE7816B022908D105218163E7
:100280000068016821F001010160002070478021B1
:100290008165012070470000F8B504460020082160
:1002A000009054480568D4E91760376881403942A6
:1002B0000CD0226813685B0708D5136823F0040389
:1002C0001360B160A16D41F00101A1650121814080
:1002D000394208D022685269120604D5B160A16D76
:1002E00041F00201A16504218140394208D0226811
:1002F0001268920704D5B160A16D41F00401A165B7
:1003000010218140394217D020680268120713D5A6
:10031000B16002680168520306D4C9055EBF016876
:1003200021F00801016001E0080301D4616C00E0E4
:10033000E16C09B120468847216E202000FA01F2C5
:100340003A4236D020680368DB0632D5B260A36B30
:100350000268052B17D122F016020260426922F0D2
:1003600080024261626C0AB9E26C1AB1026822F042
:10037000080202603F208840B0600120A063002096
:100380006063616D32E0016852030AD4C9050CD480
:10039000016821F0100101600120A063002060636A
:1003A00003E0080301D4A16C00E0216C09B12046F0
:1003B0008847A06DE8B1A06DC00716D005214FF4A5
:1003C0001650A163B5FBF0F021680A6822F0010223
:1003D0000A60009A01328242009202D80A68D2076B
:1003E000F7D10120A06300206063216D09B1204690
:1003F0008847F8BD080000200348044940680A689F
:1004000010440860704700BF0000002078090020F9
:100410007047D0F8080400F04ABFC1EBC10200EBFE
:100420008202D0F80804926C00F0BDBEC1EBC1029C
:1004300000EB8202D0F80804D2F8082200F004BFD2
:10044000D0F8080400F035BFB0B5044601F00F0045
:100450006268904201D9012524E0090609D4C0EB65
:10046000C001002204EB810181F8FD2101F5FE713C
:1004700007E0C0EBC001012204EB810181F83D20BF
:100480003C31002508708D70D4F8BC03012801D1DF
:10049000022507E00120C4F8BC03206801F012FB2C
:1004A000C4F8BC532846B0BD10B5044601F00F0097
:1004B000090609D4C0EBC00104EB810C00218CF8C3
:1004C000FD110CF5FE7108E0C0EBC00104EB810CDE
:1004D00001218CF83D100CF13C018A60CB70087052
:1004E0004A7802B1C880022B04BF00200871D4F8FA
:1004F000BC03012804BF022010BD0120C4F8BC03C6
:10050000206801F0E5F90020C4F8BC0310BD80B5F7
:1005100001F00F0CCCEBCC0100EB810E0021CEE9F9
:100520008431CEF808228EF8FD118EF8FCC10EF54C
:10053000FE710369012B08BFCEF80C22DAB2006805
:10054000BCF1000F02D001F0F1FA01E001F016FA5F
:10055000002080BDB0B50446406801F00F0585421B
:1005600084BF0120B0BD080609D4C1EBC100002141
:1005700004EB800080F8FD1100F5FE7108E0C5EB8A
:10058000C500012104EB800080F83D1000F13C0122
:1005900001200D708870D4F8BC23012A04BF02200A
:1005A000B0BDC4F8BC03206801F0A4FA2DB9217CC9
:1005B000206804F5727201F059FA0020C4F8BC03F7
:1005C000B0BD10B501F00F0C0024CCEBCC0100EB5A
:1005D000810E714601F83CCFC1E905340123CA60A0
:1005E0004B700369012B08BFCEF84C20DAB20068CB
:1005F000BCF1000F02D001F099FA01E001F0BEF960
:10060000002010BD2DE9F04F87B0046881462046D8
:1006100001F068FB10B107B0BDE8F08FD9F8000019
:1006200001F08CFB0028F6D0D9F8000001F086FB21
:100630000146D9F80000890742BF416901F0020173
:10064000416101F07BFB0146D9F800000494C90622
:100650003FD5816921F010018161246AC4F34340D0
:1006600004F00F0506281CD002282BD147F6F070A5
:10067000044027D0C5EBC500220909EB800504988A
:10068000D5F8081201F05EFBD5F80802D5F814126F
:1006900000EB1410C5F8080201EB1410C5F81402A1
:1006A00010E0049809F57271082201F04BFBC5EBCC
:1006B000C50009EB8000D0F81412C4F30A121144EB
:1006C000C0F81412D9F80000816941F0100181616D
:1006D000049C01F033FB000340F1C280D9F8000014
:1006E00001F00BFB064609F5727009F5057A002545
:1006F0004FF430680690002E00F0B280F00700F052
:100700008C805FFA85FBD9F80000594601F00EFB9A
:100710000746C00748D004EB080001218160D9F8E2
:10072000000008EB0001036C8A68D9F81040012C26
:1007300010D114071AD4940633D4049C12F0280F55
:1007400032D1E44CA3426FD312F400426CD04FF488
:10075000004027E0DF4CFF34A34212D1049C100478
:100760000BD4900644BF2020886015E0D948049C33
:10077000834219D312F4004016D04FF40040886031
:1007800012E0049CB8F5306F06D1D9F8101219B9EF
:10079000069A002101F06AF948465946FFF746FEDD
:1007A00002E020208860049C380723D504EB080071
:1007B0000821C84B8160D9F80010013B0A6C08EB96
:1007C000010081689A4212D9090444BF4FF40041E4
:1007D0008160484600F04BFAD9F81000012809D191
:1007E000D9F80000069A012101F040F902E04846DC
:1007F00000F03DFAF80642BF04EB080010218160CA
:10080000B80642BF04EB080020218160B80442BF53
:1008100004EB08004FF4005181600AF11C0A08F152
:1008200020087608013566E75AE904230969B8F516
:10083000306F6FF3DF41A2EB0101CAF8001003EB48
:1008400002014AF80C1C06D1D9F8101219B9069AFF
:10085000012101F00BF948465946FFF7E7FDA2E7F1
:10086000D9F8000001F06AFA400340F1B480D9F8E9
:10087000000001F03BFA064609F5727004F51067B6
:10088000002301900297A3E0F00700F09F80D9F8C1
:100890000000D9B20593069101F036FA0546C0076B
:1008A00029D0059B0122D4F8341803F00F0002FA76
:1008B00000F021EA0000C4F8340807EB431082601E
:1008C000D9F81000012812D1C3EBC300002B09EBAB
:1008D0008000D0E911121144816408D1D9F8500088
:1008E00028B9D9F80000019A012101F0BFF8069952
:1008F0004846FFF792FD2807059B42BF07EB4310D0
:1009000008218160E80642BF07EB43101021816097
:10091000680642BF07EB431040218160A80742BF31
:1009200007EB43100221816028064FD5C3EBC300BB
:1009300009EB800AD3465BF8500FD84658F8042FCD
:10094000904243D3D9F800505AF8441F841A0396B2
:100950004F468C4288BF0C4605EB43110AF1040652
:1009600001F5106917E03C7CDAF80030316800943A
:10097000841A28469C4288BF1C46069AA3B201F0FE
:1009800077FA306820443060D8F800000219C8F8BF
:100990000020DBF80000D9F81830E11C9BB2B3EB63
:1009A000910F28BF9042DED8B946DDE90276DDE935
:1009B000044390420AD803F00F00012101FA00F02D
:1009C000D5F8341821EA0000C5F834087608013358
:1009D000002E7FF459AFD9F8000001F0AFF90028DC
:1009E00002DBD9F800001AE0D4F8040820F0010076
:1009F000C4F80408D9F8F803012807D10020002121
:100A0000C9F8F8034846FFF703FD02E0484600F046
:100A100012F9D9F80000416901F00041416101F08B
:100A20008DF9000502D4D9F800000CE0D4F80808CC
:100A3000C00702D0484600F021F9D9F8000041690A
:100A400001F40061416101F079F9C00402D4D9F8E0
:100A500000005EE0D4F80408102120F00100C4F882
:100A60000408D9F8000001F01BF9D9F8042004F5B6
:100A7000106104F500604FF67F3318E08B60013A97
:100A80000F6827F400170F600F6847F000670F60CA
:100A9000C1F80832D1F8007227F40017C1F80072CB
:100AA000D1F8007247F00067C1F800722031002AC7
:100AB000E4D1C16941F00111C161D9F8301059B1D7
:100AC000D0F8841041F00B01C0F8841000F144010B
:100AD00009E000BF0B30544F416942F22B02114331
:100AE000416100F110010A6842F00B020A6009F549
:100AF0007272016821F4FE61016099F81010D9F852
:100B0000000000F0B3FFD9F80000416901F4805102
:100B1000416101F013F90146D9F8000089041AD5A2
:100B200000F01CFFD9F8000001F0CEF8C9F80C0065
:100B3000D9F8005000F0BAF899F80C200146284680
:100B400001F01EF9484600F063F8D9F80000416949
:100B500001F40051416101F0F1F8000702D4D9F825
:100B6000000008E0484600F06AF8D9F80000416942
:100B700001F00801416101F0E1F8C00202D4D9F8A6
:100B8000000009E04846002100F03AF8D9F80000DA
:100B9000416901F48011416101F0D0F8800202D472
:100BA000D9F8000009E04846002100F02DF8D9F8F6
:100BB0000000416901F40011416101F0BFF84000FB
:100BC00002D4D9F8000008E04846FFF722FCD9F823
:100BD0000000416901F08041416101F0AFF8400738
:100BE0007FF519ADD9F800004468610704D548467F
:100BF000FFF726FCD9F800004168214341600AE56F
:100C0000D0F8080400F073BBD0F8080400F071BB02
:100C100010B5C168044621B1022901D0FFF727FBB6
:100C20000121D4F8080400F0BCFBD4F80804BDE8A6
:100C3000104000F075BBD0F8080400F09ABBD0F863
:100C4000080400F0A0BB10B50446D0F8BC0301288E
:100C500004BF022010BD012084F83810C4F8BC0382
:100C6000206801F07DF80020C4F8BC0310BDD0F866
:100C7000082400F57271104600F09FBB10B50446C1
:100C8000D0F8080400F0D0FB2068D0F8001E41F036
:100C90000101C0F8001E206A20B10348016841F03C
:100CA0000601016010BD00BF10ED00E001480068C2
:100CB000704700BF08000020704700001CB50446C4
:100CC0000068416882684B0605D502F04103012B9C
:100CD00001D1216C05E00B0607D512F0020304D008
:100CE000616C2046BDE81C4008478B065FD512F4B6
:100CF000B0735CD012F0400315D0636D032B07D1A5
:100D000000210191C16801918068019001984EE035
:100D1000A36D43F00403A36500230193C36801930B
:100D200083680193019B02F4807312F020020CD0BF
:100D3000A26D42F00102A265002201928268019236
:100D4000026822F040020260019A43B1A26D42F0B3
:100D50000802A2650022019282680192019AA26DA6
:100D60002AB34268890722F0E00242604FF0010294
:100D700062651DD0416821F003014160E06C40B123
:100D80000E494165FFF777FA18B1A06D40F04000B9
:100D9000A065A06C58B109494165FFF76CFA0028BD
:100DA00008BF1CBDA06D40F04000A0651CBD1CBD6F
:100DB0002046BDE81C40FFF77FBF00BFC10F000801
:100DC0007047000010B5D0F800E00446DEF80010CF
:100DD000DEF80C20DEF814305FEA017C53D002F418
:100DE000907003F00103C01855D0C8071FBF12F45C
:100DF0008070606C40F001006064480704D51BB14E
:100E0000606C40F002006064880704D51BB1606C20
:100E100040F004006064BCF1000F07D502F0200030
:100E2000C0181EBF606C40F008006064606C002851
:100E30006CD002EA0100800604D5204600F012F9C9
:100E4000D4F800E0DEF81400616C00F0400001F01E
:100E5000080140184AD0204600F0F8F8206841699F
:100E600049063ED5416921F040014161606BC0B344
:100E70002D494165FFF7FFF9002847D0606B416DB0
:100E8000BDE81040084711408A0605D52046BDE858
:100E9000104000F0E7B8114008060ED4480635D5DA
:100EA000DEF80C0020F04000CEF80C002020E063BB
:100EB0002046BDE8104000F03AB8E06B212825D16B
:100EC000A068216AB0F5805F16D108886FF35F20B3
:100ED000CEF804002069002814BF481C881C20623A
:100EE0000FE02046BDE81040FFF76ABF2046FFF73D
:100EF00067FF0020606410BD481C20620878CEF8AF
:100F00000400E08C0138E084000400D010BDDEF85D
:100F10000C0020F08000CEF80C00DEF80C0040F051
:100F20004000CEF80C0010BD41100008704770471B
:100F3000FEE7FEE7FEE700000148FFF763BB00BFE6
:100F4000AC030020000000000000000000000000D2
:100F5000EFF30980BFF36F8F154B1A681EF0100F67
:100F600008BF20ED108A20E9F04F10602DE909003C
:100F70004FF0500080F31188BFF34F8FBFF36F8F96
:100F800000F0BAFF4FF0000080F31188BDE80900BF
:100F900019680868B0E8F04F1EF0100F08BFB0ECF9
:100FA000108A80F30988BFF36F8F704700BF00BFBE
:100FB000100000200148FFF781BE00BFB8070020E5
:100FC000C06B0021C187C186FFF776BE000000001C
:100FD000074B19680868B0E8F04F80F30988BFF341
:100FE0006F8F4FF0000080F31188704700BF00BF83
:100FF0001000002080B5FFF7FFF900F0BFFF0128C7
:1010000014BFBDE8804080BD00F0A2BF0548D0F805
:10101000801041F47001C0F880104FF00061016051
:10102000704700BF08ED00E00148FFF7CBBE00BFEE
:101030005C0800200148FFF7C5BE00BFA4080020DF
:10104000C06B0021C185C184FFF7BABE0168CA68C0
:1010500022F49072CA604A6922F001024A6120219A
:1010600001647047016C222918BF70478168B1F58F
:10107000805F08D102680369816A526883B1D2B285
:1010800021F8012B10E0026901684968002A826A90
:1010900002F10103836218BF01F07F01117004E0C7
:1010A0006FF35F2221F8022B8162C18D0139C18566
:1010B000090400D070470168CA6822F02002CA60A3
:1010C000CA6822F48072CA604A6922F001024A6149
:1010D00020210164FFF72ABF0148FFF773BE00BF5C
:1010E00014080020D0F8B82222B180B55268904789
:1010F000BDE880400020704780B513460A460021B5
:1011000000F005F9002080BD80B513460A46002195
:1011100000F093F9002080BD10B58021044600F056
:101120007AF920460021BDE8104000F074B980B57E
:10113000052100220023C0F89412002100F0E7F8F6
:10114000002080BD80B513460A460221C0E906335F
:10115000C0F89412002100F070F9002080BD80B525
:10116000042100220023C0F89412002100F065F948
:10117000002080BD03288EBF032002A151F820006B
:10118000704700BF000000000300000001000000E5
:101190000300000080B5D0F8C402FFF755F9BDE8A0
:1011A0008040FFF7E7BFB0B5044661B1D4F8B8029C
:1011B000426932B194F89C02032802D1204690473C
:1011C000B0BD0320B0BDD4F89402022833D1D4E9D5
:1011D000070188420DD9431A114620461A46E36199
:1011E000FFF792FF204600210022002300F08FF835
:1011F00021E00FD1A16981420CD3D4F89802814239
:1012000008D22046002100220025FFF77DFFC4F808
:101210009852E7E7D4F8B802C16829B194F89C0263
:10122000032801D1204688472046802100F0F3F8AA
:101230002046FFF77CFF94F8A0120020012904BF8C
:1012400084F8A002B0BDB0BD10B5044661B1D4F8B9
:10125000B802826932B194F89C02032802D1204678
:10126000904710BD032010BDD4F8940203281CD170
:10127000D4E9570398420BD9C01A1146C4F85C014F
:10128000984238BF034620461A46FFF735FF0CE068
:10129000D4F8B802016929B194F89C02032801D15D
:1012A000204688472046FFF75AFF002010BD002047
:1012B0007047012180F89C12D0F8B8222AB180B57D
:1012C000017952689047BDE880400020704701F0E6
:1012D0007F02D0F8C4020906C2EBC20200EB820012
:1012E00000F13E0258BF00F5FF72107870470020F1
:1012F00070470020704780B59446D0F8C4021A4663
:101300006346FFF7D1F8BDE88040FFF733BF80B5F3
:10131000D0F8C402FFF7FBF8BDE88040FFF72ABF12
:1013200070B5044600200125C4F8940284F89C524C
:10133000C4F8A4026060D4F8BC0228B1D4F8B802A2
:101340000021426820469047204600210022402389
:101350004026FFF7D0FF2046802100224023A4F83A
:101360006451C4F86061FFF7C6FF0020A5842662BF
:1013700070BD90F89C12042904BF90F89D1280F86B
:101380009C120020704790F89C12032907D1D0F8D6
:10139000B812C96919B180B58847BDE880400020FE
:1013A000704701610020704780B5D0F8C402FFF794
:1013B0004AFCBDE88040FFF7DDBEB0B500F2AA25CB
:1013C0000446284600F042F8B4F8B0120120C4E9FF
:1013D000A50194F8AA0200F01F01022908D00129F2
:1013E0000CD089B920462946BDE8B04000F042B88B
:1013F00020462946BDE8B04000F098B9204629466D
:10140000BDE8B04000F03EBA00F080012046BDE8E3
:10141000B040AFF3008080B5D0F8C402FFF79AF86F
:10142000BDE88040FFF7A6BE90F89C12042280F829
:101430009C2280F89D120020704780B5D0F8C4022D
:10144000FFF7BFF8BDE88040FFF794BE0A7802704E
:101450004A7842704A8842808A888280C988C180DE
:101460007047D0F8B8221AB180B51268904780BD95
:1014700003207047BCB5044608780D4610F06000A4
:101480000CD0402802D0202840F04381D4F8B80284
:10149000294682682046904705463EE1687809283B
:1014A00000F23781DFE810F00A00200035012E003D
:1014B00035015200730035013600480094F89C0253
:1014C0000138022800F22581E888022840F02181B5
:1014D000D4F8A40203222146002808BF012241F8C3
:1014E0000C2F2046022211E194F89C0201380228B8
:1014F00000F20F8168880025012840F00E81C4F8B1
:10150000A452D4E06888012840F006810120C4F884
:10151000A40205E1E888012840F0FB8094F89C02D1
:10152000411E02295DD2002521462046012241F8B4
:10153000085FFFF707FEF0E068887B4DC1B22870B6
:1015400002293AD32046FFF7E7FDA6E0A888002845
:1015500040F0DF80E888002840F0DB8068887F2842
:1015600000F2D78094F89C12032900F0D28000F09A
:101570007F052046294684F89E52FFF715FF204636
:10158000FFF7EDFD002D14BF0220012097E00020A1
:101590004FF0FF31ADF80600688801EB10210629F5
:1015A00000F2B780DFE801F0044E24B5B55B6500BA
:1015B000D4F8B41220690A6899E094F89C020328D0
:1015C00023D0022862D1002900F0AA802046616061
:1015D000FFF747FF00286ED005462046FFF79CFD29
:1015E0009BE0032840F09580211D204601228DE0DC
:1015F000C0B2052800F28D80DFE800F00364686C5B
:101600007074D4F8B40242686FE0002947D0606873
:10161000884200F08580C1B22046FFF763FD29783B
:1016200020466160FFF71DFF002879D0054620465F
:10163000FFF772FD21792046FFF754FD022084F860
:101640009C026AE02169D4F8B80200290CBF816AC3
:10165000C16A0DF1060088470146022014E02069A6
:10166000002856D1D4F8B802416B0DF10600884726
:1016700040E0206900284CD1D4F8B802016B0DF18C
:101680000600884701460720487034E02046FFF7EF
:1016900043FD29782046FFF725FD03253DE0002581
:1016A0000220656084F89C022046FFF71BFD20465F
:1016B000FFF755FD31E02046FFF751FD032084F888
:1016C0009C0229E0D4F8B40282680EE0D4F8B40297
:1016D000C2680AE0D4F8B402026906E0D4F8B402A1
:1016E000426902E0D4F8B402826992B120690DF136
:1016F000060190470146EA8892B1BDF8060040B164
:10170000904238BF0246ADF806202046FFF71AFD8A
:1017100002E02046FFF700FD0025284602B0B0BDDC
:101720002046FFF71CFDF7E788000020B0B504460F
:1017300008780D4610F060000BD0402801D020281A
:101740003ED1D4F8B8022946826820469047054623
:101750003AE068782979B0B1012827D003282FD141
:1017600094F89C02032825D1688840B941F0800094
:10177000802804D0E88810B92046FFF74CFE2046A8
:10178000FFF7EDFC1FE094F89C0203281ED002280E
:1017900016D100295AD0802912D101F07F0000EB28
:1017A000800004EB800000F1140157E094F89C02E3
:1017B000032820D0022803D141F0800080282CD1BA
:1017C0002046FFF7A9FC00252846B0BD01F00F0018
:1017D0000A0600EB800004EB800026D4B0F8640118
:1017E0000028EDD001F07F0000EB800004EB8000CA
:1017F00000F5AA7524E068880028E4D1480602D0E4
:101800002046FFF7C7FC2046FFF7A9FCD4F8B80232
:101810002946826820469047D5E72046FFF7FBFD22
:1018200020468021FFF7F7FDCDE7808C0028C7D048
:1018300001F07F0000EB800004EB800000F1140554
:1018400041F08000802810D1002014E001F07F00DA
:1018500000EB800004EB800000F5AA710025204613
:1018600002220D60FFF76EFCAEE72046FFF72FFD6A
:101870000028E9D001202860204629460222FFF7EF
:1018800061FCA0E7B0B5044608780D4610F0600092
:1018900018BF402815D194F89C020138022812D8AC
:1018A000A88810F0FE0F0ED1D4F8B802294682683D
:1018B0002046904758B9E98849B92046FFF74FFCC0
:1018C00004E02028E7D02046FFF726FC0020B0BD2A
:1018D00080B591F800C091F801E001220CF00F03EF
:1018E000BEF1010F02FA03F31AD1D0F81C281A43F3
:1018F0004FEA4C13C0F81C2800F51060C2581204BF
:1019000027D491F803E089681A586FF3DF2141EA80
:101910008C511143104A41EA8E411143195018E08D
:10192000D0F81C2842EA0342C0F81C284FEA4C12A7
:1019300000F5306083581B040BD491F803C089680C
:1019400013586FF3DF211943034B41EA8C411943CC
:101950001150002080BD00BF00800010D0F8001999
:1019600040F2FF729143C0F80019D0F8041841F416
:101970008071C0F8041800207047000070B54B78E3
:1019800091F800C0012B21D100EB4C14D1F814E0E8
:10199000354D04F51063D4F81069324CBEF1000FD8
:1019A00039D035401D611D69254004F100541D6189
:1019B0008D68AE4584BF4D61AE4604EA0E041D69D4
:1019C00045F400251D611D692C432FE000EB4C10F0
:1019D000244CD0F8103B6FF31203C0F8103BD0F842
:1019E000103B6FF3DC43C0F8103B00F530634E69E9
:1019F000886806B148611E69012A46F400261E6106
:101A000004F1005600EA06001E6940EA060018616B
:101A100012D1C8680EE026404FF0000E1E611E690C
:101A200046F400261E611E6906EA0504012A1C61AF
:101A300009D1086900B158614FF0044118680843A2
:101A40001860002070BD1968BEF1000F41F004411C
:101A50001960F6D00CF00F01012200F6340302FAEF
:101A600001F1EBE7FFFF07E00000F8FF10B5036CA2
:101A7000134CA34203D3D0F8003B002B1EDB002302
:101A80000129C0F8103BD0F8103B43F40023C0F804
:101A9000103BD0F8103B43F01803C0F8103BD0F8CF
:101AA000103B43F0C043C0F8103B07D1C0F8142BE3
:101AB000D0F8001B41F08021C0F8001B002010BDB1
:101AC0000B30544F0A784B785201012B14BF00F5AC
:101AD000306000F51060835823F400138350C978F8
:101AE00001F0FE01022902BF115841F0805111504E
:101AF000002070470A784978012900EB421119BF8C
:101B000001F53060D1F8001B01F51060D1F8001923
:101B10002AB1002903DB016821F0804101600168DE
:101B200041F400110160002070470000BCB54B7803
:101B300091F800C0012B2ED100EB4C14D1F814E029
:101B400004F51063D4F81049BEF1000F49D06FF3CB
:101B500012041C611C696FF3DC441C618C680EEB81
:101B60000405013DB5FBF4F44C4D05EAC4441D6980
:101B70002C4375461C616FF3DF451C692C431C61C7
:101B8000CC78012C38D11C6924F0C0441C611C693C
:101B900044F000542FE000EB4C13D3F8105B6FF3CC
:101BA0001205C3F8105BD3F8105B6FF3DC45C3F884
:101BB000105B03F530634C69D1F808C0D4B304EB73
:101BC0000C05364C013DB5FBFCF504EAC54E1C691D
:101BD000ADB205FB0CFC44EA0E046FF3DF4C1C6154
:101BE00030E06FF3DC441C611C6944F400241C6188
:101BF0001C696FF312041C61012A01D10A6928E0F3
:101C00001C6844F004441C60CC78012C38D1D0F816
:101C10000848E4054FF0805458BF4FF000541D6849
:101C20002C431C601FFA8EF3C9680092624600F0D4
:101C30001FF922E01D696FF3DF4C45EA0C054FF4F4
:101C4000002C1D611D69012A45EA0C051D6102D1A8
:101C5000CA6802B15A61C97801290AD1D0F80808C6
:101C6000C0054FF0805058BF4FF00050196808432E
:101C70001860186840F004401860002002B0B0BD41
:101C8000BEF1000FF9D00CF00F01012202FA01F1B0
:101C9000D0F834281143C0F83418EEE70000F81FDC
:101CA0008901084A203101614FF0FF310131914231
:101CB00084BF0320704703699B065CBF0020704708
:101CC000F4E700BF3F0D0300D0F8080810F006004D
:101CD00004BF0020704740F004010F20062908BF10
:101CE00002207047406900F001007047D0F81818D2
:101CF000D0F81C08084080B27047D0F81818D0F807
:101D00001C080840000C7047D0F810C8D0F83438D0
:101D100001F00F0200EB4110D0F8080923FA02F29B
:101D2000D201D2B242EA0C021040704700EB4111DE
:101D3000D1F8081BD0F81408084070474169806941
:101D40000840704703324FF4805C920804E050F87A
:101D50000C30013A41F8043B002AF8D1084670479C
:101D6000D0F8002801F07F0122F4FE62C0F80028BC
:101D7000D0F8002842EA0111C0F80018002070478E
:101D8000022A34D1284A294B0A449A4202D24FF4FB
:101D900070512EE0264A274B0A449A4202D24FF451
:101DA000605126E0244A254B0A449A4202D24FF45D
:101DB00050511EE0224A234B0A449A4202D24FF469
:101DC000405116E0204A214B0A449A4202D24FF475
:101DD00030510EE01E4A1F4B0A449A4202D24FF481
:101DE000205106E01C4A1D4B0A449A420AD24FF485
:101DF0001051C26822F47052C260C2681143C160BF
:101E000000207047164A174B0A449A4202D24FF4F8
:101E10000051EEE7144A154B0A444FF4C0519A4260
:101E200038BF4FF4E051E4E7405327FF00350C0082
:101E3000401E1BFF40420F0000DC0BFF804F1200D2
:101E4000808CF9FE20D6130060B6E5FE60E3160034
:101E500000D3CEFE40771B00C05BB3FEC0912100D3
:101E600000CA91FE20753800E05459FEE09C410004
:101E7000DDF800C0BCF1000F0DD103334FEA023C86
:101E800000F580509B0804E051F8042B013B4CF80E
:101E90000020002BF8D100207047FEE7FEE700008D
:101EA0007248016B096821B1016BC968C96849684A
:101EB00001E04FF0FF310162704700BFD0E901320D
:101EC00001699A60826853604B68834208BF4A6028
:101ED000002202610868013808600868704742689B
:101EE0004A6093688B6093685960916008610168EB
:101EF00001310160704700005C48816911B1012126
:101F00008162704700215A4A81624168B1FA81F1C9
:101F1000C9B2C1F11F0101EB810152F821306BB14F
:101F200002EB810252F8041F4968131D11609942A7
:101F300004BF49681160C968016070474FF05000E4
:101F400080F31188BFF36F8FBFF34F8FFEE700BFA1
:101F500080B54FF0500080F31188BFF36F8FBFF34F
:101F60004F8F00F017F818B103484FF0805101600F
:101F7000002080F3118880BD04ED00E03B484169FA
:101F800000290FBF01208069B0FA80F0400918BF16
:101F9000400070472DE9F047344EB06920B1F06A37
:101FA00000240130F06243E0706A10F1010AC6F8C3
:101FB00024A044D0306A002482452FD3DFF8B090AB
:101FC0004FF0010823E0306BC068C7683D4655F804
:101FD000040F824521D32846FFF770FFB86A18B175
:101FE00007F11800FFF76AFFF86A726808FA00F153
:101FF00000EB8000114309EB800071602946FFF778
:102000006EFFF86A3168C96A884228BF4446306B5F
:1020100000680028D7D14FF0FF3030623068144993
:10202000C06A00EB800051F82000012888BF01241D
:10203000B06A002818BF01242046BDE8F087306B45
:10204000006840B14FF0500080F31188BFF36F8FEC
:10205000BFF34F8FFEE7306B716B31637063B06B12
:102060000130B063FFF71CFFA4E700BF10000020A1
:10207000EC08002002E008C8121F08C1002AFAD1AB
:1020800070477047002001E001C1121F002AFBD1F8
:1020900070470000B8200008000000201000000079
:1020A00074200008C820000810000020700D0000F7
:1020B0008420000800000000100000000100000063
:0820C0000024F4000000000000
:04000005080001AD41
:00000001FF
