:020000040800F2
:100000000000032071670008E10C0008E30C000801
:10001000E50C0008E70C0008E90C000800000000EF
:10002000000000000000000000000000115900085E
:10003000EB0C000800000000B1590008ED0C0008AE
:10004000C1670008C1670008C1670008C1670008F0
:10005000C1670008C1670008C1670008C1670008E0
:10006000C1670008C1670008C1670008C1670008D0
:10007000050D0008C1670008150D0008C1670008DC
:10008000C1670008250D0008C1670008C1670008A6
:10009000C1670008C1670008C1670008C1670008A0
:1000A000C1670008C1670008C1670008C167000890
:1000B000C1670008C1670008C1670008C167000880
:1000C000C1670008C1670008C1670008C167000870
:1000D000C1670008C1670008C1670008C167000860
:1000E000C1670008C1670008C1670008C167000850
:1000F000C1670008C1670008C1670008C167000840
:10010000C1670008C1670008C1670008C16700082F
:10011000C1670008C1670008C1670008C16700081F
:10012000C1670008350D0008450D0008550D000891
:10013000650D0008C1670008C1670008C1670008B5
:10014000C1670008C1670008C1670008750D000895
:10015000C1670008850D0008C1670008950D0008FB
:10016000C1670008C1670008C1670008C1670008CF
:10017000C1670008C1670008C167000800000000EF
:10018000C1670008C1670008A50D0008B50D00088B
:10019000C1670008C50D0008C1670008C1670008F5
:0C01A0000000000000000000C167000823
:1001B00010B5054C237833B9044B13B10448AFF3A1
:1001C00000800123237010BDC4090020000000003E
:1001D0001072000808B5034B1BB103490348AFF385
:1001E000008008BD00000000C8090020107200084F
:1001F00053B94AB9002908BF00281CBF4FF0FF318E
:100200004FF0FF3000F06EB9ADF1080C6DE904CE8F
:1002100000F006F8DDF804E0DDE9022304B07047E1
:100220002DE9F047089D04468C46002B40F0838062
:100230008A42174647D9B2FA82F242B1C2F120008F
:1002400024FA00F09140974040EA010C94404FEAB4
:100250001748230CBCFBF8F61FFA87FE08FB16C1F3
:1002600043EA014306FB0EF1994209D9FB1806F156
:10027000FF3080F01981994240F21681023E3B44E2
:100280005B1AA4B2B3FBF8F008FB103344EA034452
:1002900000FB0EFEA64509D93C1900F1FF3380F0A2
:1002A0000581A64540F2028102383C4440EA0640FE
:1002B000A4EB0E0400261DB1D4400023C5E9004381
:1002C0003146BDE8F08702B9FFDEB2FA82F2002AB9
:1002D00050D1CB1B4FEA174E1FFA87F80126B3FB0C
:1002E000FEFC210C0EFB1C3341EA034108FB0CF31E
:1002F0008B4207D979180CF1FF3002D28B4200F201
:10030000E9808446C91AA3B2B1FBFEF00EFB1011BE
:1003100043EA014408FB00F8A04507D93C1900F165
:10032000FF3302D2A04500F2D9801846A4EB08049E
:1003300040EA0C40BFE78B4209D9002D00F0B180A4
:100340000026C5E9000130463146BDE8F087B3FA22
:1003500083F6002E4AD18B4202D3824200F2B8804B
:10036000841A61EB030101208C46002DA8D0C5E959
:10037000004CA5E7C2F1200320FA03F6974001FAEA
:1003800002F04FEA174ED9403043030CB1FBFEF6A2
:100390001FFA87F80EFB161143EA014306FB08F12A
:1003A000994204FA02F409D9FB1806F1FF3C80F0E7
:1003B0008D80994240F28A80023E3B445B1A81B2B2
:1003C000B3FBFEF00EFB103341EA034100FB08F3E0
:1003D0008B4207D9791800F1FF3C73D28B4271D957
:1003E00002383944CB1A40EA064678E7C6F1200CB9
:1003F00003FA06F422FA0CF31C4320FA0CF701FA74
:1004000006F34FEA144E21FA0CF11F433B0CB1FBEB
:10041000FEF91FFA84F80EFB191143EA014109FBAA
:1004200008FA8A4502FA06F200FA06F308D96118BA
:1004300009F1FF3048D28A4546D9A9F10209214481
:10044000A1EB0A01BFB2B1FBFEF00EFB101147EAAF
:10045000014700FB08F8B84507D9E71900F1FF315B
:100460002ED2B8452CD90238274440EA0940A7EBE0
:100470000807A0FB02894F45C64649461AD317D044
:100480005DB1B3EB0E0267EB010707FA0CFCF2401B
:100490004CEA0202F740C5E9002700263146BDE8D4
:1004A000F0872E4628460BE70646E9E61846FDE6A5
:1004B0004345E5D2B8EB020E69EB04010138DFE7F2
:1004C0000846D2E760468DE78146B9E7664675E79C
:1004D00030464AE7ACF1020C394413E702383C4499
:1004E00024E700BF704700BF00B585B0002300932C
:1004F0000193029303931548154A02604FF480322A
:10050000426083600361037680F82030C362114A41
:100510008262C3600122C26180F83030426101F022
:1005200071F860B901230093019300230293694697
:10053000064801F093F828B905B05DF804FB00F017
:1005400073FAEFE700F070FAF6E700BFE009002069
:10055000002001400100000F00B589B00023039383
:100560000493059306930793026803F1804303F510
:1005700090339A4202D009B05DF804FB0022019248
:1005800003F58C33596C41F480715964596C01F452
:100590008071019101990292196B41F00101196377
:1005A0001B6B03F001030293029B022303930323BB
:1005B0000493059203A9024801F004FCDBE700BFA5
:1005C0000000024008B50D480D4B03600623436050
:1005D00000238360C3604FF4102202614FF40012C5
:1005E0004261037643768376C3760377437701F0DF
:1005F00007F900B908BD00F017FAFBE72C0A002044
:100600000064004008B50B480B4B036010234360A7
:1006100000238360C360036143610376437683767E
:10062000C3760377437701F0EBF800B908BD00F01B
:10063000FBF9FBE7540A00200068004000B58BB0CE
:100640000023059306930793089309930368384A98
:10065000934205D0374A934230D00BB05DF804FB8B
:10066000354A136801331360012B1AD00021019120
:10067000324B1A6B42F002021A631B6B03F0020347
:100680000193019B4FF44073059302230693079156
:10069000032308930923099305A9294801F092FB34
:1006A000DBE700230093254B1A6C42F000721A64BA
:1006B0001B6C03F000730093009BD7E700230293A9
:1006C0001E4B1A6C42F080621A641B6C03F080634C
:1006D0000293029B184A136801331360012B1AD04E
:1006E00000210491154B1A6B42F002021A631B6B36
:1006F00003F002030493049B42F2200305930223B8
:1007000006930791032308930923099305A90C482D
:1007100001F058FBA1E700230393084B1A6C42F049
:1007200000721A641B6C03F000730393039BD7E7FA
:100730000064004000680040280A002000380240A1
:100740000004024010B582B0002400942A4B1A6BBA
:1007500042F400121A631A6B02F400120092009A1B
:1007600001941A6B42F480021A631B6B03F480033A
:100770000193019B224605210C2001F0F9F80C2081
:1007800001F02AF9224605210E2001F0F1F80E2091
:1007900001F022F922460521112001F0E9F811208B
:1007A00001F01AF922460521392001F0E1F839203B
:1007B00001F012F9224605213A2001F0D9F83A2039
:1007C00001F00AF9224605213B2001F0D1F83B2037
:1007D00001F002F9224605213C2001F0C9F83C2035
:1007E00001F0FAF822460521452001F0C1F8452024
:1007F00001F0F2F802B010BD0038024008B505F073
:1008000081FD012004F0D1FEFBE70000034B0360F3
:10081000034B0B6080231360704700BF800C0020E7
:10082000800A002030B589B001AC074D0FCD0FC450
:1008300095E8070084E80700002101A804F080FE85
:10084000024B186009B030BD287200087C0A0020F5
:1008500030B58DB000240794089409940A940B9441
:100860000094314B1A6B42F010021A631A6B02F0BB
:1008700010020092009A01941A6B42F002021A636D
:100880001A6B02F002020192019A02941A6B42F072
:1008900040021A631A6B02F040020292029A039419
:1008A0001A6B42F004021A631A6B02F004020392FC
:1008B000039A04941A6B42F001021A631A6B02F055
:1008C00001020492049A05941A6B42F020021A6302
:1008D0001A6B02F020020592059A06941A6B42F0F8
:1008E00080021A631B6B03F080030693069B0F4D77
:1008F000224640F2FF11284601F056FB40F2FF135A
:1009000007930123089309940A9407A9284601F044
:1009100059FA042307930894099407A9044801F09D
:1009200051FA0DB030BD00BF00380240001802403F
:100930000004024008B51348134B0360134B436097
:1009400000238360C3604FF480420261436183618E
:10095000C361036201F02EFB50B90021094801F088
:1009600007FC40B90021074801F024FC30B908BD5C
:1009700000F05AF8F1E700F057F8F3E700F054F808
:10098000F5E700BFD40C002000580040A08601000D
:1009900030B589B00023039304930593069307931E
:1009A0000268144B9A4201D009B030BD0025019570
:1009B000114C236B43F020032363236B03F02003CC
:1009C0000193019B032303931222049201220592B7
:1009D00006930423079303A9084801F0F3F902954D
:1009E000236C43F480032364236C03F48003029399
:1009F000029BD9E700580040003802400014024032
:100A000008B50748074B03600023436040F6FF73B7
:100A1000836001F0F0FB00B908BD00F005F8FBE7CA
:100A2000280D00200030004072B6FEE700B595B0FA
:100A30003022002108A806F0B9F90023039304939B
:100A40000593069307930193214A116C41F080515D
:100A50001164126C02F080520192019A02931D4BB4
:100A60001A6842F440421A601B6803F44043029340
:100A7000029B092308934FF48033099301230D93BC
:100A800002230E934FF480020F9206221092A822A6
:100A9000119212930723139308A802F085F998B9CD
:100AA0000F23039302230493002305934FF4A053D1
:100AB00006934FF480530793052103A802F0BAFB75
:100AC00020B915B05DF804FBFFF7AEFFFFF7ACFFF0
:100AD000003802400070004008B500F0B9FCFFF794
:100AE000A5FFFFF7B5FEFFF72DFEFFF789FFFFF724
:100AF00069FDFFF787FD00F019F800F097F900F0A5
:100B0000CDF900F0F1F900F0ABFA00F08FFA00F047
:100B100059FAFFF7E9FCFFF70DFF00F039FA00F092
:100B20006BFAFFF77FFE04F006FDFEE708B50D48FF
:100B30000D4B03604FF48273436000238360C360F6
:100B4000036143614FF400728261C36103624362D7
:100B500083620A23C36202F043FC00B908BDFFF7B9
:100B600063FFFBE7F40D0020005001402DE9F04148
:100B700088B00023039304930593069307930268B8
:100B80003F4B9A4202D008B0BDE8F08104460025F0
:100B9000009503F568435A6C42F480125A645A6C0B
:100BA00002F480120092009A01951A6B42F0200222
:100BB0001A631A6B02F020020192019A02951A6BD5
:100BC00042F080021A631B6B03F080030293029BC6
:100BD0004FF4407303934FF00208CDF81080059551
:100BE000032706970526079603A9264801F0EAF889
:100BF00040230393CDF8108005950697079603A927
:100C0000214801F0DFF82148214B03604FF0806359
:100C100043608560C5604FF4806303614561856111
:100C2000C5610562456200F065FF18BB174BE364C0
:100C30009C631848184B03604FF080634360402367
:100C400083600023C3604FF480620261436183616B
:100C5000C3610362436200F04DFF70B90D4BA364A2
:100C60009C6300220521552000F082FE552000F0F3
:100C7000B3FE88E7FFF7D8FED8E7FFF7D5FEEDE72C
:100C80000050014000140240001C0240340D0020BE
:100C900058640240940D00207064024000B583B097
:100CA000002200920D4B596C41F480415964596CFB
:100CB00001F48041009100990192196C41F080513A
:100CC00019641B6C03F080530193019B0F216FF09B
:100CD000010000F04DFE03B05DF804FB0038024057
:100CE000FEE7FEE7FEE7FEE7FEE7704708B500F027
:100CF000C9FB05F0F7FA012800D108BD04F08AFE0F
:100D0000FBE7000008B5024800F06EFF08BD00BF19
:100D1000D00F002008B5024800F066FF08BD00BFF4
:100D20003010002008B5024800F05EFF08BD00BF8B
:100D3000100F002008B5024800F056FF08BD00BFA4
:100D40009010002008B5024800F04EFF08BD00BF1B
:100D5000700F002008B5024800F046FF08BD00BF34
:100D6000340D002008B5024800F03EFF08BD00BF6A
:100D7000940D002008B5024801F024FC08BD00BF16
:100D8000B064002008B5024800F02EFF08BD00BF87
:100D9000F010002008B5024802F02CFF08BD00BF8B
:100DA000D011002008B5024802F024FF08BD00BFA2
:100DB0001012002008B5024802F01CFF08BD00BF59
:100DC0005012002008B5024802F04CFB08BD00BFDD
:100DD000F40D002008B503460B4A126842B10A4AD6
:100DE000106803446A46934206D8074A136008BD58
:100DF000054A06491160F2E705F0E4FC0C230360A4
:100E00004FF0FF30F3E700BF4C0E002018690020C0
:100E1000054BD3F8882042F47002C3F888204FF0C5
:100E200000629A60704700BF00ED00E000B587B037
:100E300000230293039304930593009301931548B1
:100E4000154A0260436083604FF6FF72C26003611F
:100E50004361836102F032FC90B94FF480530293F6
:100E600002A90C4802F050FC68B9002300930193DA
:100E70006946084802F0B6FC40B907B05DF804FBCB
:100E8000FFF7D2FDE9E7FFF7CFFDEEE7FFF7CCFD77
:100E9000F3E700BF500E00200000014000B583B012
:100EA0000023009301930E480E4A02604360836062
:100EB0004FF6FF72C260836102F000FC50B900235C
:100EC000009301936946064802F08CFC28B903B0F0
:100ED0005DF804FBFFF7A8FDF1E7FFF7A5FDF6E7D6
:100EE000D00E00200010004008B50948094B0360EF
:100EF0000023436083604FF6FF72C2600361836129
:100F000002F0DCFB00B908BDFFF78EFDFBE700BF78
:100F1000900E00200044014084B00368184A9342B8
:100F200007D0184A934211D0174A93421BD004B0FD
:100F3000704700230193154B5A6C42F001025A642A
:100F40005B6C03F001030193019BF0E70023029324
:100F50000E4B1A6C42F010021A641B6C03F0100363
:100F60000293029BE3E700230393084B5A6C42F47D
:100F700000325A645B6C03F400330393039BD6E79F
:100F800000000140001000400044014000380240D1
:100F900008B50A480A4B03604FF4E133436000236D
:100FA0008360C36003610C2242618361C36102F00C
:100FB00093FD00B908BDFFF737FDFBE710120020D5
:100FC0000078004008B50A480A4B03604FF4E1334B
:100FD000436000238360C36003610C22426183612C
:100FE000C36102F079FD00B908BDFFF71DFDFBE705
:100FF00050120020007C004008B50A480A4B0360EC
:101000004FF4E133436000238360C36003610C222B
:1010100042618361C36102F05FFD00B908BDFFF763
:1010200003FDFBE7501100200010014008B50A48FD
:101030000A4B03604FF4E133436000238360C360D5
:1010400003610C2242618361C36102F045FD00B976
:1010500008BDFFF7E9FCFBE79011002000480040C5
:1010600008B50A480A4B03604FF4E133436000239C
:101070008360C36003610C2242618361C36102F03B
:101080002BFD00B908BDFFF7CFFCFBE7D011002016
:101090000014014030B591B000230B930C930D93D5
:1010A0000E930F9303688E4A934210D004468D4AE4
:1010B000934239D08C4A93427BD08C4A934200F0C1
:1010C000B5808B4A934200F02F8111B030BD0024CF
:1010D0000194884B1A6C42F080421A641A6C02F038
:1010E00080420192019A02941A6B42F020021A6324
:1010F0001B6B03F020030293029BC0230B9302237C
:101100000C9301230D9303230E9308230F930BA934
:10111000794800F057FE22460521522000F028FCB5
:10112000522000F059FCD0E700250395714B1A6C52
:1011300042F000421A641A6C02F000420392039AD1
:1011400004951A6B42F010021A631B6B03F0100334
:101150000493049B03230B9302220C9201220D9211
:101160000E9308230F930BA9644800F02BFE6448EC
:10117000644B03604FF0206343608560C5604FF4AB
:101180008063036145618561C5610562456200F068
:10119000B1FC58B95A4B63639C630022052153206C
:1011A00000F0E6FB532000F017FC8EE7FFF73CFC55
:1011B000F0E7002505954F4B5A6C42F010025A6437
:1011C0005A6C02F010020592059A06951A6B42F0CD
:1011D00002021A631B6B03F002030693069BC023F3
:1011E0000B9302230C930D9503230E9307230F9368
:1011F0000BA9454800F0E6FD4448454B03604FF01D
:10120000006343608560C5604FF48063036145619E
:101210008561C5610562456200F06CFC18B93B4B05
:1012200063639C6351E7FFF7FFFBF8E70025079531
:10123000304B1A6C42F480221A641A6C02F4802239
:101240000792079A08951A6B42F004021A631B6B07
:1012500003F004030893089B4FF440630B930223AD
:101260000C930D9503230E9307230F930BA9294885
:1012700000F0A8FD2848294B03604FF0006343604D
:101280008560C5604FF48063036145618561C56118
:101290000562456200F02EFCD8B91F4B63639C6366
:1012A0001F48204B03604FF000634360402383607E
:1012B0000023C3604FF48062026143618361C361B4
:1012C0000362436200F016FC30B9154B23639C6344
:1012D000FBE6FFF7A9FBE0E7FFF7A6FBF5E700BF9A
:1012E00000780040007C00400010014000480040B1
:1012F0000014014000380240001402400010024077
:10130000100F0020A060024000040240700F002077
:101310004064024000080240D00F002028600240D4
:101320003010002058600240002509952F4B5A6C60
:1013300042F020025A645A6C02F020020992099A83
:101340000A951A6B42F040021A631B6B03F04003CC
:101350000A930A9B4FF484430B9302230C930D953D
:1013600003230E9308230F930BA9214800F02AFDB5
:101370002048214B03604FF0206343608560C560C7
:101380004FF48063036145618561C5610562456213
:1013900000F0B0FB18BB174B63639C631748184BF6
:1013A00003604FF020634360402383600023C360E9
:1013B0004FF48062026143618361C36103624362EF
:1013C00000F098FB70B90D4B23639C63002205214C
:1013D000472000F0CDFA472000F0FEFA75E6FFF74F
:1013E00023FBD8E7FFF720FBEDE700BF0038024002
:1013F000001802409010002028640240F0100020E5
:10140000A064024010B504460E4B18784FF47A736E
:10141000B3FBF0F30C4A1068B0FBF3F000F0EAFA0B
:1014200068B90F2C01D901200AE0002221464FF0B3
:10143000FF3000F09DFA054B1C60002000E0012009
:1014400010BD00BF040000200000002008000020A4
:1014500008B50B4B1A6842F400721A601A6842F41D
:1014600080621A601A6842F480721A60032000F0E9
:101470006DFA0F20FFF7C6FFFFF710FC002008BD34
:10148000003C0240034A1168034B1B780B44136075
:10149000704700BF9012002004000020014B186824
:1014A000704700BF9012002038B50446FFF7F6FFE2
:1014B0000546B4F1FF3F02D0044B1B781C44FFF7F4
:1014C000EDFF401BA042FAD338BD00BF040000204E
:1014D0004A4B5A6822F440325A605A6841680A43BB
:1014E0005A600268536823F480735360026853683B
:1014F000016943EA012353600268536823F0407393
:1015000053600268536881680B43536002689368B4
:1015100023F40063936002689368C1680B4393608F
:10152000826A374B9A4257D00268936823F07063FF
:10153000936002689368816A0B43936002689368C2
:1015400023F04053936002689368C16A0B43936031
:101550000268936823F00203936002689368017E37
:1015600043EA4103936090F82030002B3FD002689B
:10157000536843F4006353600268536823F4604384
:10158000536001684B68426A013A43EA42334B6058
:101590000268D36A23F47003D3620168CB6AC2691C
:1015A000013A43EA0253CB620268936823F4007362
:1015B00093600268936890F8301043EA4123936087
:1015C0000268936823F480639360026893684169BA
:1015D00043EA8123936070470268936823F0706345
:1015E00093600268936823F040539360B0E7026809
:1015F000536823F400635360CAE700BF002301402F
:101600000100000F38B310B50446036C43B1236CDE
:1016100013F0100F0BD00120002384F83C3010BDD4
:10162000FEF79AFF0023636484F83C30EFE7236CF5
:1016300023F4885323F0020343F00203236420467B
:10164000FFF746FF00206064236C23F0030343F0A0
:1016500001032364E0E701207047000030B482B04A
:101660000023019390F83C30012B00F0BD80012352
:1016700080F83C300B68092B3ED90568EA689BB2BC
:1016800003EB43031E3B072404FA03F322EA03039C
:10169000EB600568EA688C680B8803EB43031E3B2C
:1016A00004FA03F31343EB604B68062B3AD8056842
:1016B0006A6B03EB8303053B1F2404FA03F322EA5E
:1016C00003036B6305686A6B4B6803EB8303053B9D
:1016D0000C8804FA03F313436B630268434B9A428A
:1016E00050D00268414B9A4259D0002380F83C30D8
:1016F000184602B030BC704705682A699BB203EBFC
:101700004303072404FA03F322EA03032B61056869
:101710002A698C680B8803EB430304FA03F3134331
:101720002B61C1E70C2B16D805682A6B03EB8303EA
:10173000233B1F2404FA03F322EA03032B63056807
:101740002A6B4B6803EB8303233B0C8804FA03F3F7
:1017500013432B63C1E70568EA6A03EB8303413B4C
:101760001F2404FA03F322EA0303EB620568EA6A22
:101770004B6803EB8303413B0C8804FA03F31343E8
:10178000EB62AAE70B68122BABD1194B5A6822F413
:1017900000025A605A6842F480025A60A1E70B685E
:1017A000144A934201D0112B9FD1114B5A6822F455
:1017B00080025A605A6842F400025A600A680D4B6F
:1017C0009A4292D10C4B1B680C4AA2FB03239B0C40
:1017D00003EB83035B00019302E0019B013B019358
:1017E000019B002BF9D180E7022082E70020014015
:1017F00000230140120000100000002083DE1B4384
:10180000002800F0A18038B5044690F82030D3B10C
:101810002268136823F002031360FFF73FFE0546BA
:1018200023685A6812F0020F10D0FFF737FE401BF2
:101830000A28F5D9636A43F400336362052384F808
:101840002030012038BDFEF7F9FEE1E71A6842F0CA
:1018500001021A60FFF722FE054623685A6812F05B
:10186000010F0DD1FFF71AFE401B0A28F5D9636A54
:1018700043F400336362052384F820300120E1E75C
:10188000227E012A3DD01A6822F080021A60637E0F
:10189000012B3BD02268136823F040031360A37E22
:1018A000012B39D02268136823F020031360E37EF4
:1018B000012B37D02268136843F010031360237F95
:1018C000012B35D02268136823F008031360637F6F
:1018D000012B33D02268136823F004031360A3683C
:1018E000E268134322691343626913436268013A51
:1018F00021681343CB6100206062012384F820300B
:10190000A0E71A6842F080021A60C0E722681368F4
:1019100043F040031360C2E72268136843F02003DA
:101920001360C4E72268136823F010031360C6E74E
:101930002268136843F008031360C8E7226813683D
:1019400043F004031360CAE701207047074AD368D5
:1019500023F4E0631B041B0C000200F4E06003436B
:1019600043F0BF6343F40033D360704700ED00E001
:1019700030B4174BDB68C3F30223C3F10704042C14
:1019800028BF04241D1D062D18D9033B4FF0FF3539
:1019900005FA04F421EA0401994005FA03F322EA66
:1019A0000303194300280BDB0901C9B200F16040B1
:1019B00000F5614080F8001330BC70470023E5E774
:1019C00000F00F000901C9B2024B1954F4E700BF3F
:1019D00000ED00E014ED00E0002807DB00F01F023E
:1019E000400901239340024A42F82030704700BF6B
:1019F00000E100E00138B0F1807F0AD2064B586068
:101A0000064AF02182F823100020986007221A600D
:101A100070470120704700BF10E000E000ED00E0DB
:101A200010B40368D9B210390C4AA2FB0142120962
:101A30000B4CA25CC2655F2909D923F47F7323F0A4
:101A4000030304338365806D5DF8044B704723F412
:101A50007F7323F003038365F5E700BFABAAAAAA4F
:101A600068720008836A826992B9012B0AD0022B3E
:101A700002D00BB100207047C36A13F0807F28D1D9
:101A800000207047C36AB3F1C07F24D000207047A4
:101A9000B2F5005F09D0022B25D9032B25D1C36AEB
:101AA00013F0807F23D100207047032B03D8DFE899
:101AB00003F01404140A00207047C36A13F0807FF7
:101AC0000DD100207047C36AB3F1C07F09D0002058
:101AD00070470120704701207047012070470120A6
:101AE0007047012070470120704700207047012097
:101AF0007047000070B50446FFF7D0FC002C5BD0A7
:101B00000546002384F83430022384F835302268F7
:101B1000136823F00103136023681A6812F0010FA1
:101B20000AD0FFF7BBFC431B052BF5D920236365C7
:101B3000032084F8350070BD1A68204810406168A1
:101B4000A2680A43E1680A4321690A4361690A43BA
:101B5000A1690A43E1690A43216A0A430243616AAF
:101B600004291ED01A602668756925F00705636A86
:101B70001D43042B07D1A36A1D43E36A1BB1204612
:101B8000FFF770FF90B975612046FFF749FFE26DDE
:101B90003F239340836000206065012384F8353043
:101BA000C9E7E16A206B01430A43DBE74023636531
:101BB000012084F83500BEE70120BCE73F8010F02B
:101BC00090F83530DBB2022B03D08023436501202F
:101BD0007047052380F835300268136823F001034D
:101BE0001360002070470000F0B583B00446002366
:101BF0000193724B1D68724BA3FB0535AD0A876DCF
:101C00003E68C26D08239340334210D003681A68BF
:101C100012F0040F0BD01A6822F004021A60C26D91
:101C200008239340BB60436D43F001034365E26DBD
:101C300001239340334209D02268526912F0800F89
:101C400004D0BB60636D43F002036365E26D04235F
:101C50009340334209D02268126812F0020F04D078
:101C6000BB60636D43F004036365E26D1023934032
:101C7000334224D02268126812F0080F1FD0BB60D4
:101C800023681A6812F4802F0DD01B6813F4002FFC
:101C900004D1236C9BB12046984710E0A36C73B12C
:101CA000204698470BE01A6812F4807F03D11A6827
:101CB00022F008021A60236C0BB120469847E26DAF
:101CC00020239340334255D02268126812F0100F3F
:101CD00050D0BB6094F83530DBB2052B0ED02368B2
:101CE0001A6812F4802F33D01B6813F4002F2AD106
:101CF000636C002B3ED0204698473BE02268136877
:101D000023F0160313602268536923F080035361A4
:101D1000236CA3B12268136823F008031360E26DFB
:101D20003F239340BB60002384F83430012384F8C0
:101D30003530236D002B3FD0204698473CE0A36C04
:101D4000002BE7D1EBE7E36BA3B12046984711E006
:101D50001A6812F4807F09D11A6822F010021A6002
:101D6000002384F83430012384F83530E36B0BB161
:101D700020469847636DFBB1636D13F0010F17D0D8
:101D8000052384F835302268136823F001031360BB
:101D9000019B01330193AB4204D823681B6813F005
:101DA000010FF5D1002384F83430012384F8353055
:101DB000E36C0BB12046984703B0F0BD0000002053
:101DC000B5814E1B00230F2B00F2E580F0B583B0E8
:101DD00039E0092200E00022B2403A4302346E4E5C
:101DE00046F824206D4A1468EA4324EA05064F6841
:101DF00017F4803F01D045EA0406684C2660646809
:101E000002EA04064F6817F4003F01D045EA0406D1
:101E1000624C6660A46802EA04064F6817F4801FEB
:101E200001D045EA04065D4CA660E46822404E6895
:101E300016F4001F01D045EA0402584CE260013359
:101E40000F2B00F2A68001229A400C6804EA0205DA
:101E500032EA0404F3D14C68661E012E03D9112C1A
:101E600001D0122C12D186685F000324BC4026EA00
:101E70000406CC68BC4034438460466826EA020607
:101E80004C68C4F300129A4032434260C7685E0057
:101E90000324B440E24327EA04078C68B4403C437F
:101EA000C4604C68022C01D0122C13D1DF08083713
:101EB00050F827E003F007044FEA840C0F2404FADB
:101EC0000CF42EEA040E0C6904FA0CF444EA0E0435
:101ED00040F82740046814404A6802F00302B24008
:101EE000224302604A6812F0805FA8D0002201926B
:101EF0002B4A546C44F480445464526C02F4804283
:101F00000192019A9C08A61C234A52F8267003F0FD
:101F1000030296000F22B24027EA0207214A9042AC
:101F20003FF459AF02F58062904222D002F5806200
:101F3000904220D002F5806290421ED002F580626D
:101F400090421CD002F5806290421AD002F5806265
:101F5000904218D002F58062904216D002F580625D
:101F6000904214D002F5806290423FF432AF0A22D0
:101F700032E7012230E702222EE703222CE7042277
:101F80002AE7052228E7062226E7072224E7082277
:101F900022E703B0F0BD704700380140003C01402B
:101FA00000380240000002400AB181617047090414
:101FB00081617047002800F0CC80F8B5044690F8A5
:101FC0003D30002B77D0242384F83D3022681368FD
:101FD00023F0010313602268136843F40043136085
:101FE0002268136823F40043136001F0D9F9626892
:101FF0005A4B9A4264D85A4B98428CBF0023012313
:10200000002B40F0A880574DA5FB0035AF0C26688B
:10201000716821F03F0141EA9541716021680B6AC6
:1020200023F03F0365684D4A95424FD87A1C13430D
:102030000B622568E96921F44F4121F0FF016368D3
:10204000464A93424CD801385B00B0FBF3F00130B4
:1020500040F6FC73184278D0C0F30B030B43EB61DE
:1020600021680B6823F0C003E269206A024313432E
:102070000B6021688B6823F4034323F0FF0322697C
:10208000E068024313438B602168CB6823F0FF03B1
:102090006269A06902431343CB602268136843F06E
:1020A0000103136000202064202384F83D30206366
:1020B00084F83E00F8BD80F83C30FEF769FC82E70A
:1020C000294B98428CBF0023012399E74FF4967265
:1020D00002FB07F2254DA5FB025292090132A6E749
:1020E000A268BAB9461E03EB4307B6FBF7F6013602
:1020F000C6F30B06B6FA86F6760946BBC2B9421E8F
:1021000003EB4303B2FBF3F20132C2F30B0242F4DE
:102110000043A3E7461E03EB830707EB8707B6FBE5
:10212000F7F60136C6F30B06B6FA86F67609E4E74B
:10213000421E03EB830303EB8303B2FBF3F2013292
:10214000C2F30B0242F4404388E7042386E70123ED
:1021500084E7012070470120ACE700BFA0860100A2
:102160007F841E0083DE1B43FF083D00D34D6210B9
:1021700090F83D30DBB2202B01D0022070472423A1
:1021800080F83D300268136823F001031360026891
:10219000536A23F0100353620268536A1943516271
:1021A0000268136843F001031360202380F83D3078
:1021B0000020704790F83D30DBB2202B01D0022088
:1021C0007047242380F83D300268136823F0010330
:1021D00013600268536A9BB223F00F03194389B25C
:1021E00051620268136843F001031360202380F8F2
:1021F0003D300020704708B338B5044603684CF6FC
:10220000CC421A60036845F255521A60036842686E
:102210005A60036882689A60FFF740F905462368B0
:10222000DA6832B1FFF73AF9401B3028F7D90320BA
:1022300003E04AF6AA221A60002038BD0120704748
:102240002DE9F04782B0D0F80080C1EBC10300EB6C
:1022500083035A6D1B6D9A4255D807460C46C146FA
:102260009B1AC1EBC10200EB8202526C9A4200D36E
:102270001A4602F1030A4FEA9A0A15E006F1030A28
:102280004FEA9A0AC4EBC40507EB8505A96C3B7CB1
:102290000093B3B2E2B2404602F094F8AB6C334420
:1022A000AB646B6D1E446E6509EB441303F510635C
:1022B0009B699BB2534512D3C4EBC40207EB820265
:1022C000516D136D99420AD24BB15B1AC4EBC40233
:1022D00007EB8202566C9E42D0D31E46CEE7C4EB7B
:1022E000C40007EB80073A6D7B6D9A420FD804F06B
:1022F0000F040123A340D8F8344824EA0304C8F8A3
:102300003448002000E0012002B0BDE8F087002042
:10231000FAE7F0B58BB0002800F08C800546046821
:1023200090F8BD332BB3032385F8BD33E36B13F46F
:10233000807F01D100232B61286801F0D3FD2C465A
:1023400054F8107B6E460FCC0FC60FCC0FC694E826
:10235000030086E803002B1D0ECB384601F004FD78
:10236000044658B1022385F8BD33012420460BB042
:10237000F0BD80F8BC3304F0A7F8D4E7002128684A
:1023800001F0B6FD234616E0C3EBC30205EB820263
:10239000012182F83D1082F83C30A2F84230002141
:1023A00082F83F1051649164C3EBC30205EB8202D3
:1023B00011650133DBB269688B42E5D316E0C4EBEB
:1023C000C40305EB8303002283F8FD2183F8FC415D
:1023D00083F8FF21C3F80422C3F80822C4EBC40326
:1023E00005EB8303C3F810220134E4B2A142E6D81E
:1023F0002C4654F8107B6E460FCC0FC60FCC0FC680
:1024000094E8030086E803002B1D0ECB384601F04C
:10241000B5FD044620B1022385F8BD330124A5E7AC
:10242000002385F83830012385F8BD33286802F091
:1024300073F99BE7012499E7026890F8BC33012BFC
:1024400019D010B50446012380F8BC33836A012BF0
:1024500009D0206801F040FD206802F04FF900200B
:1024600084F8BC0310BD8369012BF2D0936B43F455
:1024700080339363EDE702207047000070B5044697
:102480000D460068066C00EB411303F530639A6853
:102490002169012911D035498E4250D03DB9C5EB93
:1024A000C50304EB8303D3F81032002B58D0E9B2F4
:1024B000204604F055F8002070BD12F0080F09D036
:1024C0002B498E42F7D912F4004FF4D04FF400425A
:1024D0009A60F0E712F0200F02D020229A60EAE71B
:1024E00012F0280FE7D122498E4206D912F4004F8C
:1024F00003D04FF400429A60DDE7C5EBC50204EB60
:102500008202D2F804121B69C3F31203C91AC2F87B
:102510001412D2F80412D2F808320B44C2F808326E
:1025200015B9D2F8103223B1E9B2204604F018F8F8
:10253000C1E704F57172012102F042F9F4E712F4E7
:10254000004F03D04FF400429A60B4E712F0200F1E
:1025500001D020229A60E9B2204604F001F8AAE7EF
:1025600004F57172002102F02BF9A0E70A31544FF3
:102570000A30544F38B5044603681D6C03EB411311
:10258000D3F8081B0E4A954207D903F5306311F4BE
:10259000004F02D04FF400429A60204603F0D8FF6B
:1025A000074B9D4202D92369012B01D0002038BD81
:1025B00004F571720121206802F002F9F6E700BF0C
:1025C0000A30544F2DE9F04F83B004460568284681
:1025D00002F0E1F810B103B0BDE8F08F2F460646D7
:1025E000206802F0A7F80028F5D0206802F0A2F8D1
:1025F00010F0020F04D02268536903F00203536104
:10260000206802F097F810F0100F14D02268936938
:1026100023F010039361D5F8208008F00F09C8F368
:102620004343022B68D0062B00F08D80226893690B
:1026300043F010039361206802F07CF810F4002F3F
:1026400040F09380206802F075F810F4802F40F07D
:10265000D780206802F06EF80028C0F2438120681D
:1026600002F068F810F4006F0AD0D5F8083813F0BB
:10267000010F40F051812268536903F400635361F4
:10268000206802F057F810F4805F40F0498120681C
:1026900002F050F810F4005F40F0A881206802F0CA
:1026A00049F810F0080F40F0B981206802F042F8B4
:1026B00010F4801F40F0BB81206802F03BF810F45A
:1026C000001F40F0BE81206802F034F810F0804F07
:1026D00040F0C181206802F02DF810F0040F3FF4A3
:1026E0007AAF23685D6815F0040F40F0BD81226861
:1026F00053682B4353606EE747F6F07318EA030FF5
:1027000094D04FEA181B4FEAC9030193C9EBC90AD9
:1027100004EB8A0AC8F30A12DAF80812284601F014
:1027200071FFCBF30A0BDAF808325B44CAF80832BF
:10273000019BA3EB090304EB8303D3F814325B443E
:10274000CAF8143272E7082204F57171284601F0C4
:1027500059FFC8F30A18C9EBC90204EB8202D2F888
:1027600014324344C2F8143260E7206801F0E6FFF7
:102770008046B14617E007EB49130122C3F8082B46
:1027800049462046FFF77AFE1DE007EB4913082271
:10279000C3F8082B49462046FFF7ECFE16E009F186
:1027A00001094FEA5808B8F1000F3FF44BAF18F099
:1027B000010FF4D05FFA89F1206801F0CFFF824663
:1027C00010F0010FD7D11AF0080FDED11AF0100F58
:1027D00004D007EB49131022C3F8082B1AF0200F7E
:1027E00004D007EB49132022C3F8082B1AF4005F2A
:1027F000D5D007EB49134FF40052C3F8082BCEE7AE
:10280000206801F0A3FF8046B1462AE059462046E1
:1028100003F0B2FE1AF0080F04D007EB49130822A8
:10282000C3F808291AF0100F04D007EB491310223F
:10283000C3F808291AF0400F04D007EB49134022CF
:10284000C3F808291AF0020F04D007EB491302223B
:10285000C3F808291AF0800F3FD109F101094FEAA6
:102860005808B8F1000F3FF4F4AE18F0010FF4D09F
:102870005FFA89FB5946206801F079FF824610F023
:10288000010FC7D009F00F03012101FA03F2D7F8B5
:10289000343823EA0203C7F8343807EB4913C3F886
:1028A000081923698B42B1D1C9EBC90304EB830337
:1028B000596C9A6C0A449A64B9F1000FA6D1C9EB1D
:1028C000C90304EB83031B6D002B9FD104F57172C8
:1028D0000121206801F074FF98E749462046FFF780
:1028E000AFFCBAE7D5F8043823F00103C5F8043883
:1028F00094F8F433012B08D0204603F07DFE2268C3
:10290000536903F000435361A9E6002184F8F413EE
:10291000204600F047FAF2E7204603F055FEAAE60B
:1029200005F50068D8F8043023F00103C8F8043036
:102930001021206801F0F4FA20E007EB46134FF66F
:102940007F31C3F80819D3F8002922F40012C3F824
:102950000029D3F8002942F00062C3F80029C3F827
:10296000081BD3F8002B22F40012C3F8002BD3F875
:10297000002B42F00062C3F8002B01366368B342BB
:10298000DBD8D8F81C3043F00113C8F81C30236B97
:10299000EBB1D8F8843043F00B03C8F88430D8F892
:1029A000443043F00B03C8F84430D5F8003823F422
:1029B000FE63C5F8003804F57172217C206801F0CF
:1029C000FFFE2268536903F4805353615FE6D8F831
:1029D000143043F4005343F02B03C8F81430D8F8F4
:1029E000103043F00B03C8F81030DEE7206801F028
:1029F000D6FE206801F08EFBE060256800F0CAFC7E
:102A00000146227B284601F0F5F9204603F0C5FD7A
:102A10002268536903F4005353613FE6204603F0F4
:102A2000B6FD2268536903F0080353613DE60021B7
:102A3000204603F0EDFD2268536903F480135361CF
:102A40003AE60021204603F0DDFD2268536903F4D5
:102A50000013536137E6204603F0E0FD2268536916
:102A600003F08043536135E6204603F0DDFD3EE68A
:102A700090F8BC33012B0DD010B50446012380F82B
:102A8000BC3380F83810006801F028FE002084F87C
:102A9000BC0310BD02207047F8B507460C4611F084
:102AA000800F27D101F00F05C5EBC506B60006F56E
:102AB000FC760644311DC5EBC50500EB85050020FD
:102AC00085F8FD0104F00F040C708A60CB704A7821
:102AD00002B1CC80022B1DD097F8BC33012B1CD047
:102AE000012387F8BC33386801F025FB002087F804
:102AF000BC03F8BD01F00F00C0EBC0018900383104
:102B000039440431C0EBC00007EB8000012580F898
:102B10003D50D7E700230B71DEE70220E9E710B54F
:102B200004460A4611F0800F20D101F00F00C0EBDF
:102B3000C0039B0003F5FC732344191DC0EBC000C8
:102B400004EB8000002380F8FD3102F00F020A70D0
:102B500094F8BC33012B19D0012384F8BC332068CE
:102B600001F034FB002084F8BC0310BD01F00F001D
:102B7000C0EBC0039B0038332344191DC0EBC000D9
:102B800004EB8000012380F83D30DEE70220ECE713
:102B900038B501F00F04C4EBC401890001F5FC71E4
:102BA00001440431C4EBC40500EB8505C5F80822D7
:102BB000C5F810320023C5F8143285F8FD3185F8C8
:102BC000FC410369012B06D064B9DAB2006801F058
:102BD0006BFB002038BDC4EBC40500EB8505C5F8D0
:102BE0000C22F1E7DAB2006801F000FCF1E701F035
:102BF0000F01C1EBC10100EB8101D1F81402704754
:102C000038B501F00F04C4EBC40189003831014428
:102C10000431C4EBC40500EB8505AA642B650023D1
:102C20006B65012385F83D3085F83C400369012B35
:102C300006D05CB9DAB2006801F036FB002038BD7E
:102C4000C4EBC40500EB8505EA64F2E7DAB200687C
:102C500001F0CCFBF2E738B501F00F054268954270
:102C600039D804460B4611F0800F1FD1C1EBC101CA
:102C7000890001F5FC7101440431C3EBC30300EB8F
:102C80008303002283F8FD2101238B700D7094F8DB
:102C9000BC33012B21D0012384F8BC33206801F020
:102CA000C2FC8DB1002084F8BC0338BDC5EBC50162
:102CB0008900383101440431C5EBC50300EB8303BF
:102CC000012283F83D20DFE704F57172217C206842
:102CD00001F076FDE6E70120E7E70220E5E701F0F5
:102CE0000F034268934231D810B5044611F0800FAB
:102CF0001ED1C3EBC301890001F5FC71014404310D
:102D0000C3EBC30200EB8202002082F8FD01002227
:102D10008A700B7094F8BC33012B19D0012384F80E
:102D2000BC33206801F0ACFC002084F8BC0310BD6B
:102D3000C3EBC3018900383101440431C3EBC30242
:102D400000EB8202012082F83D00E0E7012070479D
:102D50000220ECE730B40468606A19B940EA024026
:102D6000A06218E00D46A36A00EB13400023691E21
:102D70008B4209D203F1400104EB8101496800EB69
:102D800011400133DBB2F2E740EA024005F13F01B6
:102D900004EB81014860002030BC70470368596231
:102DA0000020704770470000002800F0D98170B5FE
:102DB00082B00446036813F0010F3BD0A64B9B681A
:102DC00003F00C03042B2CD0A34B9B6803F00C03E3
:102DD000082B21D06368B3F5803F4FD0B3F5A02F07
:102DE00052D09D4B1A6822F480321A601A6822F47D
:102DF00080221A606368002B50D0FEF74FFB054617
:102E0000954B1B6813F4003F14D1FEF747FB401BA2
:102E10006428F5D90320AAE18F4B5B6813F4800F77
:102E2000D8D08D4B1B6813F4003F03D06368002B90
:102E300000F09881236813F0020F54D0864B9B68F2
:102E400013F00C0F3ED0844B9B6803F00C03082B4F
:102E500033D0E368002B67D0804B01221A60FEF765
:102E60001DFB05467C4B1B6813F0020F53D1FEF788
:102E700015FB401B0228F5D9032078E1764A136838
:102E800043F480331360B5E7734B1A6842F4802231
:102E90001A601A6842F480321A60ABE7FEF7FEFA55
:102EA00005466D4B1B6813F4003FC3D0FEF7F6FADE
:102EB000401B6428F5D9032059E1674B5B6813F484
:102EC000800FC6D1644B1B6813F0020F03D0E36878
:102ED000012B40F04981604A136823F0F80321690F
:102EE00043EAC1031360236813F0080F40D06369FD
:102EF00063B35B4B01221A60FEF7D0FA0546564BCE
:102F00005B6F13F0020F33D1FEF7C8FA401B0228A3
:102F1000F5D903202BE1504A136823F0F803216907
:102F200043EAC1031360DEE74C4B00221A60FEF750
:102F3000B5FA0546484B1B6813F0020FD3D0FEF7D5
:102F4000ADFA401B0228F5D9032010E1444B0022C2
:102F50001A60FEF7A3FA05463F4B5B6F13F0020FB2
:102F600006D0FEF79BFA401B0228F5D90320FEE0AD
:102F7000236813F0040F78D0374B1B6C13F0805F7D
:102F80000DD100230193344B1A6C42F080521A6425
:102F90001B6C03F080530193019B012500E0002589
:102FA000304B1B6813F4807F21D0A368012B32D0F3
:102FB000052B36D0284B1A6F22F001021A671A6FC0
:102FC00022F004021A67A368002B34D0FEF766FAD9
:102FD0000646214B1B6F13F0020F45D1FEF75EFA38
:102FE000801B41F288339842F3D90320BFE01D4A89
:102FF000136843F480731360FEF750FA0646194BCA
:103000001B6813F4807FD0D1FEF748FA801B02289A
:10301000F5D90320ABE0104A136F43F001031367A7
:10302000D1E70D4B1A6F42F004021A671A6F42F093
:1030300001021A67C7E7FEF731FA0646064B1B6F17
:1030400013F0020F10D0FEF729FA801B41F28833EB
:103050009842F3D903208AE000380240000047423A
:10306000800E474200700040E5B9A369002B7DD077
:10307000464A926802F00C02082A51D0022B17D05F
:10308000434B00221A60FEF709FA04463F4B1B68C7
:1030900013F0007F42D0FEF701FA001B0228F5D999
:1030A000032064E0394A136C23F080531364DCE797
:1030B000374B00221A60FEF7F1F90546334B1B68C7
:1030C00013F0007F06D0FEF7E9F9401B0228F5D97E
:1030D00003204CE0E369226A1343626A43EA8213E5
:1030E000A26A5208013A43EA0243E26A43EA0263EF
:1030F000264A5360264B01221A60FEF7CFF9044698
:10310000224B1B6813F0007F06D1FEF7C7F9001BA6
:103110000228F5D903202AE0002028E0002026E03C
:10312000012B26D0194B5B6803F48001E2699142C0
:1031300021D103F03F02216A8A421ED1616A47F61B
:10314000C0721A408A421AD103F44032A16A8A42FC
:1031500017D103F07063E26A934214D1002006E0B5
:1031600001207047012002E0012000E0002002B0B1
:1031700070BD0120FBE70120F9E70120F7E70120FE
:10318000F5E70120F3E70120F1E700BF0038024036
:1031900060004742F8B5244B9B6803F00C03042BF6
:1031A0003DD0082B3DD1204B5A6802F03F025B68AE
:1031B00013F4800F12D01C4B5968C1F388110023FF
:1031C0001A48A1FB0001FDF713F8174B5B68C3F326
:1031D000014301335B00B0FBF3F023E0124B5B686B
:1031E000C3F388135C010025E41A65F10005AE0104
:1031F00046EA9466A701381B66EB0501CC0044EA59
:103200005074C500E81844F100018B0243EA905362
:103210008402204619460023FCF7EAFFD5E703485D
:1032200000E00348F8BD00BF00380240001BB700B3
:103230000024F400002800F09B8070B50D46044681
:103240004F4B1B6803F00F038B4208D2CBB24C4AA2
:103250001370136803F00F038B4240F08B802368D8
:1032600013F0020F17D013F0040F04D0454A9368EF
:1032700043F4E0539360236813F0080F04D0414AED
:10328000936843F4604393603E4A936823F0F003ED
:10329000A1680B439360236813F0010F32D0636879
:1032A000012B21D09A1E012A25D9364A126812F024
:1032B000020F61D033498A6822F0030213438B6006
:1032C000FEF7ECF806462F4B9B6803F00C03626890
:1032D000B3EB820F16D0FEF7E1F8801B41F2883382
:1032E0009842F0D9032042E0264A126812F4003FC7
:1032F000E0D101203BE0234A126812F0007FD9D1CF
:10330000012034E01E4B1B6803F00F03AB4207D9CA
:10331000EAB21B4B1A701B6803F00F03AB422DD1AE
:10332000236813F0040F06D0164A936823F4E05381
:10333000E1680B439360236813F0080F07D0114A2C
:10334000936823F46043216943EAC1039360FFF764
:1033500021FF0C4B9B68C3F303130B4AD35CD8408B
:103360000A4B18600A4B1868FEF74CF8002070BD35
:10337000012070470120FAE70120F8E70120F6E775
:10338000003C02400038024050720008000000205B
:1033900008000020014B1868704700BF00000020A3
:1033A00008B5FFF7F7FF044B9B68C3F38223034A7A
:1033B000D35CD84008BD00BF0038024060720008EE
:1033C00008B5FFF7E7FF044B9B68C3F34233034A9A
:1033D000D35CD84008BD00BF0038024060720008CE
:1033E00000283BD010B504460023836290F851308A
:1033F000002B2ED0022384F851302268136823F06A
:10340000400313606368A2681343E26813432269B0
:10341000134362691343A26902F400721343E26921
:103420001343226A1343A16A22680B431360638B20
:1034300003F00403616A22680B4353602268D36976
:1034400023F40063D36100206065012384F85130C8
:1034500010BD80F85030FDF789FBCBE701207047A5
:103460007047000030B585B0044602685168936823
:10347000C3F3801013F0400F05D113F0010F02D0F9
:1034800011F0400F69D113F0020F02D011F0800F3C
:1034900067D1C3F3401513F0200F03D110B913F413
:1034A000807F61D011F0200F5ED078B194F8510088
:1034B000C0B203285AD0606D40F00400606500205F
:1034C0000090D068009090680090009865B1606DA1
:1034D00040F0010060650020029090680290106842
:1034E00020F040001060029A13F4807F09D0636DD1
:1034F00043F0080363650023039323689B680393E9
:10350000039B636D002B2FD02268536823F0E003E8
:103510005360012384F8513011F0030F2ED022683C
:10352000536823F003035360E36C4BB1154A1A65EB
:10353000E06CFEF745FB18B1636D43F04003636533
:10354000A36C8BB10F4A1A65A06CFEF739FB58B11A
:10355000636D43F04003636506E0236C20469847A3
:1035600002E0636C2046984705B030BD002301930C
:10357000D368019393680193019BF5E72046FFF719
:103580006FFFF1E78935000808B5806B0023C3871A
:10359000C386FFF765FF08BD30B4036A056A25F0EE
:1035A00001050562846924F0F00444EA021423F062
:1035B0000A030B438461036230BC704730B4056A70
:1035C00025F0100505628469036A24F4704444EA16
:1035D000023423F0A00343EA01138461036230BC88
:1035E0007047836823F070030B4343F00703836045
:1035F000704700000368304A904212D0B0F1804F0B
:103600000FD0A2F57C4290420BD002F5806290422E
:1036100007D002F58062904203D002F578429042D2
:1036200003D123F070034A681343234A90422AD0FF
:10363000B0F1804F27D0A2F57C42904223D002F512
:10364000806290421FD002F5806290421BD002F54A
:103650007842904217D002F57052904213D002F592
:10366000806290420FD002F5806290420BD0A2F5AA
:103670009832904207D002F58062904203D002F562
:103680008062904203D123F44073CA68134323F04D
:1036900080034A69134303608B68C3620B688362CB
:1036A000054B984203D003F58063984201D10B6922
:1036B000036301234361704700000140B0B110B5BE
:1036C000044690F83D3063B1022384F83D30214632
:1036D00051F8040BFFF78EFF012384F83D300020E2
:1036E00010BD80F83C30FDF717FCEDE70120704776
:1036F00010B4846824F47F4442EA03220A4322433C
:1037000082605DF8044B704790F83C30012B66D026
:1037100010B50446012380F83C30022380F83D3088
:103720000268936823F47F4323F0770393600B6868
:10373000602B40D022D8402B47D00BD9502B0ED134
:10374000CA6849680068FFF727FF50212068FFF723
:1037500048FF04E0202B0CD008D9302B09D00123DE
:1037600084F83D30002084F83C0010BD0BB1102BD4
:10377000F5D119462068FFF734FFF0E7702B0ED023
:10378000B3F5005FEBD1CB684A6889680068FFF742
:10379000AFFF2268936843F480439360DFE7CB6810
:1037A0004A6889680068FFF7A3FF2268936843F0BE
:1037B00077039360D3E7CA6849680068FFF7FEFEA5
:1037C00060212068FFF70DFFC9E7CA6849680068F3
:1037D000FFF7E2FE40212068FFF703FFBFE702206A
:1037E0007047000090F83C30012B3BD030B40123EF
:1037F00080F83C30022380F83D3003685C689D68A7
:1038000024F070040A6822435A600368164A9342FF
:103810001AD0B3F1804F17D0A2F57C42934213D057
:1038200002F5806293420FD002F5806293420BD082
:1038300002F57842934207D002F57052934203D0CA
:10384000A2F59432934204D125F080054A681543CD
:103850009D60012380F83D30002380F83C301846FD
:1038600030BC704702207047000001400268D368F6
:1038700023F49073D3600268536923F0010353610A
:10388000202380F83A30704790F83930DBB2212B92
:1038900001D0022070478368B3F5805F17D0036AB8
:1038A0005A1C02621A7803685A60C38C9BB2013BAF
:1038B0009BB2C3844BB90268D36823F08003D36002
:1038C0000268D36843F04003D36000207047036A66
:1038D0001B880268C3F30803536003691BB9036ABA
:1038E00002330362E1E7036A01330362DDE70000AC
:1038F00070B504460268136923F44053C1680B4352
:10390000136183680269134342691343C2691A430E
:103910000168CB6823F4164323F00C031343CB60F8
:103920000268536923F4407381690B435361C3698F
:10393000B3F5004F36D00368654A934200F09A8091
:1039400002F58062934200F09580FFF729FD002682
:10395000051846EB06012D1846EB0101CB0043EAA2
:103960005573EA001546194663689A009B0F28189C
:1039700046EB0101FCF73CFC564DA5FB003251091A
:10398000642303FB11031B013233A5FB03235B09F3
:1039900003F0F00202EB011203F00F03216813445D
:1039A0008B6093E003684A4A934233D002F5806209
:1039B00093422FD0FFF7F4FC0026051846EB0601D2
:1039C0002D1846EB0101CB0043EA5573EA0015467A
:1039D000194662683346921846EB0303281846EBF3
:1039E0000101FCF705FC3B4DA5FB003251096423A6
:1039F00003FB1103DB003233A5FB03235B095A00F1
:103A000002F4F87202EB011203F007032168134479
:103A10008B605BE0FFF7D4FC0026051846EB06013F
:103A20002D1846EB0101CB0043EA5573EA00154619
:103A3000194662683346921846EB0303281846EB92
:103A40000101FCF7D5FB234DA5FB0032510964238E
:103A500003FB1103DB003233A5FB03235B095A0090
:103A600002F4F87202EB011203F007032168134419
:103A70008B602BE0FFF7A4FC0026051846EB06013F
:103A80002D1846EB0101CB0043EA5573EA001546B9
:103A9000194663689A009B0F281846EB0101FCF752
:103AA000A7FB0C4DA5FB00325109642303FB110356
:103AB0001B013233A5FB03235B0903F0F00202EB89
:103AC000011203F00F03216813448B6070BD00BF27
:103AD000001001401F85EB5158B310B5044690F813
:103AE00039300BB3242384F839302268D36823F4A7
:103AF0000053D3602046FFF7FBFE2268136923F4CE
:103B0000904313612268536923F02A0353612268AA
:103B1000D36843F40053D3600020E063202384F88B
:103B2000393084F83A3010BD80F83830FDF7B2FAF9
:103B3000D8E701207047704708B50168CA6822F0CD
:103B40004002CA60202280F83920FFF7F4FF0020ED
:103B500008BD704708B590F83A30DBB2222B46D149
:103B60008368B3F5805F0FD003690BBB03685A68A5
:103B7000836A591C81621A70C38D9BB2013B9BB250
:103B8000C385F3B1002008BD826A036943B90368A5
:103B90005B68C3F308031380836A02338362EBE735
:103BA00003685B68DBB21380836A01338362E3E7F7
:103BB00003685B68826A511C816203F07F031370A3
:103BC000DAE70268D36823F02003D3600268D36881
:103BD00023F48073D3600268536923F001035361B7
:103BE000202380F83A30FFF7B4FF0020CBE7022013
:103BF000C9E7704710B5044602681368D168526976
:103C000013F00F0005D113F0200F02D011F0200F98
:103C100013D128B112F0010213D111F4907F10D109
:103C200013F0800F02D011F0800F6CD113F0400F11
:103C300002D011F0400F6AD110BD2046FFF78AFF75
:103C4000FAE713F0010F06D011F4807F03D0E06B88
:103C500040F00100E06313F0040F04D01AB1E06BF0
:103C600040F00200E06313F0020F04D01AB1E06BE1
:103C700040F00400E06313F0080F07D011F0200FAC
:103C800000D11AB1E26B42F00802E263E26B002A53
:103C9000D2D013F0200F02D011F0200F21D12368D1
:103CA0005B6903F04003E26B12F0080F00D123B30D
:103CB0002046FFF7DBFD23685A6912F0400F18D049
:103CC0005A6922F040025A61636B73B1124A1A6555
:103CD000606BFDF775FF0028AED0606B036D9847F1
:103CE000AAE72046FFF736FFD9E72046FFF781FF16
:103CF000A2E72046FFF77DFF9EE72046FFF779FF0A
:103D00000023E36398E72046FFF7BEFD94E72046D3
:103D1000FFF712FF90E700BF1D3D000808B5806B5C
:103D20000023C385C384FFF764FF08BD002301336C
:103D30000C4A934211D80269002AF8DA036943F069
:103D40000103036100230133064A934207D8026945
:103D500012F0010FF7D100207047032070470320B5
:103D6000704700BF400D030084B010B5044603A89F
:103D700080E80E00089B012B1FD1A36B23F4803336
:103D8000A363E36823F4840323F04003E360E36860
:103D900023F44013E3600F9B012B09D02046FFF76B
:103DA000C5FF069B012B1BD0BDE8104004B0704737
:103DB000E36843F48013E360F0E7E36843F0400313
:103DC000E3602046FFF7B2FF0C9B23B9A36B43F4DB
:103DD0008033A363E5E7A36B23F48033A363E0E7B9
:103DE000A36843F00603A360A36843F02003A36025
:103DF000DAE70000022A0AD00921C26822F47052D0
:103E0000C260C36843EA8123C36000207047234B2C
:103E10000B44234A93422FD9224B0B44224A93420C
:103E20002CD9A1F57403A3F51053204A934227D946
:103E3000A1F18373A3F5E7431D4A934222D31D4B9F
:103E40000B441D4A93421FD91C4B0B441C4A9342FE
:103E50001CD31C4B0B441C4A934219D3A1F1B773DA
:103E6000A3F55853194A934214D3194B0B44194ADA
:103E7000934211D20721C0E70F21BEE70E21BCE714
:103E80000D21BAE70C21B8E70B21B6E70A21B4E708
:103E90000921B2E70821B0E70621AEE7405327FF2A
:103EA000FF340C00401E1BFF3F420F007F4F1200EB
:103EB00020D6130060B6E5FE5FE3160000D3CEFE09
:103EC00040771B00C05BB3FEC09121002075380015
:103ED000E05459FEE09C4100836843F00103836095
:103EE00000207047836823F001038360002070473F
:103EF00008B5C36823F0C043C360012909D069B97C
:103F0000C36843F08043C3603220FDF7CDFA002040
:103F100008BDC36843F00053C360F5E70120F7E72D
:103F2000890141F02001016100230133054A9342D8
:103F300005D8026912F0200FF7D100207047032046
:103F4000704700BF400D03001023036100230133BD
:103F5000054A934205D8026912F0100FF7D10020EC
:103F600070470320704700BF400D0300D0F80038B1
:103F70001943C0F8001800207047000084B02DE9F4
:103F8000F843044609A880E80E002546002306E011
:103F900003F1400204EB82020021516001330E2B39
:103FA000F6D9DDF84C80B8F1000F24D1D4F80438EC
:103FB00043F00203C4F80438A36B43F40013A36373
:103FC000A36B23F40023A363A36B23F48023A363D5
:103FD0000023C4F8003E04F50066D4F80038C4F8A5
:103FE00000380E9B012B14D10B9B6BB9002120468E
:103FF000FFF7BCFF11E0A36B23F40013A363A36BD3
:1040000043F40023A363E3E701212046FFF7AEFF5B
:1040100003E003212046FFF7A9FF10212046FFF708
:104020007FFF814608B14FF001092046FFF78CFF62
:1040300008B14FF00109002333617361F3610AE0B5
:10404000C3B94FF00060C2F8000900220A614FF6C0
:104050007F328A600133099F9F4210D905EB4312DA
:1040600002F51061D2F800090028E9DB0020C2F84F
:104070000009EAE74FF09040C2F80009E5E70023A5
:104080000AE0BBB14FF09040C2F8000B00220A6179
:104090004FF67F328A6001339F4210D905EB4312FD
:1040A00002F53061D2F8000B0028EADB0020C2F8EC
:1040B000000BEBE74FF00060C2F8000BE6E7336956
:1040C00023F4807333610023A3616FF08043636145
:1040D0000C9B1BB9A36943F01003A361A2690C4BAD
:1040E0001343A3610F9B1BB1A36943F00803A361B2
:1040F000B8F1010F04D04846BDE8F84304B070475A
:10410000A36943F0804343F00403A361F3E700BFD6
:1041100000383C80D0F8083813F0060307D0022B93
:1041200007D0062B01D00F207047022070470020D7
:1041300070470220704770B40C784B78012B22D066
:10414000D0F81C3804F00F060122B24043EA0243C3
:10415000C0F81C3800EB4410D0F8003B13F4004FBB
:104160000ED1D0F8003B8A68C2F30A02C97842EA4D
:104170008142134343F0805343F40043C0F8003BB3
:10418000002070BC7047D0F81C2804F00F06B34024
:104190009BB21343C0F81C3800EB4410D0F8003930
:1041A00013F4004FECD1D0F800398A68C2F30A0248
:1041B000C97842EA814242EA84541C4344F0805464
:1041C00044F40044C0F80049DAE7000030B40B784A
:1041D0004A78012A24D000EB4313D3F8002B002A9D
:1041E00050DBD0F83C580A7802F00F02012404FAA0
:1041F00002F225EA0242C0F83C28D0F81C280978CF
:1042000001F00F018C4022EA0444C0F81C48D3F8A6
:10421000001B234A0A40C3F8002B002030BC704723
:1042200000EB4313D3F80029002A1EDBD0F83C58DA
:104230000A7802F00F02012404FA02F292B225EA8F
:104240000202C0F83C28D0F81C28097801F00F01C0
:104250008C40A4B222EA0404C0F81C48D3F8001928
:10426000104A0A40C3F80029D7E7D3F8002942F0E2
:104270000062C3F80029D3F8002942F08042C3F855
:104280000029D3E7D3F8002B42F00062C3F8002BDB
:10429000D3F8002B42F08042C3F8002BA1E700BF07
:1042A0000078F3EF007833EC70B40B784C78012C85
:1042B00026D000EB431000F530631C69E40CE404E5
:1042C0001C611C6924F0FF5424F4C0141C614C6967
:1042D0000CB18C684C611C6944F400241C611C699D
:1042E0008D68C5F312052C431C61012A65D0D0F8F6
:1042F000003B43F00443C0F8003B002070BC704713
:104300004C696CBB00EB4314D4F8105925F0FF55F1
:1043100025F4C015C4F81059D4F8105945F40025F7
:10432000C4F81059D4F81059ED0CED04C4F8105924
:10433000012A33D000EB4313D3F8002942F00442A2
:10434000C3F800294B69002BD7D0D0F834380A784D
:1043500002F00F0101228A401343C0F83438CCE741
:1043600000EB431404F510642569ED0CED042561A0
:10437000256925F0FF5525F4C01525614E698D6826
:10438000AE4200D94D61256945F4002525612569B6
:104390004E69C6F3120635432561C9E70A691AB1A9
:1043A00000EB4311C1F8142900EB4310D0F80029A9
:1043B00042F00442C0F800299FE7CA68002A96D05C
:1043C0005A6194E770B49DF80C4064B903339D08BA
:1043D000AC4208D200EB023303F5805351F8046B72
:1043E0001E600134F4E7002070BC7047F0B583B064
:1043F0000B784C78012C2BD000EB431303F5306481
:104400002569ED0CED042561256925F0FF5525F49E
:10441000C01525614D69002D40F0C38025698E6867
:10442000C6F3120635432561256945F4002525614B
:10443000012A00F0CB80CA78012A00F0CD80D3F8A1
:10444000002B42F00442C3F8002B002003B0F0BD63
:104450004C6984BB00EB4314D4F8105925F0FF5588
:1044600025F4C015C4F81059D4F8105945F40025A6
:10447000C4F81059D4F81059ED0CED04C4F81059D3
:10448000012A4CD000EB4313D3F8004944F0044414
:10449000C3F80049CC78012C6AD04B69002BD4D0EA
:1044A000D0F83428097801F00F040121A1400A4313
:1044B000C0F83428C9E700EB4314D4F81059ED0CC8
:1044C000ED04C4F81059D4F8105925F0FF5525F41F
:1044D000C015C4F81059D4F810694D698F683D446F
:1044E000013DB5FBF7F5464F07EAC5453543C4F82E
:1044F0001059D4F810594E69C6F312063543C4F862
:10450000105904F51064CD78012DB9D1256925F035
:10451000C0452561256945F000552561B0E70A6968
:104520001AB100EB4314C4F81429CA78012A08D040
:1045300000EB4313D3F8002942F00442C3F80029EA
:1045400083E7D0F8082812F4807F08D100EB4311EC
:10455000D1F8002942F00052C1F80029E8E700EB49
:104560004311D1F8002942F08052C1F80029DFE759
:10457000D0F8084814F4807F0CD1D3F8004944F0F7
:104580000054C3F8004900928B8A0A78C968FFF783
:1045900019FF5AE7D3F8004944F08054C3F80049A2
:1045A000F1E78E683544013DB5FBF6F52669144FF9
:1045B00007EAC5473E43266127698E68ADB206FB10
:1045C00005F5C5F312053D43256131E7CA68002AA8
:1045D0003FF431AF62612EE7D0F8082812F4807FF3
:1045E00006D1D3F8002B42F00052C3F8002B26E787
:1045F000D3F8002B42F08052C3F8002B1FE700BF16
:104600000000F81F10B4033294080023A34206D21E
:1046100000F58052126841F8042B0133F6E7084692
:104620005DF8044B70470B784A78012A14D000EBF0
:104630004310D0F8002B002A06DB2BB1D0F8003B4A
:1046400023F08043C0F8003BD0F8003B43F4001354
:10465000C0F8003B0020704700EB4310D0F8002961
:10466000002A06DB2BB1D0F8003923F08043C0F8D4
:104670000039D0F8003943F40013C0F80039E9E7F5
:104680000B784A78012A0ED000EB4310D0F8003B9B
:1046900023F40013C0F8003BCB78023BDBB2012BC4
:1046A00015D90020704700EB4310D0F8003923F4EF
:1046B0000013C0F80039CB78023BDBB2012BF0D8F5
:1046C000D0F8003943F08053C0F80039E9E7D0F85A
:1046D000003B43F08053C0F8003BE2E7D0F80038DD
:1046E00023F4FE63C0F80038D0F80038090101F463
:1046F000FE611943C0F8001800207047D0F8003E52
:1047000023F00303C0F8003ED0F8043823F002037E
:10471000C0F8043800207047D0F8003E23F00303AF
:10472000C0F8003ED0F8043843F00203C0F8043863
:10473000002070474269806910407047D0F81838EF
:1047400000F50060C0691840000C7047D0F81838B8
:1047500000F50060C069184080B2704700EB41115D
:10476000D1F8082B00F5006040691040704710B484
:10477000D0F81048D0F8343801F00F02D340DB01F4
:10478000DBB2234300EB411000F510608068184055
:104790005DF8044B7047406900F001007047D0F8A5
:1047A000003923F4FF6323F00703C0F80039D0F881
:1047B000043843F48073C0F80438002070470000C8
:1047C00010B4046C154B9C4203D9D0F8003B002B6D
:1047D00016DB0024C0F8104BD0F8104B44F4002432
:1047E000C0F8104BD0F8104B44F01804C0F8104B30
:1047F000D0F8104B44F0C044C0F8104B012903D04E
:1048000000205DF8044B7047C0F8142BD0F8003B33
:1048100043F08023C0F8003BF2E700BF0A30544F5A
:1048200010B5D0F8BC42D0F8C0325BB194F80002A9
:10483000FF2807D09B6894F8012221469847FF2360
:1048400084F80032002010BD4323038000487047E5
:104850004400002043230380004870478800002064
:104860004323038000487047D80000200A230380B8
:1048700000487047CC00002038B5D0F8BC5275B164
:10488000044601F022FFC5F80C02D4F8C032DB6800
:1048900005F50371D5F804029847002038BD0320C0
:1048A000FCE738B5D0F8C442D0F8BC324BB301EBCA
:1048B000810200EB820292694AB1C1EBC10504EBAF
:1048C0008504656CB2FBF5F405FB14226AB1002483
:1048D000C3F81442D0F8C02215690A4603F50471E2
:1048E000D3F80802A847204638BD01EB810300EB4E
:1048F000830300249C612346224601F029FF2046C1
:10490000F2E70320F0E7F0B583B006460C46D0F896
:10491000BC7200238DF80730ADF804300B7813F02B
:10492000600527D0202D58D1CA88DAB113F0800F46
:104930000CD0D0F8C0329B68394660789847E2883E
:104940003946304600F0AFFD002549E04B7887F846
:1049500000328B7987F80132CA88394600F0B8FDF9
:1049600000253DE0D0F8C0329B6800224878984787
:10497000002535E04F780B2F2BD8DFE807F0063104
:104980002A2A2A2A2A2A2A2A142290F89C32032B1D
:1049900003D000F068FA032522E0022201A900F00A
:1049A00082FD3D461CE090F89C32032B03D000F0C2
:1049B0005AFA032514E001220DF1070100F073FDFE
:1049C0000EE090F89C32032B0AD000F04CFA03253D
:1049D00006E000F048FA032502E000F044FA03255F
:1049E000284603B0F0BD38B50446812101F090FEA1
:1049F000002525870121204601F08AFEA4F8785180
:104A00008221204601F084FEA4F84C50A4F84E50B8
:104A1000D4F8BC324BB1D4F8C0325B689847D4F8B4
:104A2000BC0201F001FFC4F8BC52002038BD70B5D3
:104A300004464FF4077001F0EFFEB8B30646C4F821
:104A4000BC02237CBBBB4FF40073022281212046B1
:104A500001F053FE012525874FF4007302222946F9
:104A6000204601F04AFEA4F878511023A4F84E30F5
:104A7000082303228221204601F03FFE0123A4F8EF
:104A80004C30D4F8C0321B6898470023C6F8143263
:104A9000C6F81832257C15BB4FF40073D6F80422F3
:104AA0000121204601F05CFE284670BD0023C4F8B9
:104AB000BC320225F8E7402302228121204601F082
:104AC0001CFE01252587402302222946204601F0AD
:104AD00014FEA4F878511023A4F84E30C8E7402300
:104AE000D6F804220121204601F03AFE0025DBE73A
:104AF00019B1C0F8C0120020704703207047D0F8E9
:104B0000BC32C3F80812C3F8102200207047D0F856
:104B1000BC32C3F804120020704710B5D0F8BC2294
:104B200092B1047C44B94FF40073D2F804220121FD
:104B300001F016FE204610BD4023D2F804220121C8
:104B400001F00EFE0024F5E70324F3E7C0B108B539
:104B50000346D0F8B80210B10020C3F8B802D3F869
:104B6000CC0210B10020C3F8CC0209B1C3F8B412D2
:104B7000012183F89C121A70184601F05BFD08BDF4
:104B80000320704710B582B00023ADF8063059B14C
:104B90000446C0F8B8128B6A0DF106009847C4F8B5
:104BA000CC02002002B010BD0320FBE708B501F0E5
:104BB0009CFD08BD08B5D0F8B83213B11B68984702
:104BC00008BD0320FCE708B5D0F8B8320BB15B682C
:104BD0009847002008BD38B5044600F2AA252846AB
:104BE00000F02DF90123C4F89432B4F8B032C4F8BF
:104BF000983294F8AA1201F01F03012B0DD0022B5A
:104C000010D02BB101F08001204601F089FD03E0B6
:104C10002946204600F0CEFA38BD2946204600F04D
:104C200001FBF9E72946204600F030FBF4E738B5F0
:104C300004460D4631BB1346D0F89422032A01D016
:104C4000084638BDD0F85C11D0F8602191420CD8EC
:104C5000D0F8B8321B691BB190F89C22032A0FD000
:104C6000204600F04CFC2846EBE7891AC0F85C119E
:104C70008A4228BF0A46194600F039FC2846E0E778
:104C80009847EDE7D0F8B8329B692BB190F89C2299
:104C9000032A03D19847D4E70320D2E70320D0E7C3
:104CA00038B504460D46002948D11346D0F8942261
:104CB000022A05D094F8A032012B3AD0284638BDFC
:104CC000C269016A8A4211D88A421BD0D4F8B8322C
:104CD000DB681BB194F89C22032A27D08021204650
:104CE00001F01EFD204600F015FCE3E7521AC261F8
:104CF000194600F0E5FB00231A461946204601F04C
:104D00002FFDD7E783699942E0D8D0F898229342E3
:104D1000DCD20022114600F0D3FB0021C4F8981227
:104D20000B460A46204601F01BFDC3E72046984784
:104D3000D4E7002384F8A0322846C0E7D0F8B83280
:104D40005B692BB190F89C22032A03D19847B6E700
:104D50000320B4E70320B2E770B50446012380F8CE
:104D60009C320023C0F894324360C0F8A432D0F8DB
:104D7000BC3223B1D0F8B8325B6800219847402399
:104D800000221146204601F0B8FC0126A4F8646117
:104D90004025C4F860512B4600228021204601F0B6
:104DA000ACFCA6842562002070BD01740020704711
:104DB00090F89C3280F89D32042380F89C320020C9
:104DC000704790F89C32042B01D00020704790F877
:104DD0009D3280F89C32F8E708B590F89C32032B9E
:104DE00001D0002008BDD0F8B832DB69002BF8D024
:104DF0009847F6E700207047002070470020704772
:104E000008B5012380F89C32D0F8B83213B15B6842
:104E100001799847002008BD034600201A781AB18E
:104E20000130C0B20133F9E7704708B54B88012B58
:104E300000D008BDC0F8A43200F061FBF9E70B78A0
:104E400003704B7843708B78CA7843EA022343801F
:104E50000B794A7943EA022383808B79CA7943EA42
:104E60000223C380704710B50446802101F058FC2E
:104E70000021204601F054FC10BD30B583B004463B
:104E80000D460023ADF806304A88130A013B062B75
:104E900000F2AB80DFE803F0041F33A9A98D9A006C
:104EA000D0F8B4321B680DF10601007C9847EA88FF
:104EB000002A00F0A380BDF80630002B00F0998096
:104EC0009A4228BF1A46ADF806200146204600F057
:104ED000EAFA03B030BD037C43B9D0F8B8329B6A1C
:104EE0000DF10600984702234370E0E7D0F8B8328E
:104EF000DB6A0DF10600984702234370D7E7D2B270
:104F0000052A52D8DFE802F003101D2A3744D0F8F2
:104F1000B4325B6823B10DF10601007C9847C6E707
:104F20002946FFF7A0FFD4E7D0F8B4329B6823B13D
:104F30000DF10601007C9847B9E72946FFF793FF7A
:104F4000C7E7D0F8B432DB6823B10DF10601007C6D
:104F50009847ACE72946FFF786FFBAE7D0F8B432A6
:104F60001B6923B10DF10601007C98479FE7294694
:104F7000FFF779FFADE7D0F8B4325B6923B10DF1EB
:104F80000601007C984792E72946FFF76CFFA0E7EF
:104F9000D0F8B4329B6923B10DF10601007C98472B
:104FA00085E72946FFF75FFF93E72946FFF75BFF99
:104FB0008FE7037C33B9D0F8B8325B6B0DF1060094
:104FC000984774E72946FFF74EFF82E7037C43B911
:104FD000D0F8B8321B6B0DF10600984707234370D9
:104FE00065E72946FFF73FFF73E72946FFF73BFFD9
:104FF0006FE729462046FFF736FF6AE7204600F0B4
:105000007EFA66E738B504468B88F3B9CB88E3B9F6
:105010004B887F2B19D803F07F0590F89C32032B27
:105020000CD080F89E52294601F08AFB204600F001
:1050300066FA35B1022384F89C3209E0FFF713FFCA
:1050400006E0012384F89C3202E02046FFF70BFFC4
:1050500038BD000070B504460E468D782D4B1D708E
:10506000012D0FD890F89C32022B0FD0032B23D0A8
:10507000FFF7F9FE274B19782046FFF7A4FD03251B
:10508000284670BDFFF7EFFE0325F9E78DB14560B7
:105090002946FFF78FFD054620B131462046FFF730
:1050A000E2FEEDE7204600F02AFA032384F89C3262
:1050B000E6E700F024FAE3E7CDB141688D4225D060
:1050C000C9B2FFF780FD134B197861602046FFF7E6
:1050D00071FD0546B0B131462046FFF7C4FE217987
:1050E0002046FFF770FD022384F89C32C8E70223B4
:1050F00080F89C3245602946FFF765FD204600F0A8
:10510000FEF9BDE7204600F0FAF9B9E700F0F7F93B
:105110000025B5E79412002008B5CB88012B0AD1F1
:1051200090F89C32022B09D9032B09D10122011DD1
:1051300000F0B9F901E0FFF796FE08BD5BB213B9C4
:10514000FFF791FEF9E70146002341F8083F0122ED
:1051500000F0A9F9F1E708B590F89C32013B022B69
:1051600012D8CB88022B0CD10123C360D0F8A43213
:105170000BB10323C360022200F10C0100F093F98C
:1051800008BDFFF770FEFBE7FFF76DFEF8E708B517
:1051900090F89C32013B022B09D84B88012B00D0A0
:1051A00008BD0023C0F8A43200F0A9F9F8E7FFF722
:1051B0005AFEF5E738B50C7804F06004202C06D0D0
:1051C000402C04D054B1FFF74EFE002404E0D0F888
:1051D000B8329B6898470446204638BD4D78092D63
:1051E0001DD8DFE805F012191C161C08051C0F0B52
:1051F000FFF743FEF0E7FFF705FFEDE7FFF72AFFB4
:105200000446E9E7FFF788FFE6E7FFF7A4FF2C462F
:10521000E2E7FFF70AFEDFE7FFF7B9FFDCE7FFF79A
:1052200022FED9E770B505460C460B7803F0600303
:10523000202B07D0402B05D023B1FFF714FE00260A
:10524000304670BD95F89C32013B022B18D823796B
:10525000012B0FD8D5F8B8329B68214628469847CD
:105260000646E388002BEBD10028E9D1284600F060
:1052700046F9E5E721462846FFF7F5FD0026DFE77A
:1052800021462846FFF7EFFD0026D9E7F8B5064688
:105290000D468B880C7804F06004202C08D0D9B21D
:1052A000402C05D06CB12946FFF7DDFD002406E057
:1052B000D6F8B8329B6829463046984704462046BF
:1052C000F8BD6F78012F2ED0032F05D0002F56D0B8
:1052D0002946FFF7C8FDF2E790F89C32022B05D073
:1052E000032B12D02946FFF7BEFDE8E709B180295C
:1052F00004D129463046FFF7B6FDE0E701F010FA89
:105300008021304601F00CFAD9E76B8823B919B136
:10531000802901D0EB881BB1304600F0F0F8CEE7D1
:1053200001F0FEF9F8E790F89C32022B05D0032B30
:1053300012D02946FFF797FDC1E709B1802904D1B2
:1053400029463046FFF78FFDB9E701F0E9F98021E2
:10535000304601F0E5F9B2E76B88002BAFD111F0D0
:105360007F0F09D1304600F0CAF8D6F8B8329B68F2
:10537000294630469847A2E701F0DAF9F2E790F8BB
:105380009C22022A06D0032A29D02946FFF76BFD6A
:105390003C4694E709B1802913D113F0800F15D151
:1053A00001F07F0101EB8101890001F5A871314411
:1053B000043100230B600222304600F074F83C46B2
:1053C0007DE72946FFF74FFD3C4678E701F07F0176
:1053D00001EB81018900103131440431E9E75BB20E
:1053E000002B1FDB01F00F0202EB820200EB8202B6
:1053F000B2F8642122B3002B27DB01F07F0303EB1B
:1054000083039C0004F5A8743444043409B1802952
:1054100024D10023236002222146304600F043F8C5
:105420003C464CE701F00F0202EB820200EB8202E5
:10543000928C002ADFD12946FFF715FD3C463EE756
:105440002946FFF710FD3C4639E701F07F0303EBE7
:1054500083039C00103434440434D7E7304601F011
:105460001DF910B101232360D5E700232360D2E7A3
:10547000C0B170B50D4616460446FFF7CDFC0130AD
:1054800040003080287003236B700223227842B1E1
:10549000EA5401345A1CD2B20021A9540233DBB2BF
:1054A000F4E770BD704710B513460222C0F894228D
:1054B0008361C3610A46002101F04AF9002010BD52
:1054C00008B513460A46002101F042F9002008BD44
:1054D00010B513460322C0F89422C0F85831C0F822
:1054E0005C310A46002101F03BF9002010BD08B5EF
:1054F00013460A46002101F033F9002008BD08B523
:105500000423C0F8943200231A46194601F020F90A
:10551000002008BD08B50523C0F8943200231A46C0
:10552000194601F01DF9002008BD842801D0033080
:1055300070470020704708B500F01CFD002008BD32
:105540002DE9F04387B004460F464569BDB1866931
:10555000AEB1D0F80480D0F80090B0F90800FFF7A1
:10556000E4FF0296019500903B4622694946404679
:1055700000F092FC0590059807B0BDE8F0836568DF
:105580002668D4F81080B4F90800FFF7CEFF05AB09
:10559000019300903B461FFA88F23146284600F0FE
:1055A000B5FC0128E7D00020E6E708B500B90120E6
:1055B00000F026FE002008BD00F1080343604FF014
:1055C000FF328260C36003610023036070470023E1
:1055D0000361704743684B609A688A6051609960C4
:1055E0000861036801330360704730B40D68B5F19A
:1055F000FF3F11D000F108031C465B681A68AA42FD
:10560000FAD963684B6099608C60616008610368D7
:105610000133036030BC70470469F2E703694168F5
:1056200082688A60416851605A68824206D00022CE
:1056300002611A68013A1A601868704782685A60F5
:10564000F5E70000124A12F0070F1ED0D11D21F01D
:105650000701C1F5705313440A460E480260002149
:1056600041601344083B23F007030B480360596073
:105670001960991A51601360084B1960084B196042
:10568000084B4FF000421A6070474FF47053E4E744
:105690009C120020A84E002098120020A44E00204A
:1056A000A04E00209C4E002010B4134B1A461B68DD
:1056B0008342FBD35168541884420AD0416844188D
:1056C000A3420BD00360904200D010605DF8044B01
:1056D00070474068014451601046EFE7074C24686A
:1056E000A34206D05B681944416013681B680360DD
:1056F000E9E70460E7E700BFA84E00209812002009
:1057000070B5044600F06CFC344B1B68A3B1344BFD
:105710001B681C424AD134B1083414F0070F02D080
:1057200024F007040834002C42D02E4B1B68A342FF
:105730004DD32D4B1D6804E0FFF784FFE7E72B46B0
:1057400015466A68A24202D22A68002AF7D1234A83
:105750001268AA423DD01E6808362A681A606B6833
:105760001B1B102B10D9281910F0070F08D04FF071
:10577000500383F31188BFF36F8FBFF34F8FFEE7A2
:1057800043606C60FFF790FF6A6816490B689B1ACC
:105790000B60164909688B4201D214490B60104B0B
:1057A0001B6813436B6000232B6002E0002600E0BF
:1057B000002600F0A9FC16F0070F0CD04FF05003A4
:1057C00083F31188BFF36F8FBFF34F8FFEE700267F
:1057D000EFE70026EDE7304670BD00BF98120020CD
:1057E0009C4E0020A04E0020A84E0020A44E002079
:1057F00080B338B50446A0F1080550F8043C164AB9
:105800001268134208D14FF0500383F31188BFF39D
:105810006F8FBFF34F8FFEE750F8081C41B14FF078
:10582000500383F31188BFF36F8FBFF34F8FFEE7F1
:1058300023EA020340F8043C00F0D2FB54F8041CB5
:10584000064A13680B4413602846FFF72DFF00F04B
:105850005BFC38BD704700BF9C4E0020A04E00206E
:1058600082B0002301930D4B1B68B3F1FF3F08D0BA
:105870004FF0500383F31188BFF36F8FBFF34F8F47
:10588000FEE74FF0500383F31188BFF36F8FBFF330
:105890004F8F019B002BFCD002B070471C010020F1
:1058A00008480068006880F308884FF0000080F323
:1058B000148862B661B6BFF34F8FBFF36F8F00DFFE
:1058C00000BF000008ED00E0DFF80C00016841F4C3
:1058D000700101607047000088ED00E04FF08073B8
:1058E00040F8043C21F0010140F8081C054B40F849
:1058F0000C3C40F8202C6FF0020340F8243C443864
:10590000704700BF61580008000000000000000060
:10591000074B19680868B0E8F04F80F30988BFF3B7
:105920006F8F4FF0000080F311887047AFF3008055
:10593000B84E00204FF0500383F31188BFF36F8FF0
:10594000BFF34F8F0A4A136801331360012B00D055
:105950007047084B1B6813F0FF0FF9D04FF050034E
:1059600083F31188BFF36F8FBFF34F8FFEE700BF44
:105970001C01002004ED00E0094B1B6843B94FF007
:10598000500383F31188BFF36F8FBFF34F8FFEE790
:10599000013B034A13600BB983F31188704700BFC2
:1059A0001C010020000000000000000000000000BA
:1059B000EFF30980BFF36F8F154B1A681EF0100FBD
:1059C00008BF20ED108A20E9F04F10602DE9090092
:1059D0004FF0500080F31188BFF34F8FBFF36F8FEC
:1059E00000F034FC4FF0000080F3118809BC196806
:1059F0000868B0E8F04F1EF0100F08BFB0EC108A36
:105A000080F30988BFF36F8F704700BFAFF300804A
:105A1000B84E002008B54FF0500383F31188BFF350
:105A20006F8FBFF34F8F00F0E3FA18B1034B4FF0C5
:105A300080521A60002383F3118808BD04ED00E052
:105A4000084A0023136008490B60084B1B6808498B
:105A5000A1FB03139B09013B06490B60072313605D
:105A6000704700BF10E000E018E000E000000020F8
:105A7000D34D621014E000E03A4B1A683A4B9A4258
:105A800029D0384B1A68394B9A422DD010B582B0C4
:105A9000374B1A78D2B20192FF221A701B78DBB210
:105AA0008DF803309DF8033003F05003314A137032
:105AB000314B07221A609DF8033013F0800F1CD081
:105AC0002D4A1368013B13609DF803305B00DBB285
:105AD0008DF80330EFE74FF0500383F31188BFF3E5
