:020000040800F2
:1000000000000320A9260008F7010008F9010008F4
:10001000FB010008FD010008FF01000800000000CE
:100020000000000000000000000000006122000845
:1000300001020008000000009122000803020008ED
:10004000F9260008F9260008F9260008F926000814
:10005000F9260008F9260008F9260008F926000804
:10006000F9260008F9260008F9260008F9260008F4
:1000700019020008F926000829020008F9260008DC
:10008000F926000839020008F9260008F9260008B8
:10009000F9260008F9260008F9260008F9260008C4
:1000A000F9260008F9260008F9260008F9260008B4
:1000B000F9260008F9260008F9260008F9260008A4
:1000C000F9260008F9260008F9260008F926000894
:1000D000F9260008F9260008F9260008F926000884
:1000E000F9260008F9260008F9260008F926000874
:1000F000F9260008F9260008F9260008F926000864
:10010000F9260008F9260008F9260008F926000853
:10011000F9260008F9260008F9260008F926000843
:10012000F92600084902000859020008690200087F
:1001300079020008F9260008F9260008F9260008C7
:10014000F9260008F9260008F926000889020008A7
:10015000F926000899020008F9260008A9020008FB
:10016000F9260008F9260008F9260008F9260008F3
:10017000F9260008F9260008F9260008000000000A
:10018000F9260008F9260008B9020008C90200088B
:10019000F9260008D9020008F9260008F926000807
:0C01A0000000000000000000F92600082C
:1001B00010B5054C237833B9044B13B10448AFF3A1
:1001C00000800123237010BD3404002000000000D3
:1001D0002428000808B5034B1BB103490348AFF3BB
:1001E000008008BD0000000038040020242800081A
:1001F000FEE772B6FEE7FEE7FEE7FEE7FEE7FEE794
:10020000704708B500F07EF802F078F9012800D1B7
:1002100008BD02F06FF8FBE708B5024800F092F85D
:1002200008BD00BF2806002008B5024800F08AF883
:1002300008BD00BF8806002008B5024800F082F81B
:1002400008BD00BF6805002008B5024800F07AF834
:1002500008BD00BFE806002008B5024800F072F8AB
:1002600008BD00BFC805002008B5024800F06AF8C4
:1002700008BD00BF5004002008B5024800F062F835
:1002800008BD00BFB004002008B5024800F056FACF
:1002900008BD00BF2809002008B5024800F052F848
:1002A00008BD00BF4807002008B5024800F010FF55
:1002B00008BD00BFA807002008B5024800F008FFED
:1002C00008BD00BFE807002008B5024800F000FFA5
:1002D00008BD00BF2808002008B5024800F0BEFD98
:1002E00008BD00BF10050020054BD3F8882042F45C
:1002F0007002C3F888204FF000629A60704700BF18
:1003000000ED00E0034A1168034B1B780B441360B7
:10031000704700BF680800200400002090F83530C6
:10032000DBB2022B03D080234365012070470523F5
:1003300080F835300268136823F001031360002051
:1003400070470000F0B583B0044600230193724B60
:100350001D68724BA3FB0535AD0A876D3E68C26D03
:1003600008239340334210D003681A6812F0040F38
:100370000BD01A6822F004021A60C26D0823934061
:10038000BB60436D43F001034365E26D012393407D
:10039000334209D02268526912F0800F04D0BB604A
:1003A000636D43F002036365E26D042393403342BF
:1003B00009D02268126812F0020F04D0BB60636D8E
:1003C00043F004036365E26D10239340334224D06D
:1003D0002268126812F0080F1FD0BB6023681A68E9
:1003E00012F4802F0DD01B6813F4002F04D1236C5E
:1003F0009BB12046984710E0A36C73B12046984704
:100400000BE01A6812F4807F03D11A6822F0080208
:100410001A60236C0BB120469847E26D202393406D
:10042000334255D02268126812F0100F50D0BB60D2
:1004300094F83530DBB2052B0ED023681A6812F41D
:10044000802F33D01B6813F4002F2AD1636C002B4C
:100450003ED0204698473BE02268136823F01603FD
:1004600013602268536923F080035361236CA3B1A6
:100470002268136823F008031360E26D3F23934062
:10048000BB60002384F83430012384F83530236DB9
:10049000002B3FD0204698473CE0A36C002BE7D1CF
:1004A000EBE7E36BA3B12046984711E01A6812F41A
:1004B000807F09D11A6822F010021A60002384F8A4
:1004C0003430012384F83530E36B0BB12046984774
:1004D000636DFBB1636D13F0010F17D0052384F832
:1004E00035302268136823F001031360019B013348
:1004F0000193AB4204D823681B6813F0010FF5D1B8
:10050000002384F83430012384F83530E36C0BB1D8
:100510002046984703B0F0BD00000020B5814E1B77
:100520002DE9F04782B0D0F80080C1EBC10300EBA9
:1005300083035A6D1B6D9A4255D807460C46C14637
:100540009B1AC1EBC10200EB8202526C9A4200D3AB
:100550001A4602F1030A4FEA9A0A15E006F1030A65
:100560004FEA9A0AC4EBC40507EB8505A96C3B7CEE
:100570000093B3B2E2B2404600F0B5FFAB6C334437
:10058000AB646B6D1E446E6509EB441303F5106399
:100590009B699BB2534512D3C4EBC40207EB8202A2
:1005A000516D136D99420AD24BB15B1AC4EBC40270
:1005B00007EB8202566C9E42D0D31E46CEE7C4EBB8
:1005C000C40007EB80073A6D7B6D9A420FD804F0A8
:1005D0000F040123A340D8F8344824EA0304C8F8E0
:1005E0003448002000E0012002B0BDE8F087002080
:1005F000FAE7000070B504460D460068066C00EB93
:10060000411303F530639A682169012911D03549F6
:100610008E4250D03DB9C5EBC50304EB8303D3F83C
:100620001032002B58D0E9B2204601F07FFF0020A5
:1006300070BD12F0080F09D02B498E42F7D912F481
:10064000004FF4D04FF400429A60F0E712F0200F10
:1006500002D020229A60EAE712F0280FE7D122495F
:100660008E4206D912F4004F03D04FF400429A6034
:10067000DDE7C5EBC50204EB8202D2F804121B6968
:10068000C3F31203C91AC2F81412D2F80412D2F832
:1006900008320B44C2F8083215B9D2F8103223B12F
:1006A000E9B2204601F042FFC1E704F57172012171
:1006B00001F0FCF8F4E712F4004F03D04FF40042CD
:1006C0009A60B4E712F0200F01D020229A60E9B2BC
:1006D000204601F02BFFAAE704F57172002101F01A
:1006E000E5F8A0E70A31544F0A30544F38B50446B4
:1006F00003681D6C03EB4113D3F8081B0E4A9542A7
:1007000007D903F5306311F4004F02D04FF40042D3
:100710009A60204601F002FF074B9D4202D92369EF
:10072000012B01D0002038BD04F571720121206831
:1007300001F0BCF8F6E700BF0A30544F2DE9F04F46
:1007400083B004460568284601F09BF810B103B059
:10075000BDE8F08F2F460646206801F061F80028BA
:10076000F5D0206801F05CF810F0020F04D0226888
:10077000536903F002035361206801F051F810F04F
:10078000100F14D02268936923F010039361D5F8F9
:10079000208008F00F09C8F34343022B68D0062BD2
:1007A00000F08D802268936943F010039361206804
:1007B00001F036F810F4002F40F09380206801F02B
:1007C0002FF810F4802F40F0D780206801F028F82F
:1007D0000028C0F24381206801F022F810F4006F75
:1007E0000AD0D5F8083813F0010F40F05181226883
:1007F000536903F400635361206801F011F810F4A9
:10080000805F40F04981206801F00AF810F4005F31
:1008100040F0A881206801F003F810F0080F40F0C4
:10082000B981206800F0FCFF10F4801F40F0BB810C
:10083000206800F0F5FF10F4001F40F0BE81206832
:1008400000F0EEFF10F0804F40F0C181206800F012
:10085000E7FF10F0040F3FF47AAF23685D6815F0EE
:10086000040F40F0BD81226853682B4353606EE74C
:1008700047F6F07318EA030F94D04FEA181B4FEABB
:10088000C9030193C9EBC90A04EB8A0AC8F30A1227
:10089000DAF80812284600F047FFCBF30A0BDAF823
:1008A00008325B44CAF80832019BA3EB090304EB4E
:1008B0008303D3F814325B44CAF8143272E7082277
:1008C00004F57171284600F02FFFC8F30A18C9EB30
:1008D000C90204EB8202D2F814324344C2F8143243
:1008E00060E7206800F0A0FF8046B14617E007EB04
:1008F00049130122C3F8082B49462046FFF77AFE28
:100900001DE007EB49130822C3F8082B494620468F
:10091000FFF7ECFE16E009F101094FEA5808B8F1BB
:10092000000F3FF44BAF18F0010FF4D05FFA89F1DC
:10093000206800F089FF824610F0010FD7D11AF02D
:10094000080FDED11AF0100F04D007EB4913102264
:10095000C3F8082B1AF0200F04D007EB491320220C
:10096000C3F8082B1AF4005FD5D007EB49134FF4F6
:100970000052C3F8082BCEE7206800F05DFF8046E8
:10098000B1462AE05946204601F0DCFD1AF0080F76
:1009900004D007EB49130822C3F808291AF0100FF6
:1009A00004D007EB49131022C3F808291AF0400FAE
:1009B00004D007EB49134022C3F808291AF0020FAC
:1009C00004D007EB49130222C3F808291AF0800F5C
:1009D0003FD109F101094FEA5808B8F1000F3FF47F
:1009E000F4AE18F0010FF4D05FFA89FB5946206885
:1009F00000F033FF824610F0010FC7D009F00F035B
:100A0000012101FA03F2D7F8343823EA0203C7F8C8
:100A1000343807EB4913C3F8081923698B42B1D165
:100A2000C9EBC90304EB8303596C9A6C0A449A64BA
:100A3000B9F1000FA6D1C9EBC90304EB83031B6D09
:100A4000002B9FD104F571720121206800F02EFF68
:100A500098E749462046FFF763FDBAE7D5F8043822
:100A600023F00103C5F8043894F8F433012B08D0BF
:100A7000204601F0A7FD2268536903F0004353614B
:100A8000A9E6002184F8F413204600F0DDF9F2E72E
:100A9000204601F07FFDAAE605F50068D8F804308D
:100AA00023F00103C8F804301021206800F01EFC78
:100AB00020E007EB46134FF67F31C3F80819D3F84F
:100AC000002922F40012C3F80029D3F8002942F0CB
:100AD0000062C3F80029C3F8081BD3F8002B22F4E6
:100AE0000012C3F8002BD3F8002B42F00062C3F8C9
:100AF000002B01366368B342DBD8D8F81C3043F0D2
:100B00000113C8F81C30236BEBB1D8F8843043F0E4
:100B10000B03C8F88430D8F8443043F00B03C8F80E
:100B20004430D5F8003823F4FE63C5F8003804F5E6
:100B30007172217C206800F0B9FE2268536903F4C9
:100B4000805353615FE6D8F8143043F4005343F008
:100B50002B03C8F81430D8F8103043F00B03C8F852
:100B60001030DEE7206800F090FE206800F0D2FB35
:100B7000E060256800F06AF90146227B284600F013
:100B800043FB204601F0EFFC2268536903F4005355
:100B900053613FE6204601F0E0FC2268536903F010
:100BA000080353613DE60021204601F017FD22684D
:100BB000536903F4801353613AE60021204601F0A3
:100BC00007FD2268536903F40013536137E620469A
:100BD00001F00AFD2268536903F08043536135E652
:100BE000204601F007FD3EE690F8BC33012B0DD006
:100BF00010B50446012380F8BC3380F83810006833
:100C000000F0FEFD002084F8BC0310BD02207047F8
:100C1000F8B507460C4611F0800F27D101F00F05FB
:100C2000C5EBC506B60006F5FC760644311DC5EBDE
:100C3000C50500EB8505002085F8FD0104F00F04D3
:100C40000C708A60CB704A7802B1CC80022B1DD028
:100C500097F8BC33012B1CD0012387F8BC333868CC
:100C600000F069FB002087F8BC03F8BD01F00F001D
:100C7000C0EBC0018900383139440431C0EBC000F9
:100C800007EB8000012580F83D50D7E700230B716A
:100C9000DEE70220E9E738B501F00F04C4EBC40138
:100CA000890001F5FC7101440431C4EBC40500EB7B
:100CB0008505C5F80822C5F810320023C5F814329E
:100CC00085F8FD3185F8FC410369012B06D064B934
:100CD000DAB2006800F079FB002038BDC4EBC4052F
:100CE00000EB8505C5F80C22F1E7DAB2006800F0E8
:100CF0000FFCF1E738B501F00F04C4EBC401890023
:100D0000383101440431C4EBC40500EB8505AA6405
:100D10002B6500236B65012385F83D3085F83C4049
:100D20000369012B06D05CB9DAB2006800F04DFB14
:100D3000002038BDC4EBC40500EB8505EA64F2E78A
:100D4000DAB2006800F0E4FBF2E738B501F00F0515
:100D50004268954239D804460B4611F0800F1FD1E6
:100D6000C1EBC101890001F5FC7101440431C3EB01
:100D7000C30300EB8303002283F8FD2101238B7062
:100D80000D7094F8BC33012B21D0012384F8BC33BF
:100D9000206800F0DAFC8DB1002084F8BC0338BD77
:100DA000C5EBC5018900383101440431C5EBC503E9
:100DB00000EB8303012283F83D20DFE704F5717225
:100DC000217C206800F072FDE6E70120E7E70220C1
:100DD000E5E701F00F034268934231D810B50446AD
:100DE00011F0800F1ED1C3EBC301890001F5FC7126
:100DF00001440431C3EBC30200EB8202002082F8FD
:100E0000FD0100228A700B7094F8BC33012B19D0BD
:100E1000012384F8BC33206800F0C4FC002084F86F
:100E2000BC0310BDC3EBC301890038310144043158
:100E3000C3EBC30200EB8202012082F83D00E0E731
:100E4000012070470220ECE770470000014B186852
:100E5000704700BF000000207047000030B585B02B
:100E60000446026851689368C3F3801013F0400F82
:100E700005D113F0010F02D011F0400F69D113F02A
:100E8000020F02D011F0800F67D1C3F3401513F0A9
:100E9000200F03D110B913F4807F61D011F0200F1F
:100EA0005ED078B194F85100C0B203285AD0606D7A
:100EB00040F00400606500200090D06800909068C9
:100EC0000090009865B1606D40F001006065002001
:100ED000029090680290106820F040001060029A22
:100EE00013F4807F09D0636D43F00803636500232A
:100EF000039323689B680393039B636D002B2FD0A0
:100F00002268536823F0E0035360012384F85130D2
:100F100011F0030F2ED02268536823F003035360AF
:100F2000E36C4BB1154A1A65E06CFFF7F7F918B19D
:100F3000636D43F040036365A36C8BB10F4A1A6580
:100F4000A06CFFF7EBF958B1636D43F040036365A4
:100F500006E0236C2046984702E0636C20469847E1
:100F600005B030BD00230193D368019393680193CA
:100F7000019BF5E72046FFF76FFFF1E7810F0008BF
:100F800008B5806B0023C387C386FFF765FF08BDE4
:100F90000268D36823F49073D3600268536923F026
:100FA00001035361202380F83A30704790F83930BC
:100FB000DBB2212B01D0022070478368B3F5805F3C
:100FC00017D0036A5A1C02621A7803685A60C38CED
:100FD0009BB2013B9BB2C3844BB90268D36823F038
:100FE0008003D3600268D36843F04003D3600020DD
:100FF0007047036A1B880268C3F3080353600369E0
:101000001BB9036A02330362E1E7036A0133036237
:10101000DDE7704708B50168CA6822F04002CA607F
:10102000202280F83920FFF7F4FF002008BD704728
:1010300008B590F83A30DBB2222B46D18368B3F57D
:10104000805F0FD003690BBB03685A68836A591C21
:1010500081621A70C38D9BB2013B9BB2C385F3B111
:10106000002008BD826A036943B903685B68C3F363
:1010700008031380836A02338362EBE703685B68CB
:10108000DBB21380836A01338362E3E703685B6842
:10109000826A511C816203F07F031370DAE70268F1
:1010A000D36823F02003D3600268D36823F48073ED
:1010B000D3600268536923F001035361202380F851
:1010C0003A30FFF7B4FF0020CBE70220C9E77047B2
:1010D00010B5044602681368D168526913F00F0016
:1010E00005D113F0200F02D011F0200F13D128B139
:1010F00012F0010213D111F4907F10D113F0800F80
:1011000002D011F0800F6CD113F0400F02D011F01B
:10111000400F6AD110BD2046FFF78AFFFAE713F0AF
:10112000010F06D011F4807F03D0E06B40F0010086
:10113000E06313F0040F04D01AB1E06B40F002003A
:10114000E06313F0020F04D01AB1E06B40F004002A
:10115000E06313F0080F07D011F0200F00D11AB18F
:10116000E26B42F00802E263E26B002AD2D013F095
:10117000200F02D011F0200F21D123685B6903F00A
:101180004003E26B12F0080F00D123B32046FFF7B3
:10119000FFFE23685A6912F0400F18D05A6922F0F6
:1011A00040025A61636B73B1124A1A65606BFFF7B4
:1011B000B5F80028AED0606B036D9847AAE72046CB
:1011C000FFF736FFD9E72046FFF781FFA2E7204669
:1011D000FFF77DFF9EE72046FFF779FF0023E363DB
:1011E00098E72046FFF7E2FE94E72046FFF712FF5C
:1011F00090E700BFF911000808B5806B0023C38594
:10120000C384FFF764FF08BD022A0AD00921C2681F
:1012100022F47052C260C36843EA8123C360002095
:101220007047234B0B44234A93422FD9224B0B4444
:10123000224A93422CD9A1F57403A3F51053204AF6
:10124000934227D9A1F18373A3F5E7431D4A934243
:1012500022D31D4B0B441D4A93421FD91C4B0B44F8
:101260001C4A93421CD31C4B0B441C4A934219D377
:10127000A1F1B773A3F55853194A934214D3194BEC
:101280000B44194A934211D20721C0E70F21BEE750
:101290000E21BCE70D21BAE70C21B8E70B21B6E718
:1012A0000A21B4E70921B2E70821B0E70621AEE739
:1012B000405327FFFF340C00401E1BFF3F420F002E
:1012C0007F4F120020D6130060B6E5FE5FE31600E4
:1012D00000D3CEFE40771B00C05BB3FEC09121005F
:1012E00020753800E05459FEE09C4100890141F02E
:1012F0002001016100230133054A934205D80269A8
:1013000012F0200FF7D1002070470320704700BF74
:10131000400D0300D0F8083813F0060307D0022B65
:1013200007D0062B01D00F20704702207047002005
:1013300070470220704770B40C784B78012B22D094
:10134000D0F81C3804F00F060122B24043EA0243F1
:10135000C0F81C3800EB4410D0F8003B13F4004FE9
:101360000ED1D0F8003B8A68C2F30A02C97842EA7B
:101370008142134343F0805343F40043C0F8003BE1
:10138000002070BC7047D0F81C2804F00F06B34052
:101390009BB21343C0F81C3800EB4410D0F800395E
:1013A00013F4004FECD1D0F800398A68C2F30A0276
:1013B000C97842EA814242EA84541C4344F0805492
:1013C00044F40044C0F80049DAE770B40B784C7874
:1013D000012C26D000EB431000F530631C69E40CAF
:1013E000E4041C611C6924F0FF5424F4C0141C6143
:1013F0004C690CB18C684C611C6944F400241C617C
:101400001C698D68C5F312052C431C61012A65D047
:10141000D0F8003B43F00443C0F8003B002070BC10
:1014200070474C696CBB00EB4314D4F8105925F09D
:10143000FF5525F4C015C4F81059D4F8105945F4D7
:101440000025C4F81059D4F81059ED0CED04C4F877
:101450001059012A33D000EB4313D3F8002942F08E
:101460000442C3F800294B69002BD7D0D0F8343898
:101470000A7802F00F0101228A401343C0F8343881
:10148000CCE700EB431404F510642569ED0CED0482
:101490002561256925F0FF5525F4C01525614E69A4
:1014A0008D68AE4200D94D61256945F4002525615E
:1014B00025694E69C6F3120635432561C9E70A69F5
:1014C0001AB100EB4311C1F8142900EB4310D0F816
:1014D000002942F00442C0F800299FE7CA68002AA8
:1014E00096D05A6194E770B49DF80C4064B9033308
:1014F0009D08AC4208D200EB023303F5805351F84B
:10150000046B1E600134F4E7002070BC70470000DB
:10151000F0B583B00B784C78012C2BD000EB431343
:1015200003F530642569ED0CED042561256925F08E
:10153000FF5525F4C01525614D69002D40F0C3808D
:1015400025698E68C6F3120635432561256945F481
:1015500000252561012A00F0CB80CA78012A00F01D
:10156000CD80D3F8002B42F00442C3F8002B0020BA
:1015700003B0F0BD4C6984BB00EB4314D4F81059A0
:1015800025F0FF5525F4C015C4F81059D4F81059AA
:1015900045F40025C4F81059D4F81059ED0CED04A9
:1015A000C4F81059012A4CD000EB4313D3F800497A
:1015B00044F00444C3F80049CC78012C6AD04B694C
:1015C000002BD4D0D0F83428097801F00F04012181
:1015D000A1400A43C0F83428C9E700EB4314D4F80B
:1015E0001059ED0CED04C4F81059D4F8105925F039
:1015F000FF5525F4C015C4F81059D4F810694D6989
:101600008F683D44013DB5FBF7F5464F07EAC545F8
:101610003543C4F81059D4F810594E69C6F3120670
:101620003543C4F8105904F51064CD78012DB9D1B3
:10163000256925F0C0452561256945F000552561DE
:10164000B0E70A691AB100EB4314C4F81429CA7848
:10165000012A08D000EB4313D3F8002942F00442DA
:10166000C3F8002983E7D0F8082812F4807F08D156
:1016700000EB4311D1F8002942F00052C1F80029D3
:10168000E8E700EB4311D1F8002942F08052C1F89D
:101690000029DFE7D0F8084814F4807F0CD1D3F894
:1016A000004944F00054C3F8004900928B8A0A783C
:1016B000C968FFF718FF5AE7D3F8004944F080548F
:1016C000C3F80049F1E78E683544013DB5FBF6F5F6
:1016D0002669144F07EAC5473E43266127698E688D
:1016E000ADB206FB05F5C5F312053D43256131E7B3
:1016F000CA68002A3FF431AF62612EE7D0F80828AB
:1017000012F4807F06D1D3F8002B42F00052C3F8C8
:10171000002B26E7D3F8002B42F08052C3F8002BB1
:101720001FE700BF0000F81F10B403329408002325
:10173000A34206D200F58052126841F8042B01330F
:10174000F6E708465DF8044B70470B784A78012AA3
:1017500014D000EB4310D0F8002B002A06DB2BB18D
:10176000D0F8003B23F08043C0F8003BD0F8003BAA
:1017700043F40013C0F8003B0020704700EB431017
:10178000D0F80029002A06DB2BB1D0F8003923F06D
:101790008043C0F80039D0F8003943F40013C0F892
:1017A0000039E9E70B784A78012A0ED000EB4310A4
:1017B000D0F8003B23F40013C0F8003BCB78023B89
:1017C000DBB2012B15D90020704700EB4310D0F895
:1017D000003923F40013C0F80039CB78023BDBB2A8
:1017E000012BF0D8D0F8003943F08053C0F800390D
:1017F000E9E7D0F8003B43F08053C0F8003BE2E754
:10180000D0F8003823F4FE63C0F80038D0F8003870
:10181000090101F4FE611943C0F800180020704767
:101820004269806910407047D0F8183800F50060B0
:10183000C0691840000C7047D0F8183800F50060F7
:10184000C069184080B2704700EB4111D1F8082BF5
:1018500000F5006040691040704710B4D0F810489F
:10186000D0F8343801F00F02D340DB01DBB2234360
:1018700000EB411000F51060806818405DF8044BE3
:101880007047406900F001007047D0F8003923F438
:10189000FF6323F00703C0F80039D0F8043843F49D
:1018A0008073C0F8043800207047000010B4046C46
:1018B000154B9C4203D9D0F8003B002B16DB0024CB
:1018C000C0F8104BD0F8104B44F40024C0F8104B73
:1018D000D0F8104B44F01804C0F8104BD0F8104B5F
:1018E00044F0C044C0F8104B012903D000205DF83B
:1018F000044B7047C0F8142BD0F8003B43F0802312
:10190000C0F8003BF2E700BF0A30544F08B5D0F8EA
:10191000B83213B11B68984708BD0320FCE708B52F
:10192000D0F8B8320BB15B689847002008BD38B5D5
:10193000044600F2AA25284600F024F90123C4F841
:101940009432B4F8B032C4F8983294F8AA1201F084
:101950001F03012B0DD0022B10D02BB101F0800101
:10196000204600F079FE03E02946204600F0C4FA44
:1019700038BD2946204600F0F7FAF9E72946204607
:1019800000F026FBF4E738B504460D4631BB13469C
:10199000D0F89422032A01D0084638BDD0F85C1153
:1019A000D0F8602191420CD8D0F8B8321B691BB135
:1019B00090F89C22032A0FD0204600F018FC2846FD
:1019C000EBE7891AC0F85C118A4228BF0A4619461B
:1019D00000F005FC2846E0E79847EDE7D0F8B8327C
:1019E0009B692BB190F89C22032A03D19847D4E736
:1019F0000320D2E70320D0E738B504460D4600297E
:101A000048D11346D0F89422022A05D094F8A03287
:101A1000012B3AD0284638BDC269016A8A4211D8E2
:101A20008A421BD0D4F8B832DB681BB194F89C22F0
:101A3000032A27D08021204600F00EFE204600F029
:101A4000E1FBE3E7521AC261194600F0C0FB002334
:101A50001A461946204600F01FFED7E783699942CF
:101A6000E0D8D0F898229342DCD20022114600F050
:101A7000AEFB0021C4F898120B460A46204600F03F
:101A80000BFEC3E720469847D4E7002384F8A03232
:101A90002846C0E7D0F8B8325B692BB190F89C2299
:101AA000032A03D19847B6E70320B4E70320B2E73F
:101AB00070B50446012380F89C320023C0F89432AC
:101AC0004360C0F8A432D0F8BC3223B1D0F8B832A9
:101AD0005B6800219847402300221146204600F011
:101AE000B0FD0126A4F864614025C4F860512B467E
:101AF00000228021204600F0A4FDA684256200205B
:101B000070BD01740020704790F89C3280F89D32BF
:101B1000042380F89C320020704790F89C32042BFC
:101B200001D00020704790F89D3280F89C32F8E791
:101B300008B590F89C32032B01D0002008BDD0F8E6
:101B4000B832DB69002BF8D09847F6E700207047E1
:101B5000002070470020704708B5012380F89C32B0
:101B6000D0F8B83213B15B6801799847002008BDFE
:101B700008B54B88012B00D008BDC0F8A43200F096
:101B800036FBF9E70B7803704B7843708B78CA7893
:101B900043EA022343800B794A7943EA0223838094
:101BA0008B79CA7943EA0223C380704710B5044693
:101BB000802100F051FD0021204600F04DFD10BDB8
:101BC00030B583B004460D460023ADF806304A8890
:101BD000130A013B062B00F2AB80DFE803F0041F81
:101BE00033A9A98D9A00D0F8B4321B680DF1060113
:101BF000007C9847EA88002A00F0A380BDF80630F0
:101C0000002B00F099809A4228BF1A46ADF80620B2
:101C10000146204600F0CEFA03B030BD037C43B944
:101C2000D0F8B8329B6A0DF1060098470223437042
:101C3000E0E7D0F8B832DB6A0DF1060098470223DE
:101C40004370D7E7D2B2052A52D8DFE802F003107A
:101C50001D2A3744D0F8B4325B6823B10DF1060178
:101C6000007C9847C6E72946FFF7A0FFD4E7D0F8E5
:101C7000B4329B6823B10DF10601007C9847B9E7A7
:101C80002946FFF793FFC7E7D0F8B432DB6823B1EA
:101C90000DF10601007C9847ACE72946FFF786FF67
:101CA000BAE7D0F8B4321B6923B10DF10601007C0C
:101CB00098479FE72946FFF779FFADE7D0F8B432A0
:101CC0005B6923B10DF10601007C984792E7294634
:101CD000FFF76CFFA0E7D0F8B4329B6923B10DF198
:101CE0000601007C984785E72946FFF75FFF93E7E9
:101CF0002946FFF75BFF8FE7037C33B9D0F8B83292
:101D00005B6B0DF10600984774E72946FFF74EFF1D
:101D100082E7037C43B9D0F8B8321B6B0DF10600A3
:101D200098470723437065E72946FFF73FFF73E7AE
:101D30002946FFF73BFF6FE729462046FFF736FFAE
:101D40006AE7204600F053FA66E738B504468B8808
:101D5000F3B9CB88E3B94B887F2B19D803F07F0503
:101D600090F89C32032B0CD080F89E52294600F04C
:101D700083FC204600F03BFA35B1022384F89C3204
:101D800009E0FFF713FF06E0012384F89C3202E02C
:101D90002046FFF70BFF38BD70B504460E468D7820
:101DA0002D4B1D70012D0FD890F89C32022B0FD0B7
:101DB000032B23D0FFF7FAFE274B19782046FFF7B5
:101DC000AEFD0325284670BDFFF7F0FE0325F9E7B9
:101DD0008DB145602946FFF799FD054620B1314692
:101DE0002046FFF7E3FEEDE7204600F000FA03236C
:101DF00084F89C32E6E700F0FAF9E3E7CDB14168F8
:101E00008D4225D0C9B2FFF78AFD134B1978616066
:101E10002046FFF77BFD0546B0B131462046FFF76F
:101E2000C5FE21792046FFF77AFD022384F89C3213
:101E3000C8E7022380F89C3245602946FFF76FFD12
:101E4000204600F0D4F9BDE7204600F0D0F9B9E70C
:101E500000F0CDF90025B5E76C08002008B5CB8867
:101E6000012B0AD190F89C32022B09D9032B09D1FE
:101E70000122011D00F09EF901E0FFF797FE08BD69
:101E80005BB213B9FFF792FEF9E70146002341F870
:101E9000083F012200F08EF9F1E708B590F89C3276
:101EA000013B022B12D8CB88022B0CD10123C3603B
:101EB000D0F8A4320BB10323C360022200F10C015D
:101EC00000F078F908BDFFF771FEFBE7FFF76EFE43
:101ED000F8E708B590F89C32013B022B09D84B88F3
:101EE000012B00D008BD0023C0F8A43200F07FF918
:101EF000F8E7FFF75BFEF5E738B50C7804F060040F
:101F0000202C06D0402C04D054B1FFF74FFE002403
:101F100004E0D0F8B8329B6898470446204638BDA4
:101F20004D78092D1DD8DFE805F012191C161C0884
:101F3000051C0F0BFFF744FEF0E7FFF706FFEDE788
:101F4000FFF72AFF0446E9E7FFF788FFE6E7FFF718
:101F5000A4FF2C46E2E7FFF70BFEDFE7FFF7B9FF30
:101F6000DCE7FFF723FED9E770B505460C460B7892
:101F700003F06003202B07D0402B05D023B1FFF7DF
:101F800015FE0026304670BD95F89C32013B022BB1
:101F900018D82379012B0FD8D5F8B8329B68214681
:101FA000284698470646E388002BEBD10028E9D164
:101FB000284600F01CF9E5E721462846FFF7F6FD24
:101FC0000026DFE721462846FFF7F0FD0026D9E787
:101FD000F8B506460D468B880C7804F06004202C7A
:101FE00008D0D9B2402C05D06CB12946FFF7DEFDF0
:101FF000002406E0D6F8B8329B6829463046984758
:1020000004462046F8BD6F78012F2ED0032F05D04F
:10201000002F56D02946FFF7C9FDF2E790F89C3211
:10202000022B05D0032B12D02946FFF7BFFDE8E7AE
:1020300009B1802904D129463046FFF7B7FDE0E712
:1020400000F00AFB8021304600F006FBD9E76B88E0
:1020500023B919B1802901D0EB881BB1304600F0BB
:10206000C6F8CEE700F0F8FAF8E790F89C32022BB9
:1020700005D0032B12D02946FFF798FDC1E709B11F
:10208000802904D129463046FFF790FDB9E700F0DA
:10209000E3FA8021304600F0DFFAB2E76B88002BCC
:1020A000AFD111F07F0F09D1304600F0A0F8D6F87B
:1020B000B8329B68294630469847A2E700F0D4FA28
:1020C000F2E790F89C22022A06D0032A29D029465A
:1020D000FFF76CFD3C4694E709B1802913D113F05A
:1020E000800F15D101F07F0101EB8101890001F51D
:1020F000A8713144043100230B600222304600F005
:1021000059F83C467DE72946FFF750FD3C4678E705
:1021100001F07F0101EB810189001031314404316C
:10212000E9E75BB2002B1FDB01F00F0202EB82023A
:1021300000EB8202B2F8642122B3002B27DB01F00E
:102140007F0303EB83039C0004F5A8743444043438
:1021500009B1802924D10023236002222146304680
:1021600000F028F83C464CE701F00F0202EB820237
:1021700000EB8202928C002ADFD12946FFF716FD80
:102180003C463EE72946FFF711FD3C4639E701F0A2
:102190007F0303EB83039C00103434440434D7E7FB
:1021A000304600F02DFA10B101232360D5E700235B
:1021B0002360D2E710B513460222C0F8942283614F
:1021C000C3610A46002100F05FFA002010BD08B587
:1021D00013460A46002100F057FA002008BD08B552
:1021E00013460A46002100F057FA002008BD08B542
:1021F0000423C0F8943200231A46194600F044FA2A
:10220000002008BD08B50523C0F8943200231A4603
:10221000194600F041FA002008BD43684B609A68F7
:102220008A605160996008610368013303607047F8
:102230000369416882688A60416851605A688242D5
:1022400006D0002202611A68013A1A6018687047C5
:1022500082685A60F5E700000000000000000000FE
:10226000074B19680868B0E8F04F80F30988BFF39E
:102270006F8F4FF0000080F311887047AFF300803C
:1022800070080020000000000000000000000000B6
:10229000EFF30980BFF36F8F154B1A681EF0100F14
:1022A00008BF20ED108A20E9F04F10602DE90900E9
:1022B0004FF0500080F31188BFF34F8FBFF36F8F43
:1022C00000F0D0F84FF0000080F3118809BC1968C5
:1022D0000868B0E8F04F1EF0100F08BFB0EC108A8D
:1022E00080F30988BFF36F8F704700BFAFF30080A2
:1022F0007008002008B54FF0500383F31188BFF336
:102300006F8FBFF34F8F00F021F818B1034B4FF0E0
:1023100080521A60002383F3118808BD04ED00E0A9
:10232000084B1B681B6823B9074B4FF0FF321A603C
:102330007047044B1B68DB68DB685A68024B1A6005
:10234000704700BF7408002014090020F8B53A4B0C
:102350001B68002B64D1394B1D6801351D60C5B960
:10236000374B1B681B6843B14FF0500383F3118850
:10237000BFF36F8FBFF34F8FFEE7314A1168314BC8
:10238000186810601960304A136801331360FFF752
:10239000C7FF2E4B1B68AB4238D900242C4B1B685F
:1023A000DB6A03EB83039A002A4B9B58012B3CD931
:1023B00001243AE00124224B1B681B6843B3204BE5
:1023C0001B68DB68DE6873689D4226D3371D38467C
:1023D000FFF72EFFB36A1BB106F11800FFF728FFC5
:1023E000F36A01229A401C49086802430A6003EB21
:1023F00083039A00394617481044FFF70EFFF26A2C
:10240000134B1B68DB6A9A42D4D2D4E70024D2E78C
:102410000E4B4FF0FF321A60C0E70C4A1360BDE765
:102420000E4A13680133136000240D4B1B6803B17F
:1024300001242046F8BD00BF0C090020200900201F
:1024400074080020780800201809002014090020D2
:10245000700800207C0800201009002008090020D6
:1024600024090020204B1B681BB1204B01221A605D
:1024700070471E4B00221A601D4B1B68B3FA83F392
:10248000DBB2C3F11F0303EB83018A0019498A58A9
:1024900042B94FF0500383F31188BFF36F8FBFF33E
:1024A0004F8FFEE710B4134903EB830082000A4408
:1024B00050684068506003EB8304A2001446083261
:1024C000114488420BD003EB83039A00094B134459
:1024D0005B68DA68084B1A605DF8044B7047406827
:1024E000044A22445060EEE70C0900202409002031
:1024F000100900207C08002070080020054B1B6894
:1025000033B1054B1B680BB10020704702207047A8
:10251000012070471C0900200C09002008B500F5B7
:102520007171D0F80404FFF702FA08BD08B5C1EBD9
:10253000C10300EB8303D3F80822D0F80404FFF7AB
:1025400022FA08BD08B5C1EBC10300EB83039A6C06
:10255000D0F80404FFF750FA08BD08B5D0F8040419
:10256000FFF7E6FA08BD10B50446C3683BB1022B7D
:1025700001D1012104E0FDF73CFE012100E0002132
:10258000D4F80404FFF7BDFAD4F80404FFF790FA76
:1025900010BD000010B50446D0F80404FFF7B4FAEB
:1025A0002268D2F8003E43F00103C2F8003E236ADD
:1025B00023B1034A136943F00603136110BD00BF42
:1025C00000ED00E008B5D0F80404FFF7A6FA08BD56
:1025D00008B5D0F80404FFF7BBFA08BD08B5D0F879
:1025E0000404FFF7B3FA08BD08B5D0F80404FFF7F8
:1025F000B1FA08BD08B5D0F80404FFF7ADFA08BD7C
:10260000D0F8C43211F0800F08D101F07F01C1EB86
:10261000C10103EB810191F8FE01704701F07F01D8
:10262000C1EBC10103EB810191F83E007047032823
:1026300005D8DFE800F005040205012070470320FB
:10264000704710B514461A462346D0F8C402FEF768
:10265000DFFAFFF7ECFF10BD08B5D0F8C402FEF7B3
:1026600074FBFFF7E4FF08BD08B5D0F8C402FEF71D
:10267000B0FBFFF7DCFF08BD08B5D0F8C402FEF7D9
:10268000B3FAFFF7D4FF08BD08B5D0F8C402FEF7CF
:1026900031FBFFF7CCFF08BD08B5D0F8C402FEF748
:1026A000FAFAFFF7C4FF08BDDFF834D0002103E0D9
:1026B0000C4B5B58435004310B480C4B42189A4268
:1026C000F6D30B4A02E0002342F8043B094B9A423E
:1026D000F9D3FDF709FE00F011F8FDF789FD704709
:1026E000000003204C2800080000002034040020D3
:1026F00034040020540D0020FEE7000070B50D4E9C
:102700000D4D761BB61006D0002455F8043B01345D
:102710009847A642F9D1094E094D761B00F082F880
:10272000B61006D0002455F8043B01349847A64261
:10273000F9D170BD4028000840280008482800084A
:1027400040280008024B13B1024800F005B870475A
:102750000000000065270008002301461A461846BD
:1027600000F01AB838B5084B084D5B1B9C1007D019
:10277000043B1D44013C55F804399847002CF9D11D
:10278000BDE8384000F054B84C280008482800083C
:10279000704700BF704700BF2DE9F047DFF880A009
:1027A0000646DAF8000098460F469146FFF7F0FF1C
:1027B0001A4B1B68D3F8484124B365681F2D26DCEB
:1027C0005EB9AB1C0135DAF80000656044F823708F
:1027D000FFF7E0FF0020BDE8F08704EB850301214F
:1027E000C3F88890D4F88821A9400A43022EC4F87F
:1027F0008821C3F80881E4D1D4F88C311943C4F896
:102800008C11DEE703F5A674C3F84841D5E7DAF882
:102810000000FFF7BFFF4FF0FF30DCE73C28000867
:1028200030040020F8B500BFF8BC08BC9E467047D5
:0C283000F8B500BFF8BC08BC9E4670471D
:04283C000800002070
:0828400045270008D50100083E
:04284800B1010008D2
:10284C000024F4000100000000000000F40200204D
:10285C005C030020C4030020000000000000000006
:10286C00000000000000000000000000000000005C
:10287C00000000000000000000000000000000004C
:10288C00000000000000000000000000000000003C
:10289C00000000000000000000000000000000002C
:1028AC00000000000000000000000000000000001C
:1028BC00000000000000000000000000000000000C
:1028CC0000000000000000000000000000000000FC
:1028DC0000000000000000000000000000000000EC
:1028EC0000000000000000000000000000000000DC
:1028FC0001000000000000000E33CDAB34126DE679
:10290C00ECDE05000B0000000000000000000000E1
:10291C0000000000000000000000000000000000AB
:10292C00000000000000000000000000000000009B
:10293C00000000000000000000000000000000008B
:10294C00000000000000000000000000000000007B
:042C7C00300D0020F7
:04000005080026A920
:00000001FF
